
SpectraV1A.elf:     file format elf32-littlearm

Sections:
Idx Name          Size      VMA       LMA       File off  Algn
  0 .isr_vector   000001ac  08000000  08000000  00010000  2**0
                  CONTENTS, ALLOC, LOAD, READONLY, DATA
  1 .text         0000f788  080001b0  080001b0  000101b0  2**3
                  CONTENTS, ALLOC, LOAD, READONLY, CODE
  2 .rodata       00000220  0800f938  0800f938  0001f938  2**2
                  CONTENTS, ALLOC, LOAD, READONLY, DATA
  3 .ARM.extab    00000000  0800fb58  0800fb58  000361c4  2**0
                  CONTENTS
  4 .ARM          00000000  0800fb58  0800fb58  000361c4  2**0
                  CONTENTS
  5 .preinit_array 00000000  0800fb58  0800fb58  000361c4  2**0
                  CONTENTS, ALLOC, LOAD, DATA
  6 .init_array   00000004  0800fb58  0800fb58  0001fb58  2**2
                  CONTENTS, ALLOC, LOAD, DATA
  7 .fini_array   00000004  0800fb5c  0800fb5c  0001fb5c  2**2
                  CONTENTS, ALLOC, LOAD, DATA
  8 .data         0000023c  20000000  0800fb60  00020000  2**2
                  CONTENTS, ALLOC, LOAD, DATA
  9 .bss          00015264  2000023c  0800fd9c  0002023c  2**2
                  ALLOC
 10 ._user_heap_stack 00000600  200154a0  0800fd9c  000254a0  2**0
                  ALLOC
 11 .ram2         000061c4  10000000  10000000  00030000  2**2
                  CONTENTS, ALLOC, LOAD, DATA
 12 .ARM.attributes 00000030  00000000  00000000  000361c4  2**0
                  CONTENTS, READONLY
 13 .debug_info   00030e19  00000000  00000000  000361f4  2**0
                  CONTENTS, READONLY, DEBUGGING, OCTETS
 14 .debug_abbrev 000053a1  00000000  00000000  0006700d  2**0
                  CONTENTS, READONLY, DEBUGGING, OCTETS
 15 .debug_aranges 00001ea8  00000000  00000000  0006c3b0  2**3
                  CONTENTS, READONLY, DEBUGGING, OCTETS
 16 .debug_ranges 00001c80  00000000  00000000  0006e258  2**3
                  CONTENTS, READONLY, DEBUGGING, OCTETS
 17 .debug_macro  00033ff4  00000000  00000000  0006fed8  2**0
                  CONTENTS, READONLY, DEBUGGING, OCTETS
 18 .debug_line   000253b5  00000000  00000000  000a3ecc  2**0
                  CONTENTS, READONLY, DEBUGGING, OCTETS
 19 .debug_str    001336b2  00000000  00000000  000c9281  2**0
                  CONTENTS, READONLY, DEBUGGING, OCTETS
 20 .comment      00000053  00000000  00000000  001fc933  2**0
                  CONTENTS, READONLY
 21 .debug_frame  00008268  00000000  00000000  001fc988  2**2
                  CONTENTS, READONLY, DEBUGGING, OCTETS

Disassembly of section .text:

080001b0 <__do_global_dtors_aux>:
 80001b0:	b510      	push	{r4, lr}
 80001b2:	4c05      	ldr	r4, [pc, #20]	; (80001c8 <__do_global_dtors_aux+0x18>)
 80001b4:	7823      	ldrb	r3, [r4, #0]
 80001b6:	b933      	cbnz	r3, 80001c6 <__do_global_dtors_aux+0x16>
 80001b8:	4b04      	ldr	r3, [pc, #16]	; (80001cc <__do_global_dtors_aux+0x1c>)
 80001ba:	b113      	cbz	r3, 80001c2 <__do_global_dtors_aux+0x12>
 80001bc:	4804      	ldr	r0, [pc, #16]	; (80001d0 <__do_global_dtors_aux+0x20>)
 80001be:	f3af 8000 	nop.w
 80001c2:	2301      	movs	r3, #1
 80001c4:	7023      	strb	r3, [r4, #0]
 80001c6:	bd10      	pop	{r4, pc}
 80001c8:	2000023c 	.word	0x2000023c
 80001cc:	00000000 	.word	0x00000000
 80001d0:	0800f920 	.word	0x0800f920

080001d4 <frame_dummy>:
 80001d4:	b508      	push	{r3, lr}
 80001d6:	4b03      	ldr	r3, [pc, #12]	; (80001e4 <frame_dummy+0x10>)
 80001d8:	b11b      	cbz	r3, 80001e2 <frame_dummy+0xe>
 80001da:	4903      	ldr	r1, [pc, #12]	; (80001e8 <frame_dummy+0x14>)
 80001dc:	4803      	ldr	r0, [pc, #12]	; (80001ec <frame_dummy+0x18>)
 80001de:	f3af 8000 	nop.w
 80001e2:	bd08      	pop	{r3, pc}
 80001e4:	00000000 	.word	0x00000000
 80001e8:	20000240 	.word	0x20000240
 80001ec:	0800f920 	.word	0x0800f920

080001f0 <__aeabi_drsub>:
 80001f0:	f081 4100 	eor.w	r1, r1, #2147483648	; 0x80000000
 80001f4:	e002      	b.n	80001fc <__adddf3>
 80001f6:	bf00      	nop

080001f8 <__aeabi_dsub>:
 80001f8:	f083 4300 	eor.w	r3, r3, #2147483648	; 0x80000000

080001fc <__adddf3>:
 80001fc:	b530      	push	{r4, r5, lr}
 80001fe:	ea4f 0441 	mov.w	r4, r1, lsl #1
 8000202:	ea4f 0543 	mov.w	r5, r3, lsl #1
 8000206:	ea94 0f05 	teq	r4, r5
 800020a:	bf08      	it	eq
 800020c:	ea90 0f02 	teqeq	r0, r2
 8000210:	bf1f      	itttt	ne
 8000212:	ea54 0c00 	orrsne.w	ip, r4, r0
 8000216:	ea55 0c02 	orrsne.w	ip, r5, r2
 800021a:	ea7f 5c64 	mvnsne.w	ip, r4, asr #21
 800021e:	ea7f 5c65 	mvnsne.w	ip, r5, asr #21
 8000222:	f000 80e2 	beq.w	80003ea <__adddf3+0x1ee>
 8000226:	ea4f 5454 	mov.w	r4, r4, lsr #21
 800022a:	ebd4 5555 	rsbs	r5, r4, r5, lsr #21
 800022e:	bfb8      	it	lt
 8000230:	426d      	neglt	r5, r5
 8000232:	dd0c      	ble.n	800024e <__adddf3+0x52>
 8000234:	442c      	add	r4, r5
 8000236:	ea80 0202 	eor.w	r2, r0, r2
 800023a:	ea81 0303 	eor.w	r3, r1, r3
 800023e:	ea82 0000 	eor.w	r0, r2, r0
 8000242:	ea83 0101 	eor.w	r1, r3, r1
 8000246:	ea80 0202 	eor.w	r2, r0, r2
 800024a:	ea81 0303 	eor.w	r3, r1, r3
 800024e:	2d36      	cmp	r5, #54	; 0x36
 8000250:	bf88      	it	hi
 8000252:	bd30      	pophi	{r4, r5, pc}
 8000254:	f011 4f00 	tst.w	r1, #2147483648	; 0x80000000
 8000258:	ea4f 3101 	mov.w	r1, r1, lsl #12
 800025c:	f44f 1c80 	mov.w	ip, #1048576	; 0x100000
 8000260:	ea4c 3111 	orr.w	r1, ip, r1, lsr #12
 8000264:	d002      	beq.n	800026c <__adddf3+0x70>
 8000266:	4240      	negs	r0, r0
 8000268:	eb61 0141 	sbc.w	r1, r1, r1, lsl #1
 800026c:	f013 4f00 	tst.w	r3, #2147483648	; 0x80000000
 8000270:	ea4f 3303 	mov.w	r3, r3, lsl #12
 8000274:	ea4c 3313 	orr.w	r3, ip, r3, lsr #12
 8000278:	d002      	beq.n	8000280 <__adddf3+0x84>
 800027a:	4252      	negs	r2, r2
 800027c:	eb63 0343 	sbc.w	r3, r3, r3, lsl #1
 8000280:	ea94 0f05 	teq	r4, r5
 8000284:	f000 80a7 	beq.w	80003d6 <__adddf3+0x1da>
 8000288:	f1a4 0401 	sub.w	r4, r4, #1
 800028c:	f1d5 0e20 	rsbs	lr, r5, #32
 8000290:	db0d      	blt.n	80002ae <__adddf3+0xb2>
 8000292:	fa02 fc0e 	lsl.w	ip, r2, lr
 8000296:	fa22 f205 	lsr.w	r2, r2, r5
 800029a:	1880      	adds	r0, r0, r2
 800029c:	f141 0100 	adc.w	r1, r1, #0
 80002a0:	fa03 f20e 	lsl.w	r2, r3, lr
 80002a4:	1880      	adds	r0, r0, r2
 80002a6:	fa43 f305 	asr.w	r3, r3, r5
 80002aa:	4159      	adcs	r1, r3
 80002ac:	e00e      	b.n	80002cc <__adddf3+0xd0>
 80002ae:	f1a5 0520 	sub.w	r5, r5, #32
 80002b2:	f10e 0e20 	add.w	lr, lr, #32
 80002b6:	2a01      	cmp	r2, #1
 80002b8:	fa03 fc0e 	lsl.w	ip, r3, lr
 80002bc:	bf28      	it	cs
 80002be:	f04c 0c02 	orrcs.w	ip, ip, #2
 80002c2:	fa43 f305 	asr.w	r3, r3, r5
 80002c6:	18c0      	adds	r0, r0, r3
 80002c8:	eb51 71e3 	adcs.w	r1, r1, r3, asr #31
 80002cc:	f001 4500 	and.w	r5, r1, #2147483648	; 0x80000000
 80002d0:	d507      	bpl.n	80002e2 <__adddf3+0xe6>
 80002d2:	f04f 0e00 	mov.w	lr, #0
 80002d6:	f1dc 0c00 	rsbs	ip, ip, #0
 80002da:	eb7e 0000 	sbcs.w	r0, lr, r0
 80002de:	eb6e 0101 	sbc.w	r1, lr, r1
 80002e2:	f5b1 1f80 	cmp.w	r1, #1048576	; 0x100000
 80002e6:	d31b      	bcc.n	8000320 <__adddf3+0x124>
 80002e8:	f5b1 1f00 	cmp.w	r1, #2097152	; 0x200000
 80002ec:	d30c      	bcc.n	8000308 <__adddf3+0x10c>
 80002ee:	0849      	lsrs	r1, r1, #1
 80002f0:	ea5f 0030 	movs.w	r0, r0, rrx
 80002f4:	ea4f 0c3c 	mov.w	ip, ip, rrx
 80002f8:	f104 0401 	add.w	r4, r4, #1
 80002fc:	ea4f 5244 	mov.w	r2, r4, lsl #21
 8000300:	f512 0f80 	cmn.w	r2, #4194304	; 0x400000
 8000304:	f080 809a 	bcs.w	800043c <__adddf3+0x240>
 8000308:	f1bc 4f00 	cmp.w	ip, #2147483648	; 0x80000000
 800030c:	bf08      	it	eq
 800030e:	ea5f 0c50 	movseq.w	ip, r0, lsr #1
 8000312:	f150 0000 	adcs.w	r0, r0, #0
 8000316:	eb41 5104 	adc.w	r1, r1, r4, lsl #20
 800031a:	ea41 0105 	orr.w	r1, r1, r5
 800031e:	bd30      	pop	{r4, r5, pc}
 8000320:	ea5f 0c4c 	movs.w	ip, ip, lsl #1
 8000324:	4140      	adcs	r0, r0
 8000326:	eb41 0101 	adc.w	r1, r1, r1
 800032a:	3c01      	subs	r4, #1
 800032c:	bf28      	it	cs
 800032e:	f5b1 1f80 	cmpcs.w	r1, #1048576	; 0x100000
 8000332:	d2e9      	bcs.n	8000308 <__adddf3+0x10c>
 8000334:	f091 0f00 	teq	r1, #0
 8000338:	bf04      	itt	eq
 800033a:	4601      	moveq	r1, r0
 800033c:	2000      	moveq	r0, #0
 800033e:	fab1 f381 	clz	r3, r1
 8000342:	bf08      	it	eq
 8000344:	3320      	addeq	r3, #32
 8000346:	f1a3 030b 	sub.w	r3, r3, #11
 800034a:	f1b3 0220 	subs.w	r2, r3, #32
 800034e:	da0c      	bge.n	800036a <__adddf3+0x16e>
 8000350:	320c      	adds	r2, #12
 8000352:	dd08      	ble.n	8000366 <__adddf3+0x16a>
 8000354:	f102 0c14 	add.w	ip, r2, #20
 8000358:	f1c2 020c 	rsb	r2, r2, #12
 800035c:	fa01 f00c 	lsl.w	r0, r1, ip
 8000360:	fa21 f102 	lsr.w	r1, r1, r2
 8000364:	e00c      	b.n	8000380 <__adddf3+0x184>
 8000366:	f102 0214 	add.w	r2, r2, #20
 800036a:	bfd8      	it	le
 800036c:	f1c2 0c20 	rsble	ip, r2, #32
 8000370:	fa01 f102 	lsl.w	r1, r1, r2
 8000374:	fa20 fc0c 	lsr.w	ip, r0, ip
 8000378:	bfdc      	itt	le
 800037a:	ea41 010c 	orrle.w	r1, r1, ip
 800037e:	4090      	lslle	r0, r2
 8000380:	1ae4      	subs	r4, r4, r3
 8000382:	bfa2      	ittt	ge
 8000384:	eb01 5104 	addge.w	r1, r1, r4, lsl #20
 8000388:	4329      	orrge	r1, r5
 800038a:	bd30      	popge	{r4, r5, pc}
 800038c:	ea6f 0404 	mvn.w	r4, r4
 8000390:	3c1f      	subs	r4, #31
 8000392:	da1c      	bge.n	80003ce <__adddf3+0x1d2>
 8000394:	340c      	adds	r4, #12
 8000396:	dc0e      	bgt.n	80003b6 <__adddf3+0x1ba>
 8000398:	f104 0414 	add.w	r4, r4, #20
 800039c:	f1c4 0220 	rsb	r2, r4, #32
 80003a0:	fa20 f004 	lsr.w	r0, r0, r4
 80003a4:	fa01 f302 	lsl.w	r3, r1, r2
 80003a8:	ea40 0003 	orr.w	r0, r0, r3
 80003ac:	fa21 f304 	lsr.w	r3, r1, r4
 80003b0:	ea45 0103 	orr.w	r1, r5, r3
 80003b4:	bd30      	pop	{r4, r5, pc}
 80003b6:	f1c4 040c 	rsb	r4, r4, #12
 80003ba:	f1c4 0220 	rsb	r2, r4, #32
 80003be:	fa20 f002 	lsr.w	r0, r0, r2
 80003c2:	fa01 f304 	lsl.w	r3, r1, r4
 80003c6:	ea40 0003 	orr.w	r0, r0, r3
 80003ca:	4629      	mov	r1, r5
 80003cc:	bd30      	pop	{r4, r5, pc}
 80003ce:	fa21 f004 	lsr.w	r0, r1, r4
 80003d2:	4629      	mov	r1, r5
 80003d4:	bd30      	pop	{r4, r5, pc}
 80003d6:	f094 0f00 	teq	r4, #0
 80003da:	f483 1380 	eor.w	r3, r3, #1048576	; 0x100000
 80003de:	bf06      	itte	eq
 80003e0:	f481 1180 	eoreq.w	r1, r1, #1048576	; 0x100000
 80003e4:	3401      	addeq	r4, #1
 80003e6:	3d01      	subne	r5, #1
 80003e8:	e74e      	b.n	8000288 <__adddf3+0x8c>
 80003ea:	ea7f 5c64 	mvns.w	ip, r4, asr #21
 80003ee:	bf18      	it	ne
 80003f0:	ea7f 5c65 	mvnsne.w	ip, r5, asr #21
 80003f4:	d029      	beq.n	800044a <__adddf3+0x24e>
 80003f6:	ea94 0f05 	teq	r4, r5
 80003fa:	bf08      	it	eq
 80003fc:	ea90 0f02 	teqeq	r0, r2
 8000400:	d005      	beq.n	800040e <__adddf3+0x212>
 8000402:	ea54 0c00 	orrs.w	ip, r4, r0
 8000406:	bf04      	itt	eq
 8000408:	4619      	moveq	r1, r3
 800040a:	4610      	moveq	r0, r2
 800040c:	bd30      	pop	{r4, r5, pc}
 800040e:	ea91 0f03 	teq	r1, r3
 8000412:	bf1e      	ittt	ne
 8000414:	2100      	movne	r1, #0
 8000416:	2000      	movne	r0, #0
 8000418:	bd30      	popne	{r4, r5, pc}
 800041a:	ea5f 5c54 	movs.w	ip, r4, lsr #21
 800041e:	d105      	bne.n	800042c <__adddf3+0x230>
 8000420:	0040      	lsls	r0, r0, #1
 8000422:	4149      	adcs	r1, r1
 8000424:	bf28      	it	cs
 8000426:	f041 4100 	orrcs.w	r1, r1, #2147483648	; 0x80000000
 800042a:	bd30      	pop	{r4, r5, pc}
 800042c:	f514 0480 	adds.w	r4, r4, #4194304	; 0x400000
 8000430:	bf3c      	itt	cc
 8000432:	f501 1180 	addcc.w	r1, r1, #1048576	; 0x100000
 8000436:	bd30      	popcc	{r4, r5, pc}
 8000438:	f001 4500 	and.w	r5, r1, #2147483648	; 0x80000000
 800043c:	f045 41fe 	orr.w	r1, r5, #2130706432	; 0x7f000000
 8000440:	f441 0170 	orr.w	r1, r1, #15728640	; 0xf00000
 8000444:	f04f 0000 	mov.w	r0, #0
 8000448:	bd30      	pop	{r4, r5, pc}
 800044a:	ea7f 5c64 	mvns.w	ip, r4, asr #21
 800044e:	bf1a      	itte	ne
 8000450:	4619      	movne	r1, r3
 8000452:	4610      	movne	r0, r2
 8000454:	ea7f 5c65 	mvnseq.w	ip, r5, asr #21
 8000458:	bf1c      	itt	ne
 800045a:	460b      	movne	r3, r1
 800045c:	4602      	movne	r2, r0
 800045e:	ea50 3401 	orrs.w	r4, r0, r1, lsl #12
 8000462:	bf06      	itte	eq
 8000464:	ea52 3503 	orrseq.w	r5, r2, r3, lsl #12
 8000468:	ea91 0f03 	teqeq	r1, r3
 800046c:	f441 2100 	orrne.w	r1, r1, #524288	; 0x80000
 8000470:	bd30      	pop	{r4, r5, pc}
 8000472:	bf00      	nop

08000474 <__aeabi_ui2d>:
 8000474:	f090 0f00 	teq	r0, #0
 8000478:	bf04      	itt	eq
 800047a:	2100      	moveq	r1, #0
 800047c:	4770      	bxeq	lr
 800047e:	b530      	push	{r4, r5, lr}
 8000480:	f44f 6480 	mov.w	r4, #1024	; 0x400
 8000484:	f104 0432 	add.w	r4, r4, #50	; 0x32
 8000488:	f04f 0500 	mov.w	r5, #0
 800048c:	f04f 0100 	mov.w	r1, #0
 8000490:	e750      	b.n	8000334 <__adddf3+0x138>
 8000492:	bf00      	nop

08000494 <__aeabi_i2d>:
 8000494:	f090 0f00 	teq	r0, #0
 8000498:	bf04      	itt	eq
 800049a:	2100      	moveq	r1, #0
 800049c:	4770      	bxeq	lr
 800049e:	b530      	push	{r4, r5, lr}
 80004a0:	f44f 6480 	mov.w	r4, #1024	; 0x400
 80004a4:	f104 0432 	add.w	r4, r4, #50	; 0x32
 80004a8:	f010 4500 	ands.w	r5, r0, #2147483648	; 0x80000000
 80004ac:	bf48      	it	mi
 80004ae:	4240      	negmi	r0, r0
 80004b0:	f04f 0100 	mov.w	r1, #0
 80004b4:	e73e      	b.n	8000334 <__adddf3+0x138>
 80004b6:	bf00      	nop

080004b8 <__aeabi_f2d>:
 80004b8:	0042      	lsls	r2, r0, #1
 80004ba:	ea4f 01e2 	mov.w	r1, r2, asr #3
 80004be:	ea4f 0131 	mov.w	r1, r1, rrx
 80004c2:	ea4f 7002 	mov.w	r0, r2, lsl #28
 80004c6:	bf1f      	itttt	ne
 80004c8:	f012 437f 	andsne.w	r3, r2, #4278190080	; 0xff000000
 80004cc:	f093 4f7f 	teqne	r3, #4278190080	; 0xff000000
 80004d0:	f081 5160 	eorne.w	r1, r1, #939524096	; 0x38000000
 80004d4:	4770      	bxne	lr
 80004d6:	f032 427f 	bics.w	r2, r2, #4278190080	; 0xff000000
 80004da:	bf08      	it	eq
 80004dc:	4770      	bxeq	lr
 80004de:	f093 4f7f 	teq	r3, #4278190080	; 0xff000000
 80004e2:	bf04      	itt	eq
 80004e4:	f441 2100 	orreq.w	r1, r1, #524288	; 0x80000
 80004e8:	4770      	bxeq	lr
 80004ea:	b530      	push	{r4, r5, lr}
 80004ec:	f44f 7460 	mov.w	r4, #896	; 0x380
 80004f0:	f001 4500 	and.w	r5, r1, #2147483648	; 0x80000000
 80004f4:	f021 4100 	bic.w	r1, r1, #2147483648	; 0x80000000
 80004f8:	e71c      	b.n	8000334 <__adddf3+0x138>
 80004fa:	bf00      	nop

080004fc <__aeabi_ul2d>:
 80004fc:	ea50 0201 	orrs.w	r2, r0, r1
 8000500:	bf08      	it	eq
 8000502:	4770      	bxeq	lr
 8000504:	b530      	push	{r4, r5, lr}
 8000506:	f04f 0500 	mov.w	r5, #0
 800050a:	e00a      	b.n	8000522 <__aeabi_l2d+0x16>

0800050c <__aeabi_l2d>:
 800050c:	ea50 0201 	orrs.w	r2, r0, r1
 8000510:	bf08      	it	eq
 8000512:	4770      	bxeq	lr
 8000514:	b530      	push	{r4, r5, lr}
 8000516:	f011 4500 	ands.w	r5, r1, #2147483648	; 0x80000000
 800051a:	d502      	bpl.n	8000522 <__aeabi_l2d+0x16>
 800051c:	4240      	negs	r0, r0
 800051e:	eb61 0141 	sbc.w	r1, r1, r1, lsl #1
 8000522:	f44f 6480 	mov.w	r4, #1024	; 0x400
 8000526:	f104 0432 	add.w	r4, r4, #50	; 0x32
 800052a:	ea5f 5c91 	movs.w	ip, r1, lsr #22
 800052e:	f43f aed8 	beq.w	80002e2 <__adddf3+0xe6>
 8000532:	f04f 0203 	mov.w	r2, #3
 8000536:	ea5f 0cdc 	movs.w	ip, ip, lsr #3
 800053a:	bf18      	it	ne
 800053c:	3203      	addne	r2, #3
 800053e:	ea5f 0cdc 	movs.w	ip, ip, lsr #3
 8000542:	bf18      	it	ne
 8000544:	3203      	addne	r2, #3
 8000546:	eb02 02dc 	add.w	r2, r2, ip, lsr #3
 800054a:	f1c2 0320 	rsb	r3, r2, #32
 800054e:	fa00 fc03 	lsl.w	ip, r0, r3
 8000552:	fa20 f002 	lsr.w	r0, r0, r2
 8000556:	fa01 fe03 	lsl.w	lr, r1, r3
 800055a:	ea40 000e 	orr.w	r0, r0, lr
 800055e:	fa21 f102 	lsr.w	r1, r1, r2
 8000562:	4414      	add	r4, r2
 8000564:	e6bd      	b.n	80002e2 <__adddf3+0xe6>
 8000566:	bf00      	nop

08000568 <__aeabi_dmul>:
 8000568:	b570      	push	{r4, r5, r6, lr}
 800056a:	f04f 0cff 	mov.w	ip, #255	; 0xff
 800056e:	f44c 6ce0 	orr.w	ip, ip, #1792	; 0x700
 8000572:	ea1c 5411 	ands.w	r4, ip, r1, lsr #20
 8000576:	bf1d      	ittte	ne
 8000578:	ea1c 5513 	andsne.w	r5, ip, r3, lsr #20
 800057c:	ea94 0f0c 	teqne	r4, ip
 8000580:	ea95 0f0c 	teqne	r5, ip
 8000584:	f000 f8de 	bleq	8000744 <__aeabi_dmul+0x1dc>
 8000588:	442c      	add	r4, r5
 800058a:	ea81 0603 	eor.w	r6, r1, r3
 800058e:	ea21 514c 	bic.w	r1, r1, ip, lsl #21
 8000592:	ea23 534c 	bic.w	r3, r3, ip, lsl #21
 8000596:	ea50 3501 	orrs.w	r5, r0, r1, lsl #12
 800059a:	bf18      	it	ne
 800059c:	ea52 3503 	orrsne.w	r5, r2, r3, lsl #12
 80005a0:	f441 1180 	orr.w	r1, r1, #1048576	; 0x100000
 80005a4:	f443 1380 	orr.w	r3, r3, #1048576	; 0x100000
 80005a8:	d038      	beq.n	800061c <__aeabi_dmul+0xb4>
 80005aa:	fba0 ce02 	umull	ip, lr, r0, r2
 80005ae:	f04f 0500 	mov.w	r5, #0
 80005b2:	fbe1 e502 	umlal	lr, r5, r1, r2
 80005b6:	f006 4200 	and.w	r2, r6, #2147483648	; 0x80000000
 80005ba:	fbe0 e503 	umlal	lr, r5, r0, r3
 80005be:	f04f 0600 	mov.w	r6, #0
 80005c2:	fbe1 5603 	umlal	r5, r6, r1, r3
 80005c6:	f09c 0f00 	teq	ip, #0
 80005ca:	bf18      	it	ne
 80005cc:	f04e 0e01 	orrne.w	lr, lr, #1
 80005d0:	f1a4 04ff 	sub.w	r4, r4, #255	; 0xff
 80005d4:	f5b6 7f00 	cmp.w	r6, #512	; 0x200
 80005d8:	f564 7440 	sbc.w	r4, r4, #768	; 0x300
 80005dc:	d204      	bcs.n	80005e8 <__aeabi_dmul+0x80>
 80005de:	ea5f 0e4e 	movs.w	lr, lr, lsl #1
 80005e2:	416d      	adcs	r5, r5
 80005e4:	eb46 0606 	adc.w	r6, r6, r6
 80005e8:	ea42 21c6 	orr.w	r1, r2, r6, lsl #11
 80005ec:	ea41 5155 	orr.w	r1, r1, r5, lsr #21
 80005f0:	ea4f 20c5 	mov.w	r0, r5, lsl #11
 80005f4:	ea40 505e 	orr.w	r0, r0, lr, lsr #21
 80005f8:	ea4f 2ece 	mov.w	lr, lr, lsl #11
 80005fc:	f1b4 0cfd 	subs.w	ip, r4, #253	; 0xfd
 8000600:	bf88      	it	hi
 8000602:	f5bc 6fe0 	cmphi.w	ip, #1792	; 0x700
 8000606:	d81e      	bhi.n	8000646 <__aeabi_dmul+0xde>
 8000608:	f1be 4f00 	cmp.w	lr, #2147483648	; 0x80000000
 800060c:	bf08      	it	eq
 800060e:	ea5f 0e50 	movseq.w	lr, r0, lsr #1
 8000612:	f150 0000 	adcs.w	r0, r0, #0
 8000616:	eb41 5104 	adc.w	r1, r1, r4, lsl #20
 800061a:	bd70      	pop	{r4, r5, r6, pc}
 800061c:	f006 4600 	and.w	r6, r6, #2147483648	; 0x80000000
 8000620:	ea46 0101 	orr.w	r1, r6, r1
 8000624:	ea40 0002 	orr.w	r0, r0, r2
 8000628:	ea81 0103 	eor.w	r1, r1, r3
 800062c:	ebb4 045c 	subs.w	r4, r4, ip, lsr #1
 8000630:	bfc2      	ittt	gt
 8000632:	ebd4 050c 	rsbsgt	r5, r4, ip
 8000636:	ea41 5104 	orrgt.w	r1, r1, r4, lsl #20
 800063a:	bd70      	popgt	{r4, r5, r6, pc}
 800063c:	f441 1180 	orr.w	r1, r1, #1048576	; 0x100000
 8000640:	f04f 0e00 	mov.w	lr, #0
 8000644:	3c01      	subs	r4, #1
 8000646:	f300 80ab 	bgt.w	80007a0 <__aeabi_dmul+0x238>
 800064a:	f114 0f36 	cmn.w	r4, #54	; 0x36
 800064e:	bfde      	ittt	le
 8000650:	2000      	movle	r0, #0
 8000652:	f001 4100 	andle.w	r1, r1, #2147483648	; 0x80000000
 8000656:	bd70      	pople	{r4, r5, r6, pc}
 8000658:	f1c4 0400 	rsb	r4, r4, #0
 800065c:	3c20      	subs	r4, #32
 800065e:	da35      	bge.n	80006cc <__aeabi_dmul+0x164>
 8000660:	340c      	adds	r4, #12
 8000662:	dc1b      	bgt.n	800069c <__aeabi_dmul+0x134>
 8000664:	f104 0414 	add.w	r4, r4, #20
 8000668:	f1c4 0520 	rsb	r5, r4, #32
 800066c:	fa00 f305 	lsl.w	r3, r0, r5
 8000670:	fa20 f004 	lsr.w	r0, r0, r4
 8000674:	fa01 f205 	lsl.w	r2, r1, r5
 8000678:	ea40 0002 	orr.w	r0, r0, r2
 800067c:	f001 4200 	and.w	r2, r1, #2147483648	; 0x80000000
 8000680:	f021 4100 	bic.w	r1, r1, #2147483648	; 0x80000000
 8000684:	eb10 70d3 	adds.w	r0, r0, r3, lsr #31
 8000688:	fa21 f604 	lsr.w	r6, r1, r4
 800068c:	eb42 0106 	adc.w	r1, r2, r6
 8000690:	ea5e 0e43 	orrs.w	lr, lr, r3, lsl #1
 8000694:	bf08      	it	eq
 8000696:	ea20 70d3 	biceq.w	r0, r0, r3, lsr #31
 800069a:	bd70      	pop	{r4, r5, r6, pc}
 800069c:	f1c4 040c 	rsb	r4, r4, #12
 80006a0:	f1c4 0520 	rsb	r5, r4, #32
 80006a4:	fa00 f304 	lsl.w	r3, r0, r4
 80006a8:	fa20 f005 	lsr.w	r0, r0, r5
 80006ac:	fa01 f204 	lsl.w	r2, r1, r4
 80006b0:	ea40 0002 	orr.w	r0, r0, r2
 80006b4:	f001 4100 	and.w	r1, r1, #2147483648	; 0x80000000
 80006b8:	eb10 70d3 	adds.w	r0, r0, r3, lsr #31
 80006bc:	f141 0100 	adc.w	r1, r1, #0
 80006c0:	ea5e 0e43 	orrs.w	lr, lr, r3, lsl #1
 80006c4:	bf08      	it	eq
 80006c6:	ea20 70d3 	biceq.w	r0, r0, r3, lsr #31
 80006ca:	bd70      	pop	{r4, r5, r6, pc}
 80006cc:	f1c4 0520 	rsb	r5, r4, #32
 80006d0:	fa00 f205 	lsl.w	r2, r0, r5
 80006d4:	ea4e 0e02 	orr.w	lr, lr, r2
 80006d8:	fa20 f304 	lsr.w	r3, r0, r4
 80006dc:	fa01 f205 	lsl.w	r2, r1, r5
 80006e0:	ea43 0302 	orr.w	r3, r3, r2
 80006e4:	fa21 f004 	lsr.w	r0, r1, r4
 80006e8:	f001 4100 	and.w	r1, r1, #2147483648	; 0x80000000
 80006ec:	fa21 f204 	lsr.w	r2, r1, r4
 80006f0:	ea20 0002 	bic.w	r0, r0, r2
 80006f4:	eb00 70d3 	add.w	r0, r0, r3, lsr #31
 80006f8:	ea5e 0e43 	orrs.w	lr, lr, r3, lsl #1
 80006fc:	bf08      	it	eq
 80006fe:	ea20 70d3 	biceq.w	r0, r0, r3, lsr #31
 8000702:	bd70      	pop	{r4, r5, r6, pc}
 8000704:	f094 0f00 	teq	r4, #0
 8000708:	d10f      	bne.n	800072a <__aeabi_dmul+0x1c2>
 800070a:	f001 4600 	and.w	r6, r1, #2147483648	; 0x80000000
 800070e:	0040      	lsls	r0, r0, #1
 8000710:	eb41 0101 	adc.w	r1, r1, r1
 8000714:	f411 1f80 	tst.w	r1, #1048576	; 0x100000
 8000718:	bf08      	it	eq
 800071a:	3c01      	subeq	r4, #1
 800071c:	d0f7      	beq.n	800070e <__aeabi_dmul+0x1a6>
 800071e:	ea41 0106 	orr.w	r1, r1, r6
 8000722:	f095 0f00 	teq	r5, #0
 8000726:	bf18      	it	ne
 8000728:	4770      	bxne	lr
 800072a:	f003 4600 	and.w	r6, r3, #2147483648	; 0x80000000
 800072e:	0052      	lsls	r2, r2, #1
 8000730:	eb43 0303 	adc.w	r3, r3, r3
 8000734:	f413 1f80 	tst.w	r3, #1048576	; 0x100000
 8000738:	bf08      	it	eq
 800073a:	3d01      	subeq	r5, #1
 800073c:	d0f7      	beq.n	800072e <__aeabi_dmul+0x1c6>
 800073e:	ea43 0306 	orr.w	r3, r3, r6
 8000742:	4770      	bx	lr
 8000744:	ea94 0f0c 	teq	r4, ip
 8000748:	ea0c 5513 	and.w	r5, ip, r3, lsr #20
 800074c:	bf18      	it	ne
 800074e:	ea95 0f0c 	teqne	r5, ip
 8000752:	d00c      	beq.n	800076e <__aeabi_dmul+0x206>
 8000754:	ea50 0641 	orrs.w	r6, r0, r1, lsl #1
 8000758:	bf18      	it	ne
 800075a:	ea52 0643 	orrsne.w	r6, r2, r3, lsl #1
 800075e:	d1d1      	bne.n	8000704 <__aeabi_dmul+0x19c>
 8000760:	ea81 0103 	eor.w	r1, r1, r3
 8000764:	f001 4100 	and.w	r1, r1, #2147483648	; 0x80000000
 8000768:	f04f 0000 	mov.w	r0, #0
 800076c:	bd70      	pop	{r4, r5, r6, pc}
 800076e:	ea50 0641 	orrs.w	r6, r0, r1, lsl #1
 8000772:	bf06      	itte	eq
 8000774:	4610      	moveq	r0, r2
 8000776:	4619      	moveq	r1, r3
 8000778:	ea52 0643 	orrsne.w	r6, r2, r3, lsl #1
 800077c:	d019      	beq.n	80007b2 <__aeabi_dmul+0x24a>
 800077e:	ea94 0f0c 	teq	r4, ip
 8000782:	d102      	bne.n	800078a <__aeabi_dmul+0x222>
 8000784:	ea50 3601 	orrs.w	r6, r0, r1, lsl #12
 8000788:	d113      	bne.n	80007b2 <__aeabi_dmul+0x24a>
 800078a:	ea95 0f0c 	teq	r5, ip
 800078e:	d105      	bne.n	800079c <__aeabi_dmul+0x234>
 8000790:	ea52 3603 	orrs.w	r6, r2, r3, lsl #12
 8000794:	bf1c      	itt	ne
 8000796:	4610      	movne	r0, r2
 8000798:	4619      	movne	r1, r3
 800079a:	d10a      	bne.n	80007b2 <__aeabi_dmul+0x24a>
 800079c:	ea81 0103 	eor.w	r1, r1, r3
 80007a0:	f001 4100 	and.w	r1, r1, #2147483648	; 0x80000000
 80007a4:	f041 41fe 	orr.w	r1, r1, #2130706432	; 0x7f000000
 80007a8:	f441 0170 	orr.w	r1, r1, #15728640	; 0xf00000
 80007ac:	f04f 0000 	mov.w	r0, #0
 80007b0:	bd70      	pop	{r4, r5, r6, pc}
 80007b2:	f041 41fe 	orr.w	r1, r1, #2130706432	; 0x7f000000
 80007b6:	f441 0178 	orr.w	r1, r1, #16252928	; 0xf80000
 80007ba:	bd70      	pop	{r4, r5, r6, pc}

080007bc <__aeabi_ddiv>:
 80007bc:	b570      	push	{r4, r5, r6, lr}
 80007be:	f04f 0cff 	mov.w	ip, #255	; 0xff
 80007c2:	f44c 6ce0 	orr.w	ip, ip, #1792	; 0x700
 80007c6:	ea1c 5411 	ands.w	r4, ip, r1, lsr #20
 80007ca:	bf1d      	ittte	ne
 80007cc:	ea1c 5513 	andsne.w	r5, ip, r3, lsr #20
 80007d0:	ea94 0f0c 	teqne	r4, ip
 80007d4:	ea95 0f0c 	teqne	r5, ip
 80007d8:	f000 f8a7 	bleq	800092a <__aeabi_ddiv+0x16e>
 80007dc:	eba4 0405 	sub.w	r4, r4, r5
 80007e0:	ea81 0e03 	eor.w	lr, r1, r3
 80007e4:	ea52 3503 	orrs.w	r5, r2, r3, lsl #12
 80007e8:	ea4f 3101 	mov.w	r1, r1, lsl #12
 80007ec:	f000 8088 	beq.w	8000900 <__aeabi_ddiv+0x144>
 80007f0:	ea4f 3303 	mov.w	r3, r3, lsl #12
 80007f4:	f04f 5580 	mov.w	r5, #268435456	; 0x10000000
 80007f8:	ea45 1313 	orr.w	r3, r5, r3, lsr #4
 80007fc:	ea43 6312 	orr.w	r3, r3, r2, lsr #24
 8000800:	ea4f 2202 	mov.w	r2, r2, lsl #8
 8000804:	ea45 1511 	orr.w	r5, r5, r1, lsr #4
 8000808:	ea45 6510 	orr.w	r5, r5, r0, lsr #24
 800080c:	ea4f 2600 	mov.w	r6, r0, lsl #8
 8000810:	f00e 4100 	and.w	r1, lr, #2147483648	; 0x80000000
 8000814:	429d      	cmp	r5, r3
 8000816:	bf08      	it	eq
 8000818:	4296      	cmpeq	r6, r2
 800081a:	f144 04fd 	adc.w	r4, r4, #253	; 0xfd
 800081e:	f504 7440 	add.w	r4, r4, #768	; 0x300
 8000822:	d202      	bcs.n	800082a <__aeabi_ddiv+0x6e>
 8000824:	085b      	lsrs	r3, r3, #1
 8000826:	ea4f 0232 	mov.w	r2, r2, rrx
 800082a:	1ab6      	subs	r6, r6, r2
 800082c:	eb65 0503 	sbc.w	r5, r5, r3
 8000830:	085b      	lsrs	r3, r3, #1
 8000832:	ea4f 0232 	mov.w	r2, r2, rrx
 8000836:	f44f 1080 	mov.w	r0, #1048576	; 0x100000
 800083a:	f44f 2c00 	mov.w	ip, #524288	; 0x80000
 800083e:	ebb6 0e02 	subs.w	lr, r6, r2
 8000842:	eb75 0e03 	sbcs.w	lr, r5, r3
 8000846:	bf22      	ittt	cs
 8000848:	1ab6      	subcs	r6, r6, r2
 800084a:	4675      	movcs	r5, lr
 800084c:	ea40 000c 	orrcs.w	r0, r0, ip
 8000850:	085b      	lsrs	r3, r3, #1
 8000852:	ea4f 0232 	mov.w	r2, r2, rrx
 8000856:	ebb6 0e02 	subs.w	lr, r6, r2
 800085a:	eb75 0e03 	sbcs.w	lr, r5, r3
 800085e:	bf22      	ittt	cs
 8000860:	1ab6      	subcs	r6, r6, r2
 8000862:	4675      	movcs	r5, lr
 8000864:	ea40 005c 	orrcs.w	r0, r0, ip, lsr #1
 8000868:	085b      	lsrs	r3, r3, #1
 800086a:	ea4f 0232 	mov.w	r2, r2, rrx
 800086e:	ebb6 0e02 	subs.w	lr, r6, r2
 8000872:	eb75 0e03 	sbcs.w	lr, r5, r3
 8000876:	bf22      	ittt	cs
 8000878:	1ab6      	subcs	r6, r6, r2
 800087a:	4675      	movcs	r5, lr
 800087c:	ea40 009c 	orrcs.w	r0, r0, ip, lsr #2
 8000880:	085b      	lsrs	r3, r3, #1
 8000882:	ea4f 0232 	mov.w	r2, r2, rrx
 8000886:	ebb6 0e02 	subs.w	lr, r6, r2
 800088a:	eb75 0e03 	sbcs.w	lr, r5, r3
 800088e:	bf22      	ittt	cs
 8000890:	1ab6      	subcs	r6, r6, r2
 8000892:	4675      	movcs	r5, lr
 8000894:	ea40 00dc 	orrcs.w	r0, r0, ip, lsr #3
 8000898:	ea55 0e06 	orrs.w	lr, r5, r6
 800089c:	d018      	beq.n	80008d0 <__aeabi_ddiv+0x114>
 800089e:	ea4f 1505 	mov.w	r5, r5, lsl #4
 80008a2:	ea45 7516 	orr.w	r5, r5, r6, lsr #28
 80008a6:	ea4f 1606 	mov.w	r6, r6, lsl #4
 80008aa:	ea4f 03c3 	mov.w	r3, r3, lsl #3
 80008ae:	ea43 7352 	orr.w	r3, r3, r2, lsr #29
 80008b2:	ea4f 02c2 	mov.w	r2, r2, lsl #3
 80008b6:	ea5f 1c1c 	movs.w	ip, ip, lsr #4
 80008ba:	d1c0      	bne.n	800083e <__aeabi_ddiv+0x82>
 80008bc:	f411 1f80 	tst.w	r1, #1048576	; 0x100000
 80008c0:	d10b      	bne.n	80008da <__aeabi_ddiv+0x11e>
 80008c2:	ea41 0100 	orr.w	r1, r1, r0
 80008c6:	f04f 0000 	mov.w	r0, #0
 80008ca:	f04f 4c00 	mov.w	ip, #2147483648	; 0x80000000
 80008ce:	e7b6      	b.n	800083e <__aeabi_ddiv+0x82>
 80008d0:	f411 1f80 	tst.w	r1, #1048576	; 0x100000
 80008d4:	bf04      	itt	eq
 80008d6:	4301      	orreq	r1, r0
 80008d8:	2000      	moveq	r0, #0
 80008da:	f1b4 0cfd 	subs.w	ip, r4, #253	; 0xfd
 80008de:	bf88      	it	hi
 80008e0:	f5bc 6fe0 	cmphi.w	ip, #1792	; 0x700
 80008e4:	f63f aeaf 	bhi.w	8000646 <__aeabi_dmul+0xde>
 80008e8:	ebb5 0c03 	subs.w	ip, r5, r3
 80008ec:	bf04      	itt	eq
 80008ee:	ebb6 0c02 	subseq.w	ip, r6, r2
 80008f2:	ea5f 0c50 	movseq.w	ip, r0, lsr #1
 80008f6:	f150 0000 	adcs.w	r0, r0, #0
 80008fa:	eb41 5104 	adc.w	r1, r1, r4, lsl #20
 80008fe:	bd70      	pop	{r4, r5, r6, pc}
 8000900:	f00e 4e00 	and.w	lr, lr, #2147483648	; 0x80000000
 8000904:	ea4e 3111 	orr.w	r1, lr, r1, lsr #12
 8000908:	eb14 045c 	adds.w	r4, r4, ip, lsr #1
 800090c:	bfc2      	ittt	gt
 800090e:	ebd4 050c 	rsbsgt	r5, r4, ip
 8000912:	ea41 5104 	orrgt.w	r1, r1, r4, lsl #20
 8000916:	bd70      	popgt	{r4, r5, r6, pc}
 8000918:	f441 1180 	orr.w	r1, r1, #1048576	; 0x100000
 800091c:	f04f 0e00 	mov.w	lr, #0
 8000920:	3c01      	subs	r4, #1
 8000922:	e690      	b.n	8000646 <__aeabi_dmul+0xde>
 8000924:	ea45 0e06 	orr.w	lr, r5, r6
 8000928:	e68d      	b.n	8000646 <__aeabi_dmul+0xde>
 800092a:	ea0c 5513 	and.w	r5, ip, r3, lsr #20
 800092e:	ea94 0f0c 	teq	r4, ip
 8000932:	bf08      	it	eq
 8000934:	ea95 0f0c 	teqeq	r5, ip
 8000938:	f43f af3b 	beq.w	80007b2 <__aeabi_dmul+0x24a>
 800093c:	ea94 0f0c 	teq	r4, ip
 8000940:	d10a      	bne.n	8000958 <__aeabi_ddiv+0x19c>
 8000942:	ea50 3401 	orrs.w	r4, r0, r1, lsl #12
 8000946:	f47f af34 	bne.w	80007b2 <__aeabi_dmul+0x24a>
 800094a:	ea95 0f0c 	teq	r5, ip
 800094e:	f47f af25 	bne.w	800079c <__aeabi_dmul+0x234>
 8000952:	4610      	mov	r0, r2
 8000954:	4619      	mov	r1, r3
 8000956:	e72c      	b.n	80007b2 <__aeabi_dmul+0x24a>
 8000958:	ea95 0f0c 	teq	r5, ip
 800095c:	d106      	bne.n	800096c <__aeabi_ddiv+0x1b0>
 800095e:	ea52 3503 	orrs.w	r5, r2, r3, lsl #12
 8000962:	f43f aefd 	beq.w	8000760 <__aeabi_dmul+0x1f8>
 8000966:	4610      	mov	r0, r2
 8000968:	4619      	mov	r1, r3
 800096a:	e722      	b.n	80007b2 <__aeabi_dmul+0x24a>
 800096c:	ea50 0641 	orrs.w	r6, r0, r1, lsl #1
 8000970:	bf18      	it	ne
 8000972:	ea52 0643 	orrsne.w	r6, r2, r3, lsl #1
 8000976:	f47f aec5 	bne.w	8000704 <__aeabi_dmul+0x19c>
 800097a:	ea50 0441 	orrs.w	r4, r0, r1, lsl #1
 800097e:	f47f af0d 	bne.w	800079c <__aeabi_dmul+0x234>
 8000982:	ea52 0543 	orrs.w	r5, r2, r3, lsl #1
 8000986:	f47f aeeb 	bne.w	8000760 <__aeabi_dmul+0x1f8>
 800098a:	e712      	b.n	80007b2 <__aeabi_dmul+0x24a>

0800098c <__aeabi_d2f>:
 800098c:	ea4f 0241 	mov.w	r2, r1, lsl #1
 8000990:	f1b2 43e0 	subs.w	r3, r2, #1879048192	; 0x70000000
 8000994:	bf24      	itt	cs
 8000996:	f5b3 1c00 	subscs.w	ip, r3, #2097152	; 0x200000
 800099a:	f1dc 5cfe 	rsbscs	ip, ip, #532676608	; 0x1fc00000
 800099e:	d90d      	bls.n	80009bc <__aeabi_d2f+0x30>
 80009a0:	f001 4c00 	and.w	ip, r1, #2147483648	; 0x80000000
 80009a4:	ea4f 02c0 	mov.w	r2, r0, lsl #3
 80009a8:	ea4c 7050 	orr.w	r0, ip, r0, lsr #29
 80009ac:	f1b2 4f00 	cmp.w	r2, #2147483648	; 0x80000000
 80009b0:	eb40 0083 	adc.w	r0, r0, r3, lsl #2
 80009b4:	bf08      	it	eq
 80009b6:	f020 0001 	biceq.w	r0, r0, #1
 80009ba:	4770      	bx	lr
 80009bc:	f011 4f80 	tst.w	r1, #1073741824	; 0x40000000
 80009c0:	d121      	bne.n	8000a06 <__aeabi_d2f+0x7a>
 80009c2:	f113 7238 	adds.w	r2, r3, #48234496	; 0x2e00000
 80009c6:	bfbc      	itt	lt
 80009c8:	f001 4000 	andlt.w	r0, r1, #2147483648	; 0x80000000
 80009cc:	4770      	bxlt	lr
 80009ce:	f441 1180 	orr.w	r1, r1, #1048576	; 0x100000
 80009d2:	ea4f 5252 	mov.w	r2, r2, lsr #21
 80009d6:	f1c2 0218 	rsb	r2, r2, #24
 80009da:	f1c2 0c20 	rsb	ip, r2, #32
 80009de:	fa10 f30c 	lsls.w	r3, r0, ip
 80009e2:	fa20 f002 	lsr.w	r0, r0, r2
 80009e6:	bf18      	it	ne
 80009e8:	f040 0001 	orrne.w	r0, r0, #1
 80009ec:	ea4f 23c1 	mov.w	r3, r1, lsl #11
 80009f0:	ea4f 23d3 	mov.w	r3, r3, lsr #11
 80009f4:	fa03 fc0c 	lsl.w	ip, r3, ip
 80009f8:	ea40 000c 	orr.w	r0, r0, ip
 80009fc:	fa23 f302 	lsr.w	r3, r3, r2
 8000a00:	ea4f 0343 	mov.w	r3, r3, lsl #1
 8000a04:	e7cc      	b.n	80009a0 <__aeabi_d2f+0x14>
 8000a06:	ea7f 5362 	mvns.w	r3, r2, asr #21
 8000a0a:	d107      	bne.n	8000a1c <__aeabi_d2f+0x90>
 8000a0c:	ea50 3301 	orrs.w	r3, r0, r1, lsl #12
 8000a10:	bf1e      	ittt	ne
 8000a12:	f04f 40fe 	movne.w	r0, #2130706432	; 0x7f000000
 8000a16:	f440 0040 	orrne.w	r0, r0, #12582912	; 0xc00000
 8000a1a:	4770      	bxne	lr
 8000a1c:	f001 4000 	and.w	r0, r1, #2147483648	; 0x80000000
 8000a20:	f040 40fe 	orr.w	r0, r0, #2130706432	; 0x7f000000
 8000a24:	f440 0000 	orr.w	r0, r0, #8388608	; 0x800000
 8000a28:	4770      	bx	lr
 8000a2a:	bf00      	nop
 8000a2c:	0000      	movs	r0, r0
	...

08000a30 <calcula_bateria>:
#include "spirit1_IRQ.h"
#include "iis3dwb_reg.h"
#include "Funcoes.h"

void calcula_bateria (void)
{
 8000a30:	b580      	push	{r7, lr}
 8000a32:	af00      	add	r7, sp, #0
	//=================================================
	//AD_Bateria = valor do ADC
	//v_bateria = milivolts da bateria
	//aux_bateria = porcentual da bateria
	//=================================================
	if (AD_Bateria >= 2103)
 8000a34:	4b2e      	ldr	r3, [pc, #184]	; (8000af0 <calcula_bateria+0xc0>)
 8000a36:	681b      	ldr	r3, [r3, #0]
 8000a38:	f640 0236 	movw	r2, #2102	; 0x836
 8000a3c:	4293      	cmp	r3, r2
 8000a3e:	d91c      	bls.n	8000a7a <calcula_bateria+0x4a>
	{
		v_bateria = ((1.6179*AD_Bateria) + 99.412);
 8000a40:	4b2b      	ldr	r3, [pc, #172]	; (8000af0 <calcula_bateria+0xc0>)
 8000a42:	681b      	ldr	r3, [r3, #0]
 8000a44:	4618      	mov	r0, r3
 8000a46:	f7ff fd15 	bl	8000474 <__aeabi_ui2d>
 8000a4a:	a321      	add	r3, pc, #132	; (adr r3, 8000ad0 <calcula_bateria+0xa0>)
 8000a4c:	e9d3 2300 	ldrd	r2, r3, [r3]
 8000a50:	f7ff fd8a 	bl	8000568 <__aeabi_dmul>
 8000a54:	4602      	mov	r2, r0
 8000a56:	460b      	mov	r3, r1
 8000a58:	4610      	mov	r0, r2
 8000a5a:	4619      	mov	r1, r3
 8000a5c:	a31e      	add	r3, pc, #120	; (adr r3, 8000ad8 <calcula_bateria+0xa8>)
 8000a5e:	e9d3 2300 	ldrd	r2, r3, [r3]
 8000a62:	f7ff fbcb 	bl	80001fc <__adddf3>
 8000a66:	4602      	mov	r2, r0
 8000a68:	460b      	mov	r3, r1
 8000a6a:	4610      	mov	r0, r2
 8000a6c:	4619      	mov	r1, r3
 8000a6e:	f7ff ff8d 	bl	800098c <__aeabi_d2f>
 8000a72:	4603      	mov	r3, r0
 8000a74:	4a1f      	ldr	r2, [pc, #124]	; (8000af4 <calcula_bateria+0xc4>)
 8000a76:	6013      	str	r3, [r2, #0]
 8000a78:	e01b      	b.n	8000ab2 <calcula_bateria+0x82>
	}
	else
	{
		v_bateria = ((5.3333*AD_Bateria) - 7716);
 8000a7a:	4b1d      	ldr	r3, [pc, #116]	; (8000af0 <calcula_bateria+0xc0>)
 8000a7c:	681b      	ldr	r3, [r3, #0]
 8000a7e:	4618      	mov	r0, r3
 8000a80:	f7ff fcf8 	bl	8000474 <__aeabi_ui2d>
 8000a84:	a316      	add	r3, pc, #88	; (adr r3, 8000ae0 <calcula_bateria+0xb0>)
 8000a86:	e9d3 2300 	ldrd	r2, r3, [r3]
 8000a8a:	f7ff fd6d 	bl	8000568 <__aeabi_dmul>
 8000a8e:	4602      	mov	r2, r0
 8000a90:	460b      	mov	r3, r1
 8000a92:	4610      	mov	r0, r2
 8000a94:	4619      	mov	r1, r3
 8000a96:	a314      	add	r3, pc, #80	; (adr r3, 8000ae8 <calcula_bateria+0xb8>)
 8000a98:	e9d3 2300 	ldrd	r2, r3, [r3]
 8000a9c:	f7ff fbac 	bl	80001f8 <__aeabi_dsub>
 8000aa0:	4602      	mov	r2, r0
 8000aa2:	460b      	mov	r3, r1
 8000aa4:	4610      	mov	r0, r2
 8000aa6:	4619      	mov	r1, r3
 8000aa8:	f7ff ff70 	bl	800098c <__aeabi_d2f>
 8000aac:	4603      	mov	r3, r0
 8000aae:	4a11      	ldr	r2, [pc, #68]	; (8000af4 <calcula_bateria+0xc4>)
 8000ab0:	6013      	str	r3, [r2, #0]
	}
	P_bateria = v_bateria;
 8000ab2:	4b10      	ldr	r3, [pc, #64]	; (8000af4 <calcula_bateria+0xc4>)
 8000ab4:	edd3 7a00 	vldr	s15, [r3]
 8000ab8:	eefd 7ae7 	vcvt.s32.f32	s15, s15
 8000abc:	ee17 3a90 	vmov	r3, s15
 8000ac0:	b21a      	sxth	r2, r3
 8000ac2:	4b0d      	ldr	r3, [pc, #52]	; (8000af8 <calcula_bateria+0xc8>)
 8000ac4:	801a      	strh	r2, [r3, #0]
}
 8000ac6:	bf00      	nop
 8000ac8:	bd80      	pop	{r7, pc}
 8000aca:	bf00      	nop
 8000acc:	f3af 8000 	nop.w
 8000ad0:	1c432ca5 	.word	0x1c432ca5
 8000ad4:	3ff9e2eb 	.word	0x3ff9e2eb
 8000ad8:	353f7cee 	.word	0x353f7cee
 8000adc:	4058da5e 	.word	0x4058da5e
 8000ae0:	985f06f7 	.word	0x985f06f7
 8000ae4:	4015554c 	.word	0x4015554c
 8000ae8:	00000000 	.word	0x00000000
 8000aec:	40be2400 	.word	0x40be2400
 8000af0:	20000578 	.word	0x20000578
 8000af4:	2000d5c8 	.word	0x2000d5c8
 8000af8:	20000564 	.word	0x20000564
 8000afc:	00000000 	.word	0x00000000

08000b00 <calcula_temperatura>:
void calcula_temperatura (void)
{
 8000b00:	b5b0      	push	{r4, r5, r7, lr}
 8000b02:	b086      	sub	sp, #24
 8000b04:	af00      	add	r7, sp, #0
	float aux_res, temp_lida, aux_temp;
	float coef_ang, coef_lin;

	v_NTC100k = (((float)(AD_NTC100k+60))*TENSAO_REG/4096.0);
 8000b06:	4b88      	ldr	r3, [pc, #544]	; (8000d28 <calcula_temperatura+0x228>)
 8000b08:	681b      	ldr	r3, [r3, #0]
 8000b0a:	333c      	adds	r3, #60	; 0x3c
 8000b0c:	ee07 3a90 	vmov	s15, r3
 8000b10:	eef8 7a67 	vcvt.f32.u32	s15, s15
 8000b14:	ee17 0a90 	vmov	r0, s15
 8000b18:	f7ff fcce 	bl	80004b8 <__aeabi_f2d>
 8000b1c:	a37e      	add	r3, pc, #504	; (adr r3, 8000d18 <calcula_temperatura+0x218>)
 8000b1e:	e9d3 2300 	ldrd	r2, r3, [r3]
 8000b22:	f7ff fd21 	bl	8000568 <__aeabi_dmul>
 8000b26:	4602      	mov	r2, r0
 8000b28:	460b      	mov	r3, r1
 8000b2a:	4610      	mov	r0, r2
 8000b2c:	4619      	mov	r1, r3
 8000b2e:	f04f 0200 	mov.w	r2, #0
 8000b32:	4b7e      	ldr	r3, [pc, #504]	; (8000d2c <calcula_temperatura+0x22c>)
 8000b34:	f7ff fe42 	bl	80007bc <__aeabi_ddiv>
 8000b38:	4602      	mov	r2, r0
 8000b3a:	460b      	mov	r3, r1
 8000b3c:	4610      	mov	r0, r2
 8000b3e:	4619      	mov	r1, r3
 8000b40:	f7ff ff24 	bl	800098c <__aeabi_d2f>
 8000b44:	4603      	mov	r3, r0
 8000b46:	4a7a      	ldr	r2, [pc, #488]	; (8000d30 <calcula_temperatura+0x230>)
 8000b48:	6013      	str	r3, [r2, #0]
	aux_res = (100000.0*(TENSAO_REG - v_NTC100k)/v_NTC100k);
 8000b4a:	4b79      	ldr	r3, [pc, #484]	; (8000d30 <calcula_temperatura+0x230>)
 8000b4c:	681b      	ldr	r3, [r3, #0]
 8000b4e:	4618      	mov	r0, r3
 8000b50:	f7ff fcb2 	bl	80004b8 <__aeabi_f2d>
 8000b54:	4602      	mov	r2, r0
 8000b56:	460b      	mov	r3, r1
 8000b58:	a16f      	add	r1, pc, #444	; (adr r1, 8000d18 <calcula_temperatura+0x218>)
 8000b5a:	e9d1 0100 	ldrd	r0, r1, [r1]
 8000b5e:	f7ff fb4b 	bl	80001f8 <__aeabi_dsub>
 8000b62:	4602      	mov	r2, r0
 8000b64:	460b      	mov	r3, r1
 8000b66:	4610      	mov	r0, r2
 8000b68:	4619      	mov	r1, r3
 8000b6a:	a36d      	add	r3, pc, #436	; (adr r3, 8000d20 <calcula_temperatura+0x220>)
 8000b6c:	e9d3 2300 	ldrd	r2, r3, [r3]
 8000b70:	f7ff fcfa 	bl	8000568 <__aeabi_dmul>
 8000b74:	4602      	mov	r2, r0
 8000b76:	460b      	mov	r3, r1
 8000b78:	4614      	mov	r4, r2
 8000b7a:	461d      	mov	r5, r3
 8000b7c:	4b6c      	ldr	r3, [pc, #432]	; (8000d30 <calcula_temperatura+0x230>)
 8000b7e:	681b      	ldr	r3, [r3, #0]
 8000b80:	4618      	mov	r0, r3
 8000b82:	f7ff fc99 	bl	80004b8 <__aeabi_f2d>
 8000b86:	4602      	mov	r2, r0
 8000b88:	460b      	mov	r3, r1
 8000b8a:	4620      	mov	r0, r4
 8000b8c:	4629      	mov	r1, r5
 8000b8e:	f7ff fe15 	bl	80007bc <__aeabi_ddiv>
 8000b92:	4602      	mov	r2, r0
 8000b94:	460b      	mov	r3, r1
 8000b96:	4610      	mov	r0, r2
 8000b98:	4619      	mov	r1, r3
 8000b9a:	f7ff fef7 	bl	800098c <__aeabi_d2f>
 8000b9e:	4603      	mov	r3, r0
 8000ba0:	613b      	str	r3, [r7, #16]
	if (aux_res >= Res_NTC100k[0])
 8000ba2:	4b64      	ldr	r3, [pc, #400]	; (8000d34 <calcula_temperatura+0x234>)
 8000ba4:	681b      	ldr	r3, [r3, #0]
 8000ba6:	ee07 3a90 	vmov	s15, r3
 8000baa:	eef8 7a67 	vcvt.f32.u32	s15, s15
 8000bae:	ed97 7a04 	vldr	s14, [r7, #16]
 8000bb2:	eeb4 7ae7 	vcmpe.f32	s14, s15
 8000bb6:	eef1 fa10 	vmrs	APSR_nzcv, fpscr
 8000bba:	db02      	blt.n	8000bc2 <calcula_temperatura+0xc2>
	{
		temp_lida = -40.0;
 8000bbc:	4b5e      	ldr	r3, [pc, #376]	; (8000d38 <calcula_temperatura+0x238>)
 8000bbe:	617b      	str	r3, [r7, #20]
 8000bc0:	e098      	b.n	8000cf4 <calcula_temperatura+0x1f4>
	}
	else
	{
		if (aux_res <= Res_NTC100k[38])
 8000bc2:	4b5c      	ldr	r3, [pc, #368]	; (8000d34 <calcula_temperatura+0x234>)
 8000bc4:	f8d3 3098 	ldr.w	r3, [r3, #152]	; 0x98
 8000bc8:	ee07 3a90 	vmov	s15, r3
 8000bcc:	eef8 7a67 	vcvt.f32.u32	s15, s15
 8000bd0:	ed97 7a04 	vldr	s14, [r7, #16]
 8000bd4:	eeb4 7ae7 	vcmpe.f32	s14, s15
 8000bd8:	eef1 fa10 	vmrs	APSR_nzcv, fpscr
 8000bdc:	d802      	bhi.n	8000be4 <calcula_temperatura+0xe4>
		{
			temp_lida = 150.0;
 8000bde:	4b57      	ldr	r3, [pc, #348]	; (8000d3c <calcula_temperatura+0x23c>)
 8000be0:	617b      	str	r3, [r7, #20]
 8000be2:	e087      	b.n	8000cf4 <calcula_temperatura+0x1f4>
		}
		else
		{
			for (I = 1; I < 37; I++)
 8000be4:	4b56      	ldr	r3, [pc, #344]	; (8000d40 <calcula_temperatura+0x240>)
 8000be6:	2201      	movs	r2, #1
 8000be8:	601a      	str	r2, [r3, #0]
 8000bea:	e025      	b.n	8000c38 <calcula_temperatura+0x138>
			{
				if ((aux_res <= Res_NTC100k[I]) && (aux_res > Res_NTC100k[I+1]))
 8000bec:	4b54      	ldr	r3, [pc, #336]	; (8000d40 <calcula_temperatura+0x240>)
 8000bee:	681b      	ldr	r3, [r3, #0]
 8000bf0:	4a50      	ldr	r2, [pc, #320]	; (8000d34 <calcula_temperatura+0x234>)
 8000bf2:	f852 3023 	ldr.w	r3, [r2, r3, lsl #2]
 8000bf6:	ee07 3a90 	vmov	s15, r3
 8000bfa:	eef8 7a67 	vcvt.f32.u32	s15, s15
 8000bfe:	ed97 7a04 	vldr	s14, [r7, #16]
 8000c02:	eeb4 7ae7 	vcmpe.f32	s14, s15
 8000c06:	eef1 fa10 	vmrs	APSR_nzcv, fpscr
 8000c0a:	d810      	bhi.n	8000c2e <calcula_temperatura+0x12e>
 8000c0c:	4b4c      	ldr	r3, [pc, #304]	; (8000d40 <calcula_temperatura+0x240>)
 8000c0e:	681b      	ldr	r3, [r3, #0]
 8000c10:	3301      	adds	r3, #1
 8000c12:	4a48      	ldr	r2, [pc, #288]	; (8000d34 <calcula_temperatura+0x234>)
 8000c14:	f852 3023 	ldr.w	r3, [r2, r3, lsl #2]
 8000c18:	ee07 3a90 	vmov	s15, r3
 8000c1c:	eef8 7a67 	vcvt.f32.u32	s15, s15
 8000c20:	ed97 7a04 	vldr	s14, [r7, #16]
 8000c24:	eeb4 7ae7 	vcmpe.f32	s14, s15
 8000c28:	eef1 fa10 	vmrs	APSR_nzcv, fpscr
 8000c2c:	dc09      	bgt.n	8000c42 <calcula_temperatura+0x142>
			for (I = 1; I < 37; I++)
 8000c2e:	4b44      	ldr	r3, [pc, #272]	; (8000d40 <calcula_temperatura+0x240>)
 8000c30:	681b      	ldr	r3, [r3, #0]
 8000c32:	3301      	adds	r3, #1
 8000c34:	4a42      	ldr	r2, [pc, #264]	; (8000d40 <calcula_temperatura+0x240>)
 8000c36:	6013      	str	r3, [r2, #0]
 8000c38:	4b41      	ldr	r3, [pc, #260]	; (8000d40 <calcula_temperatura+0x240>)
 8000c3a:	681b      	ldr	r3, [r3, #0]
 8000c3c:	2b24      	cmp	r3, #36	; 0x24
 8000c3e:	ddd5      	ble.n	8000bec <calcula_temperatura+0xec>
 8000c40:	e000      	b.n	8000c44 <calcula_temperatura+0x144>
				{
					break;
 8000c42:	bf00      	nop
				}
			}
			coef_ang = (-5.0)/(Res_NTC100k[I] - Res_NTC100k[I+1]);
 8000c44:	4b3e      	ldr	r3, [pc, #248]	; (8000d40 <calcula_temperatura+0x240>)
 8000c46:	681b      	ldr	r3, [r3, #0]
 8000c48:	4a3a      	ldr	r2, [pc, #232]	; (8000d34 <calcula_temperatura+0x234>)
 8000c4a:	f852 2023 	ldr.w	r2, [r2, r3, lsl #2]
 8000c4e:	4b3c      	ldr	r3, [pc, #240]	; (8000d40 <calcula_temperatura+0x240>)
 8000c50:	681b      	ldr	r3, [r3, #0]
 8000c52:	3301      	adds	r3, #1
 8000c54:	4937      	ldr	r1, [pc, #220]	; (8000d34 <calcula_temperatura+0x234>)
 8000c56:	f851 3023 	ldr.w	r3, [r1, r3, lsl #2]
 8000c5a:	1ad3      	subs	r3, r2, r3
 8000c5c:	4618      	mov	r0, r3
 8000c5e:	f7ff fc09 	bl	8000474 <__aeabi_ui2d>
 8000c62:	4602      	mov	r2, r0
 8000c64:	460b      	mov	r3, r1
 8000c66:	f04f 0000 	mov.w	r0, #0
 8000c6a:	4936      	ldr	r1, [pc, #216]	; (8000d44 <calcula_temperatura+0x244>)
 8000c6c:	f7ff fda6 	bl	80007bc <__aeabi_ddiv>
 8000c70:	4602      	mov	r2, r0
 8000c72:	460b      	mov	r3, r1
 8000c74:	4610      	mov	r0, r2
 8000c76:	4619      	mov	r1, r3
 8000c78:	f7ff fe88 	bl	800098c <__aeabi_d2f>
 8000c7c:	4603      	mov	r3, r0
 8000c7e:	60fb      	str	r3, [r7, #12]
			aux_temp = (float)(-40.0 + (5.0*I));
 8000c80:	4b2f      	ldr	r3, [pc, #188]	; (8000d40 <calcula_temperatura+0x240>)
 8000c82:	681b      	ldr	r3, [r3, #0]
 8000c84:	4618      	mov	r0, r3
 8000c86:	f7ff fc05 	bl	8000494 <__aeabi_i2d>
 8000c8a:	f04f 0200 	mov.w	r2, #0
 8000c8e:	4b2e      	ldr	r3, [pc, #184]	; (8000d48 <calcula_temperatura+0x248>)
 8000c90:	f7ff fc6a 	bl	8000568 <__aeabi_dmul>
 8000c94:	4602      	mov	r2, r0
 8000c96:	460b      	mov	r3, r1
 8000c98:	4610      	mov	r0, r2
 8000c9a:	4619      	mov	r1, r3
 8000c9c:	f04f 0200 	mov.w	r2, #0
 8000ca0:	4b2a      	ldr	r3, [pc, #168]	; (8000d4c <calcula_temperatura+0x24c>)
 8000ca2:	f7ff faa9 	bl	80001f8 <__aeabi_dsub>
 8000ca6:	4602      	mov	r2, r0
 8000ca8:	460b      	mov	r3, r1
 8000caa:	4610      	mov	r0, r2
 8000cac:	4619      	mov	r1, r3
 8000cae:	f7ff fe6d 	bl	800098c <__aeabi_d2f>
 8000cb2:	4603      	mov	r3, r0
 8000cb4:	60bb      	str	r3, [r7, #8]
			coef_lin = (aux_temp - (coef_ang*Res_NTC100k[I]));
 8000cb6:	4b22      	ldr	r3, [pc, #136]	; (8000d40 <calcula_temperatura+0x240>)
 8000cb8:	681b      	ldr	r3, [r3, #0]
 8000cba:	4a1e      	ldr	r2, [pc, #120]	; (8000d34 <calcula_temperatura+0x234>)
 8000cbc:	f852 3023 	ldr.w	r3, [r2, r3, lsl #2]
 8000cc0:	ee07 3a90 	vmov	s15, r3
 8000cc4:	eeb8 7a67 	vcvt.f32.u32	s14, s15
 8000cc8:	edd7 7a03 	vldr	s15, [r7, #12]
 8000ccc:	ee67 7a27 	vmul.f32	s15, s14, s15
 8000cd0:	ed97 7a02 	vldr	s14, [r7, #8]
 8000cd4:	ee77 7a67 	vsub.f32	s15, s14, s15
 8000cd8:	edc7 7a01 	vstr	s15, [r7, #4]
			temp_lida = coef_lin + coef_ang*aux_res;
 8000cdc:	ed97 7a03 	vldr	s14, [r7, #12]
 8000ce0:	edd7 7a04 	vldr	s15, [r7, #16]
 8000ce4:	ee67 7a27 	vmul.f32	s15, s14, s15
 8000ce8:	ed97 7a01 	vldr	s14, [r7, #4]
 8000cec:	ee77 7a27 	vadd.f32	s15, s14, s15
 8000cf0:	edc7 7a05 	vstr	s15, [r7, #20]
		}
	}
	T_NTC100k = (temp_lida*10);
 8000cf4:	edd7 7a05 	vldr	s15, [r7, #20]
 8000cf8:	eeb2 7a04 	vmov.f32	s14, #36	; 0x41200000  10.0
 8000cfc:	ee67 7a87 	vmul.f32	s15, s15, s14
 8000d00:	eefd 7ae7 	vcvt.s32.f32	s15, s15
 8000d04:	ee17 3a90 	vmov	r3, s15
 8000d08:	b21a      	sxth	r2, r3
 8000d0a:	4b11      	ldr	r3, [pc, #68]	; (8000d50 <calcula_temperatura+0x250>)
 8000d0c:	801a      	strh	r2, [r3, #0]
}
 8000d0e:	bf00      	nop
 8000d10:	3718      	adds	r7, #24
 8000d12:	46bd      	mov	sp, r7
 8000d14:	bdb0      	pop	{r4, r5, r7, pc}
 8000d16:	bf00      	nop
 8000d18:	00000000 	.word	0x00000000
 8000d1c:	40a9a000 	.word	0x40a9a000
 8000d20:	00000000 	.word	0x00000000
 8000d24:	40f86a00 	.word	0x40f86a00
 8000d28:	20007198 	.word	0x20007198
 8000d2c:	40b00000 	.word	0x40b00000
 8000d30:	20000570 	.word	0x20000570
 8000d34:	20000000 	.word	0x20000000
 8000d38:	c2200000 	.word	0xc2200000
 8000d3c:	43160000 	.word	0x43160000
 8000d40:	2000d5b4 	.word	0x2000d5b4
 8000d44:	c0140000 	.word	0xc0140000
 8000d48:	40140000 	.word	0x40140000
 8000d4c:	40440000 	.word	0x40440000
 8000d50:	200071a4 	.word	0x200071a4

08000d54 <calcula_Vbat>:
void calcula_Vbat (void)
{
 8000d54:	b480      	push	{r7}
 8000d56:	af00      	add	r7, sp, #0
	{
		v_Vbat = TENSAO_REG;
	}
	else
	{
		v_Vbat = v_bateria - 50;
 8000d58:	4b07      	ldr	r3, [pc, #28]	; (8000d78 <calcula_Vbat+0x24>)
 8000d5a:	edd3 7a00 	vldr	s15, [r3]
 8000d5e:	ed9f 7a07 	vldr	s14, [pc, #28]	; 8000d7c <calcula_Vbat+0x28>
 8000d62:	ee77 7ac7 	vsub.f32	s15, s15, s14
 8000d66:	4b06      	ldr	r3, [pc, #24]	; (8000d80 <calcula_Vbat+0x2c>)
 8000d68:	edc3 7a00 	vstr	s15, [r3]
	}
}
 8000d6c:	bf00      	nop
 8000d6e:	46bd      	mov	sp, r7
 8000d70:	f85d 7b04 	ldr.w	r7, [sp], #4
 8000d74:	4770      	bx	lr
 8000d76:	bf00      	nop
 8000d78:	2000d5c8 	.word	0x2000d5c8
 8000d7c:	42480000 	.word	0x42480000
 8000d80:	200004c4 	.word	0x200004c4

08000d84 <Prepara_Envio_Normal>:
void Prepara_Envio_Normal (void)
{
 8000d84:	b490      	push	{r4, r7}
 8000d86:	af00      	add	r7, sp, #0
	num_pacote = 1;
 8000d88:	4b35      	ldr	r3, [pc, #212]	; (8000e60 <Prepara_Envio_Normal+0xdc>)
 8000d8a:	2201      	movs	r2, #1
 8000d8c:	801a      	strh	r2, [r3, #0]
	bytes_pacote = 0;
 8000d8e:	4b35      	ldr	r3, [pc, #212]	; (8000e64 <Prepara_Envio_Normal+0xe0>)
 8000d90:	2200      	movs	r2, #0
 8000d92:	701a      	strb	r2, [r3, #0]
	total_ACC = 0.0;
 8000d94:	4b34      	ldr	r3, [pc, #208]	; (8000e68 <Prepara_Envio_Normal+0xe4>)
 8000d96:	2200      	movs	r2, #0
 8000d98:	601a      	str	r2, [r3, #0]
	for (I = 0; I < NUM_DE_COLETAS; I++)
 8000d9a:	4b34      	ldr	r3, [pc, #208]	; (8000e6c <Prepara_Envio_Normal+0xe8>)
 8000d9c:	2200      	movs	r2, #0
 8000d9e:	601a      	str	r2, [r3, #0]
 8000da0:	e053      	b.n	8000e4a <Prepara_Envio_Normal+0xc6>
	{
		total_ACC += data_acceleration[I];
 8000da2:	4b32      	ldr	r3, [pc, #200]	; (8000e6c <Prepara_Envio_Normal+0xe8>)
 8000da4:	681b      	ldr	r3, [r3, #0]
 8000da6:	4a32      	ldr	r2, [pc, #200]	; (8000e70 <Prepara_Envio_Normal+0xec>)
 8000da8:	f932 3013 	ldrsh.w	r3, [r2, r3, lsl #1]
 8000dac:	461a      	mov	r2, r3
 8000dae:	4b2e      	ldr	r3, [pc, #184]	; (8000e68 <Prepara_Envio_Normal+0xe4>)
 8000db0:	681b      	ldr	r3, [r3, #0]
 8000db2:	4413      	add	r3, r2
 8000db4:	4a2c      	ldr	r2, [pc, #176]	; (8000e68 <Prepara_Envio_Normal+0xe4>)
 8000db6:	6013      	str	r3, [r2, #0]
		tx_buffer[num_pacote][bytes_pacote] = (data_acceleration[I] & 0xFF);
 8000db8:	4b2c      	ldr	r3, [pc, #176]	; (8000e6c <Prepara_Envio_Normal+0xe8>)
 8000dba:	681b      	ldr	r3, [r3, #0]
 8000dbc:	4a2c      	ldr	r2, [pc, #176]	; (8000e70 <Prepara_Envio_Normal+0xec>)
 8000dbe:	f932 2013 	ldrsh.w	r2, [r2, r3, lsl #1]
 8000dc2:	4b27      	ldr	r3, [pc, #156]	; (8000e60 <Prepara_Envio_Normal+0xdc>)
 8000dc4:	881b      	ldrh	r3, [r3, #0]
 8000dc6:	461c      	mov	r4, r3
 8000dc8:	4b26      	ldr	r3, [pc, #152]	; (8000e64 <Prepara_Envio_Normal+0xe0>)
 8000dca:	781b      	ldrb	r3, [r3, #0]
 8000dcc:	4618      	mov	r0, r3
 8000dce:	b2d1      	uxtb	r1, r2
 8000dd0:	4a28      	ldr	r2, [pc, #160]	; (8000e74 <Prepara_Envio_Normal+0xf0>)
 8000dd2:	2362      	movs	r3, #98	; 0x62
 8000dd4:	fb03 f304 	mul.w	r3, r3, r4
 8000dd8:	4413      	add	r3, r2
 8000dda:	4403      	add	r3, r0
 8000ddc:	460a      	mov	r2, r1
 8000dde:	701a      	strb	r2, [r3, #0]
		tx_buffer[num_pacote][bytes_pacote+1] = (data_acceleration[I] >> 8);
 8000de0:	4b22      	ldr	r3, [pc, #136]	; (8000e6c <Prepara_Envio_Normal+0xe8>)
 8000de2:	681b      	ldr	r3, [r3, #0]
 8000de4:	4a22      	ldr	r2, [pc, #136]	; (8000e70 <Prepara_Envio_Normal+0xec>)
 8000de6:	f932 3013 	ldrsh.w	r3, [r2, r3, lsl #1]
 8000dea:	121b      	asrs	r3, r3, #8
 8000dec:	b21a      	sxth	r2, r3
 8000dee:	4b1c      	ldr	r3, [pc, #112]	; (8000e60 <Prepara_Envio_Normal+0xdc>)
 8000df0:	881b      	ldrh	r3, [r3, #0]
 8000df2:	461c      	mov	r4, r3
 8000df4:	4b1b      	ldr	r3, [pc, #108]	; (8000e64 <Prepara_Envio_Normal+0xe0>)
 8000df6:	781b      	ldrb	r3, [r3, #0]
 8000df8:	3301      	adds	r3, #1
 8000dfa:	b2d0      	uxtb	r0, r2
 8000dfc:	491d      	ldr	r1, [pc, #116]	; (8000e74 <Prepara_Envio_Normal+0xf0>)
 8000dfe:	2262      	movs	r2, #98	; 0x62
 8000e00:	fb02 f204 	mul.w	r2, r2, r4
 8000e04:	440a      	add	r2, r1
 8000e06:	4413      	add	r3, r2
 8000e08:	4602      	mov	r2, r0
 8000e0a:	701a      	strb	r2, [r3, #0]
		bytes_pacote += 2;
 8000e0c:	4b15      	ldr	r3, [pc, #84]	; (8000e64 <Prepara_Envio_Normal+0xe0>)
 8000e0e:	781b      	ldrb	r3, [r3, #0]
 8000e10:	3302      	adds	r3, #2
 8000e12:	b2da      	uxtb	r2, r3
 8000e14:	4b13      	ldr	r3, [pc, #76]	; (8000e64 <Prepara_Envio_Normal+0xe0>)
 8000e16:	701a      	strb	r2, [r3, #0]
		if (bytes_pacote >= QTD_BYTES_RF)
 8000e18:	4b12      	ldr	r3, [pc, #72]	; (8000e64 <Prepara_Envio_Normal+0xe0>)
 8000e1a:	781b      	ldrb	r3, [r3, #0]
 8000e1c:	2b5d      	cmp	r3, #93	; 0x5d
 8000e1e:	d908      	bls.n	8000e32 <Prepara_Envio_Normal+0xae>
		{
			bytes_pacote = 0;
 8000e20:	4b10      	ldr	r3, [pc, #64]	; (8000e64 <Prepara_Envio_Normal+0xe0>)
 8000e22:	2200      	movs	r2, #0
 8000e24:	701a      	strb	r2, [r3, #0]
			num_pacote++;
 8000e26:	4b0e      	ldr	r3, [pc, #56]	; (8000e60 <Prepara_Envio_Normal+0xdc>)
 8000e28:	881b      	ldrh	r3, [r3, #0]
 8000e2a:	3301      	adds	r3, #1
 8000e2c:	b29a      	uxth	r2, r3
 8000e2e:	4b0c      	ldr	r3, [pc, #48]	; (8000e60 <Prepara_Envio_Normal+0xdc>)
 8000e30:	801a      	strh	r2, [r3, #0]
		}
		if (num_pacote > NUM_DE_PACOTES)
 8000e32:	4b0b      	ldr	r3, [pc, #44]	; (8000e60 <Prepara_Envio_Normal+0xdc>)
 8000e34:	881b      	ldrh	r3, [r3, #0]
 8000e36:	f5b3 7f85 	cmp.w	r3, #266	; 0x10a
 8000e3a:	d901      	bls.n	8000e40 <Prepara_Envio_Normal+0xbc>
		{
			asm("NOP");
 8000e3c:	bf00      	nop
			break;
 8000e3e:	e00b      	b.n	8000e58 <Prepara_Envio_Normal+0xd4>
	for (I = 0; I < NUM_DE_COLETAS; I++)
 8000e40:	4b0a      	ldr	r3, [pc, #40]	; (8000e6c <Prepara_Envio_Normal+0xe8>)
 8000e42:	681b      	ldr	r3, [r3, #0]
 8000e44:	3301      	adds	r3, #1
 8000e46:	4a09      	ldr	r2, [pc, #36]	; (8000e6c <Prepara_Envio_Normal+0xe8>)
 8000e48:	6013      	str	r3, [r2, #0]
 8000e4a:	4b08      	ldr	r3, [pc, #32]	; (8000e6c <Prepara_Envio_Normal+0xe8>)
 8000e4c:	681b      	ldr	r3, [r3, #0]
 8000e4e:	f243 02d5 	movw	r2, #12501	; 0x30d5
 8000e52:	4293      	cmp	r3, r2
 8000e54:	dda5      	ble.n	8000da2 <Prepara_Envio_Normal+0x1e>
		}
	}
}
 8000e56:	bf00      	nop
 8000e58:	bf00      	nop
 8000e5a:	46bd      	mov	sp, r7
 8000e5c:	bc90      	pop	{r4, r7}
 8000e5e:	4770      	bx	lr
 8000e60:	2000718c 	.word	0x2000718c
 8000e64:	2000d541 	.word	0x2000d541
 8000e68:	200004f8 	.word	0x200004f8
 8000e6c:	2000d5b4 	.word	0x2000d5b4
 8000e70:	2000d5d4 	.word	0x2000d5d4
 8000e74:	20000968 	.word	0x20000968

08000e78 <Preparar_Pacotes_full>:
void Preparar_Pacotes_full (void)
{
 8000e78:	b490      	push	{r4, r7}
 8000e7a:	b082      	sub	sp, #8
 8000e7c:	af00      	add	r7, sp, #0
	int16_t aux_data_ACC;

	//==============================================================================
	// Preparar
	num_pacote = 1;
 8000e7e:	4b7a      	ldr	r3, [pc, #488]	; (8001068 <Preparar_Pacotes_full+0x1f0>)
 8000e80:	2201      	movs	r2, #1
 8000e82:	801a      	strh	r2, [r3, #0]
	bytes_pacote = 0;
 8000e84:	4b79      	ldr	r3, [pc, #484]	; (800106c <Preparar_Pacotes_full+0x1f4>)
 8000e86:	2200      	movs	r2, #0
 8000e88:	701a      	strb	r2, [r3, #0]
	total_ACC = 0.0;
 8000e8a:	4b79      	ldr	r3, [pc, #484]	; (8001070 <Preparar_Pacotes_full+0x1f8>)
 8000e8c:	2200      	movs	r2, #0
 8000e8e:	601a      	str	r2, [r3, #0]
	for (I = 0; I < (NUM_DE_COLETAS/2); I++)
 8000e90:	4b78      	ldr	r3, [pc, #480]	; (8001074 <Preparar_Pacotes_full+0x1fc>)
 8000e92:	2200      	movs	r2, #0
 8000e94:	601a      	str	r2, [r3, #0]
 8000e96:	e0d9      	b.n	800104c <Preparar_Pacotes_full+0x1d4>
	{ // Tem que ser (NUM_DE_COLETAS/2)
		//================================================================================
		total_ACC += data_acceleration[I];
 8000e98:	4b76      	ldr	r3, [pc, #472]	; (8001074 <Preparar_Pacotes_full+0x1fc>)
 8000e9a:	681b      	ldr	r3, [r3, #0]
 8000e9c:	4a76      	ldr	r2, [pc, #472]	; (8001078 <Preparar_Pacotes_full+0x200>)
 8000e9e:	f932 3013 	ldrsh.w	r3, [r2, r3, lsl #1]
 8000ea2:	461a      	mov	r2, r3
 8000ea4:	4b72      	ldr	r3, [pc, #456]	; (8001070 <Preparar_Pacotes_full+0x1f8>)
 8000ea6:	681b      	ldr	r3, [r3, #0]
 8000ea8:	4413      	add	r3, r2
 8000eaa:	4a71      	ldr	r2, [pc, #452]	; (8001070 <Preparar_Pacotes_full+0x1f8>)
 8000eac:	6013      	str	r3, [r2, #0]
		tx_buffer[num_pacote][bytes_pacote] = (data_acceleration[I] & 0xFF);
 8000eae:	4b71      	ldr	r3, [pc, #452]	; (8001074 <Preparar_Pacotes_full+0x1fc>)
 8000eb0:	681b      	ldr	r3, [r3, #0]
 8000eb2:	4a71      	ldr	r2, [pc, #452]	; (8001078 <Preparar_Pacotes_full+0x200>)
 8000eb4:	f932 2013 	ldrsh.w	r2, [r2, r3, lsl #1]
 8000eb8:	4b6b      	ldr	r3, [pc, #428]	; (8001068 <Preparar_Pacotes_full+0x1f0>)
 8000eba:	881b      	ldrh	r3, [r3, #0]
 8000ebc:	461c      	mov	r4, r3
 8000ebe:	4b6b      	ldr	r3, [pc, #428]	; (800106c <Preparar_Pacotes_full+0x1f4>)
 8000ec0:	781b      	ldrb	r3, [r3, #0]
 8000ec2:	4618      	mov	r0, r3
 8000ec4:	b2d1      	uxtb	r1, r2
 8000ec6:	4a6d      	ldr	r2, [pc, #436]	; (800107c <Preparar_Pacotes_full+0x204>)
 8000ec8:	2362      	movs	r3, #98	; 0x62
 8000eca:	fb03 f304 	mul.w	r3, r3, r4
 8000ece:	4413      	add	r3, r2
 8000ed0:	4403      	add	r3, r0
 8000ed2:	460a      	mov	r2, r1
 8000ed4:	701a      	strb	r2, [r3, #0]
		tx_buffer[num_pacote][bytes_pacote+1] = (data_acceleration[I] >> 8);
 8000ed6:	4b67      	ldr	r3, [pc, #412]	; (8001074 <Preparar_Pacotes_full+0x1fc>)
 8000ed8:	681b      	ldr	r3, [r3, #0]
 8000eda:	4a67      	ldr	r2, [pc, #412]	; (8001078 <Preparar_Pacotes_full+0x200>)
 8000edc:	f932 3013 	ldrsh.w	r3, [r2, r3, lsl #1]
 8000ee0:	121b      	asrs	r3, r3, #8
 8000ee2:	b21a      	sxth	r2, r3
 8000ee4:	4b60      	ldr	r3, [pc, #384]	; (8001068 <Preparar_Pacotes_full+0x1f0>)
 8000ee6:	881b      	ldrh	r3, [r3, #0]
 8000ee8:	461c      	mov	r4, r3
 8000eea:	4b60      	ldr	r3, [pc, #384]	; (800106c <Preparar_Pacotes_full+0x1f4>)
 8000eec:	781b      	ldrb	r3, [r3, #0]
 8000eee:	3301      	adds	r3, #1
 8000ef0:	b2d0      	uxtb	r0, r2
 8000ef2:	4962      	ldr	r1, [pc, #392]	; (800107c <Preparar_Pacotes_full+0x204>)
 8000ef4:	2262      	movs	r2, #98	; 0x62
 8000ef6:	fb02 f204 	mul.w	r2, r2, r4
 8000efa:	440a      	add	r2, r1
 8000efc:	4413      	add	r3, r2
 8000efe:	4602      	mov	r2, r0
 8000f00:	701a      	strb	r2, [r3, #0]
		bytes_pacote += 2;
 8000f02:	4b5a      	ldr	r3, [pc, #360]	; (800106c <Preparar_Pacotes_full+0x1f4>)
 8000f04:	781b      	ldrb	r3, [r3, #0]
 8000f06:	3302      	adds	r3, #2
 8000f08:	b2da      	uxtb	r2, r3
 8000f0a:	4b58      	ldr	r3, [pc, #352]	; (800106c <Preparar_Pacotes_full+0x1f4>)
 8000f0c:	701a      	strb	r2, [r3, #0]
		if (bytes_pacote >= QTD_BYTES_RF)
 8000f0e:	4b57      	ldr	r3, [pc, #348]	; (800106c <Preparar_Pacotes_full+0x1f4>)
 8000f10:	781b      	ldrb	r3, [r3, #0]
 8000f12:	2b5d      	cmp	r3, #93	; 0x5d
 8000f14:	d908      	bls.n	8000f28 <Preparar_Pacotes_full+0xb0>
		{
			bytes_pacote = 0;
 8000f16:	4b55      	ldr	r3, [pc, #340]	; (800106c <Preparar_Pacotes_full+0x1f4>)
 8000f18:	2200      	movs	r2, #0
 8000f1a:	701a      	strb	r2, [r3, #0]
			num_pacote++;
 8000f1c:	4b52      	ldr	r3, [pc, #328]	; (8001068 <Preparar_Pacotes_full+0x1f0>)
 8000f1e:	881b      	ldrh	r3, [r3, #0]
 8000f20:	3301      	adds	r3, #1
 8000f22:	b29a      	uxth	r2, r3
 8000f24:	4b50      	ldr	r3, [pc, #320]	; (8001068 <Preparar_Pacotes_full+0x1f0>)
 8000f26:	801a      	strh	r2, [r3, #0]
		}
		//================================================================================
		if (I < ((NUM_DE_COLETAS/2)-1))
 8000f28:	4b52      	ldr	r3, [pc, #328]	; (8001074 <Preparar_Pacotes_full+0x1fc>)
 8000f2a:	681b      	ldr	r3, [r3, #0]
 8000f2c:	f641 0269 	movw	r2, #6249	; 0x1869
 8000f30:	4293      	cmp	r3, r2
 8000f32:	dc7f      	bgt.n	8001034 <Preparar_Pacotes_full+0x1bc>
		{
			if (data_acceleration[I] > data_acceleration[I+1])
 8000f34:	4b4f      	ldr	r3, [pc, #316]	; (8001074 <Preparar_Pacotes_full+0x1fc>)
 8000f36:	681b      	ldr	r3, [r3, #0]
 8000f38:	4a4f      	ldr	r2, [pc, #316]	; (8001078 <Preparar_Pacotes_full+0x200>)
 8000f3a:	f932 2013 	ldrsh.w	r2, [r2, r3, lsl #1]
 8000f3e:	4b4d      	ldr	r3, [pc, #308]	; (8001074 <Preparar_Pacotes_full+0x1fc>)
 8000f40:	681b      	ldr	r3, [r3, #0]
 8000f42:	3301      	adds	r3, #1
 8000f44:	494c      	ldr	r1, [pc, #304]	; (8001078 <Preparar_Pacotes_full+0x200>)
 8000f46:	f931 3013 	ldrsh.w	r3, [r1, r3, lsl #1]
 8000f4a:	429a      	cmp	r2, r3
 8000f4c:	dd1b      	ble.n	8000f86 <Preparar_Pacotes_full+0x10e>
			{// Atual é maior que o próximo
				aux_data_ACC = (data_acceleration[I+1] + ((data_acceleration[I]-data_acceleration[I+1])/2));
 8000f4e:	4b49      	ldr	r3, [pc, #292]	; (8001074 <Preparar_Pacotes_full+0x1fc>)
 8000f50:	681b      	ldr	r3, [r3, #0]
 8000f52:	3301      	adds	r3, #1
 8000f54:	4a48      	ldr	r2, [pc, #288]	; (8001078 <Preparar_Pacotes_full+0x200>)
 8000f56:	f932 3013 	ldrsh.w	r3, [r2, r3, lsl #1]
 8000f5a:	b29a      	uxth	r2, r3
 8000f5c:	4b45      	ldr	r3, [pc, #276]	; (8001074 <Preparar_Pacotes_full+0x1fc>)
 8000f5e:	681b      	ldr	r3, [r3, #0]
 8000f60:	4945      	ldr	r1, [pc, #276]	; (8001078 <Preparar_Pacotes_full+0x200>)
 8000f62:	f931 3013 	ldrsh.w	r3, [r1, r3, lsl #1]
 8000f66:	4618      	mov	r0, r3
 8000f68:	4b42      	ldr	r3, [pc, #264]	; (8001074 <Preparar_Pacotes_full+0x1fc>)
 8000f6a:	681b      	ldr	r3, [r3, #0]
 8000f6c:	3301      	adds	r3, #1
 8000f6e:	4942      	ldr	r1, [pc, #264]	; (8001078 <Preparar_Pacotes_full+0x200>)
 8000f70:	f931 3013 	ldrsh.w	r3, [r1, r3, lsl #1]
 8000f74:	1ac3      	subs	r3, r0, r3
 8000f76:	0fd9      	lsrs	r1, r3, #31
 8000f78:	440b      	add	r3, r1
 8000f7a:	105b      	asrs	r3, r3, #1
 8000f7c:	b29b      	uxth	r3, r3
 8000f7e:	4413      	add	r3, r2
 8000f80:	b29b      	uxth	r3, r3
 8000f82:	80fb      	strh	r3, [r7, #6]
 8000f84:	e019      	b.n	8000fba <Preparar_Pacotes_full+0x142>
			}
			else
			{// Atual é menor que o próximo
				aux_data_ACC = (data_acceleration[I] + ((data_acceleration[I+1]-data_acceleration[I])/2));
 8000f86:	4b3b      	ldr	r3, [pc, #236]	; (8001074 <Preparar_Pacotes_full+0x1fc>)
 8000f88:	681b      	ldr	r3, [r3, #0]
 8000f8a:	4a3b      	ldr	r2, [pc, #236]	; (8001078 <Preparar_Pacotes_full+0x200>)
 8000f8c:	f932 3013 	ldrsh.w	r3, [r2, r3, lsl #1]
 8000f90:	b29a      	uxth	r2, r3
 8000f92:	4b38      	ldr	r3, [pc, #224]	; (8001074 <Preparar_Pacotes_full+0x1fc>)
 8000f94:	681b      	ldr	r3, [r3, #0]
 8000f96:	3301      	adds	r3, #1
 8000f98:	4937      	ldr	r1, [pc, #220]	; (8001078 <Preparar_Pacotes_full+0x200>)
 8000f9a:	f931 3013 	ldrsh.w	r3, [r1, r3, lsl #1]
 8000f9e:	4618      	mov	r0, r3
 8000fa0:	4b34      	ldr	r3, [pc, #208]	; (8001074 <Preparar_Pacotes_full+0x1fc>)
 8000fa2:	681b      	ldr	r3, [r3, #0]
 8000fa4:	4934      	ldr	r1, [pc, #208]	; (8001078 <Preparar_Pacotes_full+0x200>)
 8000fa6:	f931 3013 	ldrsh.w	r3, [r1, r3, lsl #1]
 8000faa:	1ac3      	subs	r3, r0, r3
 8000fac:	0fd9      	lsrs	r1, r3, #31
 8000fae:	440b      	add	r3, r1
 8000fb0:	105b      	asrs	r3, r3, #1
 8000fb2:	b29b      	uxth	r3, r3
 8000fb4:	4413      	add	r3, r2
 8000fb6:	b29b      	uxth	r3, r3
 8000fb8:	80fb      	strh	r3, [r7, #6]
			}
			//================================================================================
			total_ACC += aux_data_ACC;
 8000fba:	f9b7 2006 	ldrsh.w	r2, [r7, #6]
 8000fbe:	4b2c      	ldr	r3, [pc, #176]	; (8001070 <Preparar_Pacotes_full+0x1f8>)
 8000fc0:	681b      	ldr	r3, [r3, #0]
 8000fc2:	4413      	add	r3, r2
 8000fc4:	4a2a      	ldr	r2, [pc, #168]	; (8001070 <Preparar_Pacotes_full+0x1f8>)
 8000fc6:	6013      	str	r3, [r2, #0]
			tx_buffer[num_pacote][bytes_pacote] = (aux_data_ACC & 0xFF);
 8000fc8:	4b27      	ldr	r3, [pc, #156]	; (8001068 <Preparar_Pacotes_full+0x1f0>)
 8000fca:	881b      	ldrh	r3, [r3, #0]
 8000fcc:	461c      	mov	r4, r3
 8000fce:	4b27      	ldr	r3, [pc, #156]	; (800106c <Preparar_Pacotes_full+0x1f4>)
 8000fd0:	781b      	ldrb	r3, [r3, #0]
 8000fd2:	4618      	mov	r0, r3
 8000fd4:	88fb      	ldrh	r3, [r7, #6]
 8000fd6:	b2d9      	uxtb	r1, r3
 8000fd8:	4a28      	ldr	r2, [pc, #160]	; (800107c <Preparar_Pacotes_full+0x204>)
 8000fda:	2362      	movs	r3, #98	; 0x62
 8000fdc:	fb03 f304 	mul.w	r3, r3, r4
 8000fe0:	4413      	add	r3, r2
 8000fe2:	4403      	add	r3, r0
 8000fe4:	460a      	mov	r2, r1
 8000fe6:	701a      	strb	r2, [r3, #0]
			tx_buffer[num_pacote][bytes_pacote+1] = (aux_data_ACC >> 8);
 8000fe8:	f9b7 3006 	ldrsh.w	r3, [r7, #6]
 8000fec:	121b      	asrs	r3, r3, #8
 8000fee:	b21a      	sxth	r2, r3
 8000ff0:	4b1d      	ldr	r3, [pc, #116]	; (8001068 <Preparar_Pacotes_full+0x1f0>)
 8000ff2:	881b      	ldrh	r3, [r3, #0]
 8000ff4:	461c      	mov	r4, r3
 8000ff6:	4b1d      	ldr	r3, [pc, #116]	; (800106c <Preparar_Pacotes_full+0x1f4>)
 8000ff8:	781b      	ldrb	r3, [r3, #0]
 8000ffa:	3301      	adds	r3, #1
 8000ffc:	b2d0      	uxtb	r0, r2
 8000ffe:	491f      	ldr	r1, [pc, #124]	; (800107c <Preparar_Pacotes_full+0x204>)
 8001000:	2262      	movs	r2, #98	; 0x62
 8001002:	fb02 f204 	mul.w	r2, r2, r4
 8001006:	440a      	add	r2, r1
 8001008:	4413      	add	r3, r2
 800100a:	4602      	mov	r2, r0
 800100c:	701a      	strb	r2, [r3, #0]
			bytes_pacote += 2;
 800100e:	4b17      	ldr	r3, [pc, #92]	; (800106c <Preparar_Pacotes_full+0x1f4>)
 8001010:	781b      	ldrb	r3, [r3, #0]
 8001012:	3302      	adds	r3, #2
 8001014:	b2da      	uxtb	r2, r3
 8001016:	4b15      	ldr	r3, [pc, #84]	; (800106c <Preparar_Pacotes_full+0x1f4>)
 8001018:	701a      	strb	r2, [r3, #0]
			if (bytes_pacote >= QTD_BYTES_RF)
 800101a:	4b14      	ldr	r3, [pc, #80]	; (800106c <Preparar_Pacotes_full+0x1f4>)
 800101c:	781b      	ldrb	r3, [r3, #0]
 800101e:	2b5d      	cmp	r3, #93	; 0x5d
 8001020:	d908      	bls.n	8001034 <Preparar_Pacotes_full+0x1bc>
			{
				bytes_pacote = 0;
 8001022:	4b12      	ldr	r3, [pc, #72]	; (800106c <Preparar_Pacotes_full+0x1f4>)
 8001024:	2200      	movs	r2, #0
 8001026:	701a      	strb	r2, [r3, #0]
				num_pacote++;
 8001028:	4b0f      	ldr	r3, [pc, #60]	; (8001068 <Preparar_Pacotes_full+0x1f0>)
 800102a:	881b      	ldrh	r3, [r3, #0]
 800102c:	3301      	adds	r3, #1
 800102e:	b29a      	uxth	r2, r3
 8001030:	4b0d      	ldr	r3, [pc, #52]	; (8001068 <Preparar_Pacotes_full+0x1f0>)
 8001032:	801a      	strh	r2, [r3, #0]
			}
			//================================================================================
		}
		if (num_pacote > NUM_DE_PACOTES)
 8001034:	4b0c      	ldr	r3, [pc, #48]	; (8001068 <Preparar_Pacotes_full+0x1f0>)
 8001036:	881b      	ldrh	r3, [r3, #0]
 8001038:	f5b3 7f85 	cmp.w	r3, #266	; 0x10a
 800103c:	d901      	bls.n	8001042 <Preparar_Pacotes_full+0x1ca>
		{
			asm("NOP");
 800103e:	bf00      	nop
			break;
 8001040:	e00c      	b.n	800105c <Preparar_Pacotes_full+0x1e4>
	for (I = 0; I < (NUM_DE_COLETAS/2); I++)
 8001042:	4b0c      	ldr	r3, [pc, #48]	; (8001074 <Preparar_Pacotes_full+0x1fc>)
 8001044:	681b      	ldr	r3, [r3, #0]
 8001046:	3301      	adds	r3, #1
 8001048:	4a0a      	ldr	r2, [pc, #40]	; (8001074 <Preparar_Pacotes_full+0x1fc>)
 800104a:	6013      	str	r3, [r2, #0]
 800104c:	4b09      	ldr	r3, [pc, #36]	; (8001074 <Preparar_Pacotes_full+0x1fc>)
 800104e:	681b      	ldr	r3, [r3, #0]
 8001050:	f641 026a 	movw	r2, #6250	; 0x186a
 8001054:	4293      	cmp	r3, r2
 8001056:	f77f af1f 	ble.w	8000e98 <Preparar_Pacotes_full+0x20>
		}
	}
}
 800105a:	bf00      	nop
 800105c:	bf00      	nop
 800105e:	3708      	adds	r7, #8
 8001060:	46bd      	mov	sp, r7
 8001062:	bc90      	pop	{r4, r7}
 8001064:	4770      	bx	lr
 8001066:	bf00      	nop
 8001068:	2000718c 	.word	0x2000718c
 800106c:	2000d541 	.word	0x2000d541
 8001070:	200004f8 	.word	0x200004f8
 8001074:	2000d5b4 	.word	0x2000d5b4
 8001078:	2000d5d4 	.word	0x2000d5d4
 800107c:	20000968 	.word	0x20000968

08001080 <Preparar_Envio_Duplo>:
void Preparar_Envio_Duplo (void)
{
 8001080:	b490      	push	{r4, r7}
 8001082:	af00      	add	r7, sp, #0
	//==============================================================================
	// Preparar
	num_pacote = 1; // Tem que ser 1 o indice 0 é do cabeçalho
 8001084:	4b4f      	ldr	r3, [pc, #316]	; (80011c4 <Preparar_Envio_Duplo+0x144>)
 8001086:	2201      	movs	r2, #1
 8001088:	801a      	strh	r2, [r3, #0]
	num_pacote2 = NUM_DE_PACOTES/2;
 800108a:	4b4f      	ldr	r3, [pc, #316]	; (80011c8 <Preparar_Envio_Duplo+0x148>)
 800108c:	2285      	movs	r2, #133	; 0x85
 800108e:	801a      	strh	r2, [r3, #0]
	bytes_pacote = 0;
 8001090:	4b4e      	ldr	r3, [pc, #312]	; (80011cc <Preparar_Envio_Duplo+0x14c>)
 8001092:	2200      	movs	r2, #0
 8001094:	701a      	strb	r2, [r3, #0]
	total_ACC = 0.0; //Zera para fazer média
 8001096:	4b4e      	ldr	r3, [pc, #312]	; (80011d0 <Preparar_Envio_Duplo+0x150>)
 8001098:	2200      	movs	r2, #0
 800109a:	601a      	str	r2, [r3, #0]
	for (I = 0; I < (NUM_DE_COLETAS/2); I++)
 800109c:	4b4d      	ldr	r3, [pc, #308]	; (80011d4 <Preparar_Envio_Duplo+0x154>)
 800109e:	2200      	movs	r2, #0
 80010a0:	601a      	str	r2, [r3, #0]
 80010a2:	e082      	b.n	80011aa <Preparar_Envio_Duplo+0x12a>
	{ // Tem que ser (NUM_DE_COLETAS/2)
		//================================================================================
		total_ACC += data_acceleration[I]; // soma acelerações
 80010a4:	4b4b      	ldr	r3, [pc, #300]	; (80011d4 <Preparar_Envio_Duplo+0x154>)
 80010a6:	681b      	ldr	r3, [r3, #0]
 80010a8:	4a4b      	ldr	r2, [pc, #300]	; (80011d8 <Preparar_Envio_Duplo+0x158>)
 80010aa:	f932 3013 	ldrsh.w	r3, [r2, r3, lsl #1]
 80010ae:	461a      	mov	r2, r3
 80010b0:	4b47      	ldr	r3, [pc, #284]	; (80011d0 <Preparar_Envio_Duplo+0x150>)
 80010b2:	681b      	ldr	r3, [r3, #0]
 80010b4:	4413      	add	r3, r2
 80010b6:	4a46      	ldr	r2, [pc, #280]	; (80011d0 <Preparar_Envio_Duplo+0x150>)
 80010b8:	6013      	str	r3, [r2, #0]
		tx_buffer[num_pacote][bytes_pacote] = (data_acceleration[I] & 0xFF);
 80010ba:	4b46      	ldr	r3, [pc, #280]	; (80011d4 <Preparar_Envio_Duplo+0x154>)
 80010bc:	681b      	ldr	r3, [r3, #0]
 80010be:	4a46      	ldr	r2, [pc, #280]	; (80011d8 <Preparar_Envio_Duplo+0x158>)
 80010c0:	f932 2013 	ldrsh.w	r2, [r2, r3, lsl #1]
 80010c4:	4b3f      	ldr	r3, [pc, #252]	; (80011c4 <Preparar_Envio_Duplo+0x144>)
 80010c6:	881b      	ldrh	r3, [r3, #0]
 80010c8:	461c      	mov	r4, r3
 80010ca:	4b40      	ldr	r3, [pc, #256]	; (80011cc <Preparar_Envio_Duplo+0x14c>)
 80010cc:	781b      	ldrb	r3, [r3, #0]
 80010ce:	4618      	mov	r0, r3
 80010d0:	b2d1      	uxtb	r1, r2
 80010d2:	4a42      	ldr	r2, [pc, #264]	; (80011dc <Preparar_Envio_Duplo+0x15c>)
 80010d4:	2362      	movs	r3, #98	; 0x62
 80010d6:	fb03 f304 	mul.w	r3, r3, r4
 80010da:	4413      	add	r3, r2
 80010dc:	4403      	add	r3, r0
 80010de:	460a      	mov	r2, r1
 80010e0:	701a      	strb	r2, [r3, #0]
		tx_buffer[num_pacote][bytes_pacote+1] = (data_acceleration[I] >> 8);
 80010e2:	4b3c      	ldr	r3, [pc, #240]	; (80011d4 <Preparar_Envio_Duplo+0x154>)
 80010e4:	681b      	ldr	r3, [r3, #0]
 80010e6:	4a3c      	ldr	r2, [pc, #240]	; (80011d8 <Preparar_Envio_Duplo+0x158>)
 80010e8:	f932 3013 	ldrsh.w	r3, [r2, r3, lsl #1]
 80010ec:	121b      	asrs	r3, r3, #8
 80010ee:	b21a      	sxth	r2, r3
 80010f0:	4b34      	ldr	r3, [pc, #208]	; (80011c4 <Preparar_Envio_Duplo+0x144>)
 80010f2:	881b      	ldrh	r3, [r3, #0]
 80010f4:	461c      	mov	r4, r3
 80010f6:	4b35      	ldr	r3, [pc, #212]	; (80011cc <Preparar_Envio_Duplo+0x14c>)
 80010f8:	781b      	ldrb	r3, [r3, #0]
 80010fa:	3301      	adds	r3, #1
 80010fc:	b2d0      	uxtb	r0, r2
 80010fe:	4937      	ldr	r1, [pc, #220]	; (80011dc <Preparar_Envio_Duplo+0x15c>)
 8001100:	2262      	movs	r2, #98	; 0x62
 8001102:	fb02 f204 	mul.w	r2, r2, r4
 8001106:	440a      	add	r2, r1
 8001108:	4413      	add	r3, r2
 800110a:	4602      	mov	r2, r0
 800110c:	701a      	strb	r2, [r3, #0]
		tx_buffer[num_pacote+num_pacote2][bytes_pacote] = (data_acceleration[I] & 0xFF);
 800110e:	4b31      	ldr	r3, [pc, #196]	; (80011d4 <Preparar_Envio_Duplo+0x154>)
 8001110:	681b      	ldr	r3, [r3, #0]
 8001112:	4a31      	ldr	r2, [pc, #196]	; (80011d8 <Preparar_Envio_Duplo+0x158>)
 8001114:	f932 1013 	ldrsh.w	r1, [r2, r3, lsl #1]
 8001118:	4b2a      	ldr	r3, [pc, #168]	; (80011c4 <Preparar_Envio_Duplo+0x144>)
 800111a:	881b      	ldrh	r3, [r3, #0]
 800111c:	461a      	mov	r2, r3
 800111e:	4b2a      	ldr	r3, [pc, #168]	; (80011c8 <Preparar_Envio_Duplo+0x148>)
 8001120:	881b      	ldrh	r3, [r3, #0]
 8001122:	4413      	add	r3, r2
 8001124:	4a29      	ldr	r2, [pc, #164]	; (80011cc <Preparar_Envio_Duplo+0x14c>)
 8001126:	7812      	ldrb	r2, [r2, #0]
 8001128:	4614      	mov	r4, r2
 800112a:	b2c8      	uxtb	r0, r1
 800112c:	4a2b      	ldr	r2, [pc, #172]	; (80011dc <Preparar_Envio_Duplo+0x15c>)
 800112e:	2162      	movs	r1, #98	; 0x62
 8001130:	fb01 f303 	mul.w	r3, r1, r3
 8001134:	4413      	add	r3, r2
 8001136:	4423      	add	r3, r4
 8001138:	4602      	mov	r2, r0
 800113a:	701a      	strb	r2, [r3, #0]
		tx_buffer[num_pacote+num_pacote2][bytes_pacote+1] = (data_acceleration[I] >> 8);
 800113c:	4b25      	ldr	r3, [pc, #148]	; (80011d4 <Preparar_Envio_Duplo+0x154>)
 800113e:	681b      	ldr	r3, [r3, #0]
 8001140:	4a25      	ldr	r2, [pc, #148]	; (80011d8 <Preparar_Envio_Duplo+0x158>)
 8001142:	f932 3013 	ldrsh.w	r3, [r2, r3, lsl #1]
 8001146:	121b      	asrs	r3, r3, #8
 8001148:	b219      	sxth	r1, r3
 800114a:	4b1e      	ldr	r3, [pc, #120]	; (80011c4 <Preparar_Envio_Duplo+0x144>)
 800114c:	881b      	ldrh	r3, [r3, #0]
 800114e:	461a      	mov	r2, r3
 8001150:	4b1d      	ldr	r3, [pc, #116]	; (80011c8 <Preparar_Envio_Duplo+0x148>)
 8001152:	881b      	ldrh	r3, [r3, #0]
 8001154:	441a      	add	r2, r3
 8001156:	4b1d      	ldr	r3, [pc, #116]	; (80011cc <Preparar_Envio_Duplo+0x14c>)
 8001158:	781b      	ldrb	r3, [r3, #0]
 800115a:	3301      	adds	r3, #1
 800115c:	b2cc      	uxtb	r4, r1
 800115e:	491f      	ldr	r1, [pc, #124]	; (80011dc <Preparar_Envio_Duplo+0x15c>)
 8001160:	2062      	movs	r0, #98	; 0x62
 8001162:	fb00 f202 	mul.w	r2, r0, r2
 8001166:	440a      	add	r2, r1
 8001168:	4413      	add	r3, r2
 800116a:	4622      	mov	r2, r4
 800116c:	701a      	strb	r2, [r3, #0]
		bytes_pacote += 2;
 800116e:	4b17      	ldr	r3, [pc, #92]	; (80011cc <Preparar_Envio_Duplo+0x14c>)
 8001170:	781b      	ldrb	r3, [r3, #0]
 8001172:	3302      	adds	r3, #2
 8001174:	b2da      	uxtb	r2, r3
 8001176:	4b15      	ldr	r3, [pc, #84]	; (80011cc <Preparar_Envio_Duplo+0x14c>)
 8001178:	701a      	strb	r2, [r3, #0]
		if (bytes_pacote >= QTD_BYTES_RF)
 800117a:	4b14      	ldr	r3, [pc, #80]	; (80011cc <Preparar_Envio_Duplo+0x14c>)
 800117c:	781b      	ldrb	r3, [r3, #0]
 800117e:	2b5d      	cmp	r3, #93	; 0x5d
 8001180:	d908      	bls.n	8001194 <Preparar_Envio_Duplo+0x114>
		{
			bytes_pacote = 0;
 8001182:	4b12      	ldr	r3, [pc, #72]	; (80011cc <Preparar_Envio_Duplo+0x14c>)
 8001184:	2200      	movs	r2, #0
 8001186:	701a      	strb	r2, [r3, #0]
			num_pacote++;
 8001188:	4b0e      	ldr	r3, [pc, #56]	; (80011c4 <Preparar_Envio_Duplo+0x144>)
 800118a:	881b      	ldrh	r3, [r3, #0]
 800118c:	3301      	adds	r3, #1
 800118e:	b29a      	uxth	r2, r3
 8001190:	4b0c      	ldr	r3, [pc, #48]	; (80011c4 <Preparar_Envio_Duplo+0x144>)
 8001192:	801a      	strh	r2, [r3, #0]
		}
		//================================================================================
		if (num_pacote > (NUM_DE_PACOTES/2))
 8001194:	4b0b      	ldr	r3, [pc, #44]	; (80011c4 <Preparar_Envio_Duplo+0x144>)
 8001196:	881b      	ldrh	r3, [r3, #0]
 8001198:	2b85      	cmp	r3, #133	; 0x85
 800119a:	d901      	bls.n	80011a0 <Preparar_Envio_Duplo+0x120>
		{
			asm("NOP");
 800119c:	bf00      	nop
			break;
 800119e:	e00b      	b.n	80011b8 <Preparar_Envio_Duplo+0x138>
	for (I = 0; I < (NUM_DE_COLETAS/2); I++)
 80011a0:	4b0c      	ldr	r3, [pc, #48]	; (80011d4 <Preparar_Envio_Duplo+0x154>)
 80011a2:	681b      	ldr	r3, [r3, #0]
 80011a4:	3301      	adds	r3, #1
 80011a6:	4a0b      	ldr	r2, [pc, #44]	; (80011d4 <Preparar_Envio_Duplo+0x154>)
 80011a8:	6013      	str	r3, [r2, #0]
 80011aa:	4b0a      	ldr	r3, [pc, #40]	; (80011d4 <Preparar_Envio_Duplo+0x154>)
 80011ac:	681b      	ldr	r3, [r3, #0]
 80011ae:	f641 026a 	movw	r2, #6250	; 0x186a
 80011b2:	4293      	cmp	r3, r2
 80011b4:	f77f af76 	ble.w	80010a4 <Preparar_Envio_Duplo+0x24>
		}
	}
	asm("NOP");
 80011b8:	bf00      	nop
}
 80011ba:	bf00      	nop
 80011bc:	46bd      	mov	sp, r7
 80011be:	bc90      	pop	{r4, r7}
 80011c0:	4770      	bx	lr
 80011c2:	bf00      	nop
 80011c4:	2000718c 	.word	0x2000718c
 80011c8:	20013848 	.word	0x20013848
 80011cc:	2000d541 	.word	0x2000d541
 80011d0:	200004f8 	.word	0x200004f8
 80011d4:	2000d5b4 	.word	0x2000d5b4
 80011d8:	2000d5d4 	.word	0x2000d5d4
 80011dc:	20000968 	.word	0x20000968

080011e0 <delay_ms>:
void delay_ms (uint16_t delay_ms)
{
 80011e0:	b480      	push	{r7}
 80011e2:	b083      	sub	sp, #12
 80011e4:	af00      	add	r7, sp, #0
 80011e6:	4603      	mov	r3, r0
 80011e8:	80fb      	strh	r3, [r7, #6]
	time_daley_ms = delay_ms;
 80011ea:	f9b7 2006 	ldrsh.w	r2, [r7, #6]
 80011ee:	4b07      	ldr	r3, [pc, #28]	; (800120c <delay_ms+0x2c>)
 80011f0:	801a      	strh	r2, [r3, #0]
	while (time_daley_ms)
 80011f2:	bf00      	nop
 80011f4:	4b05      	ldr	r3, [pc, #20]	; (800120c <delay_ms+0x2c>)
 80011f6:	f9b3 3000 	ldrsh.w	r3, [r3]
 80011fa:	2b00      	cmp	r3, #0
 80011fc:	d1fa      	bne.n	80011f4 <delay_ms+0x14>
	{

	}
}
 80011fe:	bf00      	nop
 8001200:	bf00      	nop
 8001202:	370c      	adds	r7, #12
 8001204:	46bd      	mov	sp, r7
 8001206:	f85d 7b04 	ldr.w	r7, [sp], #4
 800120a:	4770      	bx	lr
 800120c:	2000d53c 	.word	0x2000d53c

08001210 <iis3dwb_read_data_polling>:
static void platform_delay (uint32_t ms);

stmdev_ctx_t dev_ctx;

void iis3dwb_read_data_polling (void)
{
 8001210:	b580      	push	{r7, lr}
 8001212:	b084      	sub	sp, #16
 8001214:	af00      	add	r7, sp, #0
	uint32_t aux_id;
	uint16_t aux_dif1;
	uint16_t aux_I1;
	int16_t aux_data_ACC1;

	if (!inicializar_iis3dwb)
 8001216:	4ba7      	ldr	r3, [pc, #668]	; (80014b4 <iis3dwb_read_data_polling+0x2a4>)
 8001218:	781b      	ldrb	r3, [r3, #0]
 800121a:	2b00      	cmp	r3, #0
 800121c:	f040 82e3 	bne.w	80017e6 <iis3dwb_read_data_polling+0x5d6>
	{// Leitura do acelerômetro
		if (!leu_temp)
 8001220:	4ba5      	ldr	r3, [pc, #660]	; (80014b8 <iis3dwb_read_data_polling+0x2a8>)
 8001222:	781b      	ldrb	r3, [r3, #0]
 8001224:	2b00      	cmp	r3, #0
 8001226:	d12c      	bne.n	8001282 <iis3dwb_read_data_polling+0x72>
		{
			//===============================================================================================
			//***********************************************************************************************
			// Leitura da temperatura do acelerômetro
			//***********************************************************************************************
			iis3dwb_temp_flag_data_ready_get (&dev_ctx, &reg);
 8001228:	1d7b      	adds	r3, r7, #5
 800122a:	4619      	mov	r1, r3
 800122c:	48a3      	ldr	r0, [pc, #652]	; (80014bc <iis3dwb_read_data_polling+0x2ac>)
 800122e:	f000 fcd9 	bl	8001be4 <iis3dwb_temp_flag_data_ready_get>
			if (reg)
 8001232:	797b      	ldrb	r3, [r7, #5]
 8001234:	2b00      	cmp	r3, #0
 8001236:	f000 8328 	beq.w	800188a <iis3dwb_read_data_polling+0x67a>
			{
				// Read temperature data
				PWM_ACC();
 800123a:	f44f 7100 	mov.w	r1, #512	; 0x200
 800123e:	f04f 4090 	mov.w	r0, #1207959552	; 0x48000000
 8001242:	f005 feb3 	bl	8006fac <HAL_GPIO_TogglePin>
 8001246:	4b9e      	ldr	r3, [pc, #632]	; (80014c0 <iis3dwb_read_data_polling+0x2b0>)
 8001248:	2200      	movs	r2, #0
 800124a:	801a      	strh	r2, [r3, #0]
				memset (&data_raw_temperature, 0x00, sizeof(int16_t));
				iis3dwb_temperature_raw_get (&dev_ctx, &data_raw_temperature);
 800124c:	499c      	ldr	r1, [pc, #624]	; (80014c0 <iis3dwb_read_data_polling+0x2b0>)
 800124e:	489b      	ldr	r0, [pc, #620]	; (80014bc <iis3dwb_read_data_polling+0x2ac>)
 8001250:	f000 fce1 	bl	8001c16 <iis3dwb_temperature_raw_get>
				Valor_Temp = (int16_t)((iis3dwb_from_lsb_to_celsius (data_raw_temperature))*10);
 8001254:	4b9a      	ldr	r3, [pc, #616]	; (80014c0 <iis3dwb_read_data_polling+0x2b0>)
 8001256:	f9b3 3000 	ldrsh.w	r3, [r3]
 800125a:	4618      	mov	r0, r3
 800125c:	f000 fbd6 	bl	8001a0c <iis3dwb_from_lsb_to_celsius>
 8001260:	eef0 7a40 	vmov.f32	s15, s0
 8001264:	eeb2 7a04 	vmov.f32	s14, #36	; 0x41200000  10.0
 8001268:	ee67 7a87 	vmul.f32	s15, s15, s14
 800126c:	eefd 7ae7 	vcvt.s32.f32	s15, s15
 8001270:	ee17 3a90 	vmov	r3, s15
 8001274:	b21a      	sxth	r2, r3
 8001276:	4b93      	ldr	r3, [pc, #588]	; (80014c4 <iis3dwb_read_data_polling+0x2b4>)
 8001278:	801a      	strh	r2, [r3, #0]
				leu_temp = 1;
 800127a:	4b8f      	ldr	r3, [pc, #572]	; (80014b8 <iis3dwb_read_data_polling+0x2a8>)
 800127c:	2201      	movs	r2, #1
 800127e:	701a      	strb	r2, [r3, #0]
			if (inicializar_iis3dwb) inicializar_iis3dwb--;
		}
		tttc_conf_Acc++;
		//=========================================================================================
	}
}
 8001280:	e303      	b.n	800188a <iis3dwb_read_data_polling+0x67a>
			tempo_total = 0;
 8001282:	4b91      	ldr	r3, [pc, #580]	; (80014c8 <iis3dwb_read_data_polling+0x2b8>)
 8001284:	2200      	movs	r2, #0
 8001286:	601a      	str	r2, [r3, #0]
			pointerToMemory = 0;
 8001288:	4b90      	ldr	r3, [pc, #576]	; (80014cc <iis3dwb_read_data_polling+0x2bc>)
 800128a:	2200      	movs	r2, #0
 800128c:	601a      	str	r2, [r3, #0]
			if (qual_eixo > 2)
 800128e:	4b90      	ldr	r3, [pc, #576]	; (80014d0 <iis3dwb_read_data_polling+0x2c0>)
 8001290:	781b      	ldrb	r3, [r3, #0]
 8001292:	2b02      	cmp	r3, #2
 8001294:	d902      	bls.n	800129c <iis3dwb_read_data_polling+0x8c>
				qual_eixo = 2;
 8001296:	4b8e      	ldr	r3, [pc, #568]	; (80014d0 <iis3dwb_read_data_polling+0x2c0>)
 8001298:	2202      	movs	r2, #2
 800129a:	701a      	strb	r2, [r3, #0]
			time_desprezar = DESPREZAR_LEIT_ACC;
 800129c:	4b8d      	ldr	r3, [pc, #564]	; (80014d4 <iis3dwb_read_data_polling+0x2c4>)
 800129e:	2228      	movs	r2, #40	; 0x28
 80012a0:	801a      	strh	r2, [r3, #0]
			while (time_desprezar)
 80012a2:	e011      	b.n	80012c8 <iis3dwb_read_data_polling+0xb8>
				iis3dwb_xl_flag_data_ready_get (&dev_ctx, &reg);
 80012a4:	1d7b      	adds	r3, r7, #5
 80012a6:	4619      	mov	r1, r3
 80012a8:	4884      	ldr	r0, [pc, #528]	; (80014bc <iis3dwb_read_data_polling+0x2ac>)
 80012aa:	f000 fc82 	bl	8001bb2 <iis3dwb_xl_flag_data_ready_get>
				if (reg)
 80012ae:	797b      	ldrb	r3, [r7, #5]
 80012b0:	2b00      	cmp	r3, #0
 80012b2:	d009      	beq.n	80012c8 <iis3dwb_read_data_polling+0xb8>
					PWM_ACC();
 80012b4:	f44f 7100 	mov.w	r1, #512	; 0x200
 80012b8:	f04f 4090 	mov.w	r0, #1207959552	; 0x48000000
 80012bc:	f005 fe76 	bl	8006fac <HAL_GPIO_TogglePin>
					iis3dwb_acceleration_raw_get (&dev_ctx, &accel);
 80012c0:	4985      	ldr	r1, [pc, #532]	; (80014d8 <iis3dwb_read_data_polling+0x2c8>)
 80012c2:	487e      	ldr	r0, [pc, #504]	; (80014bc <iis3dwb_read_data_polling+0x2ac>)
 80012c4:	f000 fcca 	bl	8001c5c <iis3dwb_acceleration_raw_get>
			while (time_desprezar)
 80012c8:	4b82      	ldr	r3, [pc, #520]	; (80014d4 <iis3dwb_read_data_polling+0x2c4>)
 80012ca:	881b      	ldrh	r3, [r3, #0]
 80012cc:	2b00      	cmp	r3, #0
 80012ce:	d1e9      	bne.n	80012a4 <iis3dwb_read_data_polling+0x94>
			pointerToMemory = 0;
 80012d0:	4b7e      	ldr	r3, [pc, #504]	; (80014cc <iis3dwb_read_data_polling+0x2bc>)
 80012d2:	2200      	movs	r2, #0
 80012d4:	601a      	str	r2, [r3, #0]
			time_out_Acc = ((TEMPO_CAPTURA*tickseg)/1000); // tempo de leitura do sensor 16G
 80012d6:	4b81      	ldr	r3, [pc, #516]	; (80014dc <iis3dwb_read_data_polling+0x2cc>)
 80012d8:	2228      	movs	r2, #40	; 0x28
 80012da:	801a      	strh	r2, [r3, #0]
			tempo_total = 0;
 80012dc:	4b7a      	ldr	r3, [pc, #488]	; (80014c8 <iis3dwb_read_data_polling+0x2b8>)
 80012de:	2200      	movs	r2, #0
 80012e0:	601a      	str	r2, [r3, #0]
			while (time_out_Acc)
 80012e2:	e024      	b.n	800132e <iis3dwb_read_data_polling+0x11e>
				iis3dwb_xl_flag_data_ready_get (&dev_ctx, &reg);
 80012e4:	1d7b      	adds	r3, r7, #5
 80012e6:	4619      	mov	r1, r3
 80012e8:	4874      	ldr	r0, [pc, #464]	; (80014bc <iis3dwb_read_data_polling+0x2ac>)
 80012ea:	f000 fc62 	bl	8001bb2 <iis3dwb_xl_flag_data_ready_get>
				if (reg)
 80012ee:	797b      	ldrb	r3, [r7, #5]
 80012f0:	2b00      	cmp	r3, #0
 80012f2:	d01c      	beq.n	800132e <iis3dwb_read_data_polling+0x11e>
					PWM_ACC();
 80012f4:	f44f 7100 	mov.w	r1, #512	; 0x200
 80012f8:	f04f 4090 	mov.w	r0, #1207959552	; 0x48000000
 80012fc:	f005 fe56 	bl	8006fac <HAL_GPIO_TogglePin>
					iis3dwb_acceleration_raw_get (&dev_ctx, &accel);
 8001300:	4975      	ldr	r1, [pc, #468]	; (80014d8 <iis3dwb_read_data_polling+0x2c8>)
 8001302:	486e      	ldr	r0, [pc, #440]	; (80014bc <iis3dwb_read_data_polling+0x2ac>)
 8001304:	f000 fcaa 	bl	8001c5c <iis3dwb_acceleration_raw_get>
					data_raw_acceleration[pointerToMemory] = accel;
 8001308:	4b70      	ldr	r3, [pc, #448]	; (80014cc <iis3dwb_read_data_polling+0x2bc>)
 800130a:	681b      	ldr	r3, [r3, #0]
 800130c:	4a72      	ldr	r2, [pc, #456]	; (80014d8 <iis3dwb_read_data_polling+0x2c8>)
 800130e:	f9b2 1000 	ldrsh.w	r1, [r2]
 8001312:	4a73      	ldr	r2, [pc, #460]	; (80014e0 <iis3dwb_read_data_polling+0x2d0>)
 8001314:	f822 1013 	strh.w	r1, [r2, r3, lsl #1]
					if (pointerToMemory < NUM_DE_COLETAS)
 8001318:	4b6c      	ldr	r3, [pc, #432]	; (80014cc <iis3dwb_read_data_polling+0x2bc>)
 800131a:	681b      	ldr	r3, [r3, #0]
 800131c:	f243 02d5 	movw	r2, #12501	; 0x30d5
 8001320:	4293      	cmp	r3, r2
 8001322:	d809      	bhi.n	8001338 <iis3dwb_read_data_polling+0x128>
						pointerToMemory++;
 8001324:	4b69      	ldr	r3, [pc, #420]	; (80014cc <iis3dwb_read_data_polling+0x2bc>)
 8001326:	681b      	ldr	r3, [r3, #0]
 8001328:	3301      	adds	r3, #1
 800132a:	4a68      	ldr	r2, [pc, #416]	; (80014cc <iis3dwb_read_data_polling+0x2bc>)
 800132c:	6013      	str	r3, [r2, #0]
			while (time_out_Acc)
 800132e:	4b6b      	ldr	r3, [pc, #428]	; (80014dc <iis3dwb_read_data_polling+0x2cc>)
 8001330:	881b      	ldrh	r3, [r3, #0]
 8001332:	2b00      	cmp	r3, #0
 8001334:	d1d6      	bne.n	80012e4 <iis3dwb_read_data_polling+0xd4>
 8001336:	e000      	b.n	800133a <iis3dwb_read_data_polling+0x12a>
						break;
 8001338:	bf00      	nop
			tempo_decorrido = tempo_total*(1000/tickseg); // tempo decorrido para coletar NUM_DE_COLETAS
 800133a:	4b63      	ldr	r3, [pc, #396]	; (80014c8 <iis3dwb_read_data_polling+0x2b8>)
 800133c:	681a      	ldr	r2, [r3, #0]
 800133e:	4613      	mov	r3, r2
 8001340:	009b      	lsls	r3, r3, #2
 8001342:	4413      	add	r3, r2
 8001344:	009a      	lsls	r2, r3, #2
 8001346:	4413      	add	r3, r2
 8001348:	4a66      	ldr	r2, [pc, #408]	; (80014e4 <iis3dwb_read_data_polling+0x2d4>)
 800134a:	6013      	str	r3, [r2, #0]
			menor_amplitude = 32760;	// +16G  32768-Máximo
 800134c:	4b66      	ldr	r3, [pc, #408]	; (80014e8 <iis3dwb_read_data_polling+0x2d8>)
 800134e:	f647 72f8 	movw	r2, #32760	; 0x7ff8
 8001352:	801a      	strh	r2, [r3, #0]
			maior_amplitude = -32760;	// -16G -32768-Mínimo
 8001354:	4b65      	ldr	r3, [pc, #404]	; (80014ec <iis3dwb_read_data_polling+0x2dc>)
 8001356:	f248 0208 	movw	r2, #32776	; 0x8008
 800135a:	801a      	strh	r2, [r3, #0]
			for (I = 0; I < pointerToMemory; I++)
 800135c:	4b64      	ldr	r3, [pc, #400]	; (80014f0 <iis3dwb_read_data_polling+0x2e0>)
 800135e:	2200      	movs	r2, #0
 8001360:	601a      	str	r2, [r3, #0]
 8001362:	e04d      	b.n	8001400 <iis3dwb_read_data_polling+0x1f0>
				if ((data_raw_acceleration[I] > 32760) || (data_raw_acceleration[I] < (-32760)))
 8001364:	4b62      	ldr	r3, [pc, #392]	; (80014f0 <iis3dwb_read_data_polling+0x2e0>)
 8001366:	681b      	ldr	r3, [r3, #0]
 8001368:	4a5d      	ldr	r2, [pc, #372]	; (80014e0 <iis3dwb_read_data_polling+0x2d0>)
 800136a:	f932 3013 	ldrsh.w	r3, [r2, r3, lsl #1]
 800136e:	f647 72f8 	movw	r2, #32760	; 0x7ff8
 8001372:	4293      	cmp	r3, r2
 8001374:	dc07      	bgt.n	8001386 <iis3dwb_read_data_polling+0x176>
 8001376:	4b5e      	ldr	r3, [pc, #376]	; (80014f0 <iis3dwb_read_data_polling+0x2e0>)
 8001378:	681b      	ldr	r3, [r3, #0]
 800137a:	4a59      	ldr	r2, [pc, #356]	; (80014e0 <iis3dwb_read_data_polling+0x2d0>)
 800137c:	f932 3013 	ldrsh.w	r3, [r2, r3, lsl #1]
 8001380:	4a5c      	ldr	r2, [pc, #368]	; (80014f4 <iis3dwb_read_data_polling+0x2e4>)
 8001382:	4293      	cmp	r3, r2
 8001384:	da15      	bge.n	80013b2 <iis3dwb_read_data_polling+0x1a2>
					if (I)
 8001386:	4b5a      	ldr	r3, [pc, #360]	; (80014f0 <iis3dwb_read_data_polling+0x2e0>)
 8001388:	681b      	ldr	r3, [r3, #0]
 800138a:	2b00      	cmp	r3, #0
 800138c:	d00b      	beq.n	80013a6 <iis3dwb_read_data_polling+0x196>
						data_raw_acceleration[I] = data_raw_acceleration[I-1];
 800138e:	4b58      	ldr	r3, [pc, #352]	; (80014f0 <iis3dwb_read_data_polling+0x2e0>)
 8001390:	681b      	ldr	r3, [r3, #0]
 8001392:	1e5a      	subs	r2, r3, #1
 8001394:	4b56      	ldr	r3, [pc, #344]	; (80014f0 <iis3dwb_read_data_polling+0x2e0>)
 8001396:	681b      	ldr	r3, [r3, #0]
 8001398:	4951      	ldr	r1, [pc, #324]	; (80014e0 <iis3dwb_read_data_polling+0x2d0>)
 800139a:	f931 1012 	ldrsh.w	r1, [r1, r2, lsl #1]
 800139e:	4a50      	ldr	r2, [pc, #320]	; (80014e0 <iis3dwb_read_data_polling+0x2d0>)
 80013a0:	f822 1013 	strh.w	r1, [r2, r3, lsl #1]
 80013a4:	e005      	b.n	80013b2 <iis3dwb_read_data_polling+0x1a2>
						data_raw_acceleration[I] = 0;
 80013a6:	4b52      	ldr	r3, [pc, #328]	; (80014f0 <iis3dwb_read_data_polling+0x2e0>)
 80013a8:	681b      	ldr	r3, [r3, #0]
 80013aa:	4a4d      	ldr	r2, [pc, #308]	; (80014e0 <iis3dwb_read_data_polling+0x2d0>)
 80013ac:	2100      	movs	r1, #0
 80013ae:	f822 1013 	strh.w	r1, [r2, r3, lsl #1]
				if (data_raw_acceleration[I] < menor_amplitude)
 80013b2:	4b4f      	ldr	r3, [pc, #316]	; (80014f0 <iis3dwb_read_data_polling+0x2e0>)
 80013b4:	681b      	ldr	r3, [r3, #0]
 80013b6:	4a4a      	ldr	r2, [pc, #296]	; (80014e0 <iis3dwb_read_data_polling+0x2d0>)
 80013b8:	f932 2013 	ldrsh.w	r2, [r2, r3, lsl #1]
 80013bc:	4b4a      	ldr	r3, [pc, #296]	; (80014e8 <iis3dwb_read_data_polling+0x2d8>)
 80013be:	f9b3 3000 	ldrsh.w	r3, [r3]
 80013c2:	429a      	cmp	r2, r3
 80013c4:	da06      	bge.n	80013d4 <iis3dwb_read_data_polling+0x1c4>
					menor_amplitude = data_raw_acceleration[I];
 80013c6:	4b4a      	ldr	r3, [pc, #296]	; (80014f0 <iis3dwb_read_data_polling+0x2e0>)
 80013c8:	681b      	ldr	r3, [r3, #0]
 80013ca:	4a45      	ldr	r2, [pc, #276]	; (80014e0 <iis3dwb_read_data_polling+0x2d0>)
 80013cc:	f932 2013 	ldrsh.w	r2, [r2, r3, lsl #1]
 80013d0:	4b45      	ldr	r3, [pc, #276]	; (80014e8 <iis3dwb_read_data_polling+0x2d8>)
 80013d2:	801a      	strh	r2, [r3, #0]
				if (data_raw_acceleration[I] > maior_amplitude)
 80013d4:	4b46      	ldr	r3, [pc, #280]	; (80014f0 <iis3dwb_read_data_polling+0x2e0>)
 80013d6:	681b      	ldr	r3, [r3, #0]
 80013d8:	4a41      	ldr	r2, [pc, #260]	; (80014e0 <iis3dwb_read_data_polling+0x2d0>)
 80013da:	f932 2013 	ldrsh.w	r2, [r2, r3, lsl #1]
 80013de:	4b43      	ldr	r3, [pc, #268]	; (80014ec <iis3dwb_read_data_polling+0x2dc>)
 80013e0:	f9b3 3000 	ldrsh.w	r3, [r3]
 80013e4:	429a      	cmp	r2, r3
 80013e6:	dd06      	ble.n	80013f6 <iis3dwb_read_data_polling+0x1e6>
					maior_amplitude = data_raw_acceleration[I];
 80013e8:	4b41      	ldr	r3, [pc, #260]	; (80014f0 <iis3dwb_read_data_polling+0x2e0>)
 80013ea:	681b      	ldr	r3, [r3, #0]
 80013ec:	4a3c      	ldr	r2, [pc, #240]	; (80014e0 <iis3dwb_read_data_polling+0x2d0>)
 80013ee:	f932 2013 	ldrsh.w	r2, [r2, r3, lsl #1]
 80013f2:	4b3e      	ldr	r3, [pc, #248]	; (80014ec <iis3dwb_read_data_polling+0x2dc>)
 80013f4:	801a      	strh	r2, [r3, #0]
			for (I = 0; I < pointerToMemory; I++)
 80013f6:	4b3e      	ldr	r3, [pc, #248]	; (80014f0 <iis3dwb_read_data_polling+0x2e0>)
 80013f8:	681b      	ldr	r3, [r3, #0]
 80013fa:	3301      	adds	r3, #1
 80013fc:	4a3c      	ldr	r2, [pc, #240]	; (80014f0 <iis3dwb_read_data_polling+0x2e0>)
 80013fe:	6013      	str	r3, [r2, #0]
 8001400:	4b3b      	ldr	r3, [pc, #236]	; (80014f0 <iis3dwb_read_data_polling+0x2e0>)
 8001402:	681b      	ldr	r3, [r3, #0]
 8001404:	461a      	mov	r2, r3
 8001406:	4b31      	ldr	r3, [pc, #196]	; (80014cc <iis3dwb_read_data_polling+0x2bc>)
 8001408:	681b      	ldr	r3, [r3, #0]
 800140a:	429a      	cmp	r2, r3
 800140c:	d3aa      	bcc.n	8001364 <iis3dwb_read_data_polling+0x154>
			aux_dif1 = 0;
 800140e:	2300      	movs	r3, #0
 8001410:	817b      	strh	r3, [r7, #10]
			aux_I1 = 0;
 8001412:	2300      	movs	r3, #0
 8001414:	813b      	strh	r3, [r7, #8]
			case_tx = TIPO_ENVIO;
 8001416:	4b38      	ldr	r3, [pc, #224]	; (80014f8 <iis3dwb_read_data_polling+0x2e8>)
 8001418:	2200      	movs	r2, #0
 800141a:	701a      	strb	r2, [r3, #0]
			switch (case_tx)
 800141c:	4b36      	ldr	r3, [pc, #216]	; (80014f8 <iis3dwb_read_data_polling+0x2e8>)
 800141e:	781b      	ldrb	r3, [r3, #0]
 8001420:	2b01      	cmp	r3, #1
 8001422:	d017      	beq.n	8001454 <iis3dwb_read_data_polling+0x244>
 8001424:	2b02      	cmp	r3, #2
 8001426:	d02b      	beq.n	8001480 <iis3dwb_read_data_polling+0x270>
				aux_dif1 = (NUM_DE_COLETAS - pointerToMemory);
 8001428:	4b28      	ldr	r3, [pc, #160]	; (80014cc <iis3dwb_read_data_polling+0x2bc>)
 800142a:	681b      	ldr	r3, [r3, #0]
 800142c:	b29b      	uxth	r3, r3
 800142e:	f5c3 5343 	rsb	r3, r3, #12480	; 0x30c0
 8001432:	3316      	adds	r3, #22
 8001434:	817b      	strh	r3, [r7, #10]
				if (aux_dif1 < NUM_DE_COLETAS/4)
 8001436:	897b      	ldrh	r3, [r7, #10]
 8001438:	f640 4234 	movw	r2, #3124	; 0xc34
 800143c:	4293      	cmp	r3, r2
 800143e:	d835      	bhi.n	80014ac <iis3dwb_read_data_polling+0x29c>
					if (aux_dif1 > 0)
 8001440:	897b      	ldrh	r3, [r7, #10]
 8001442:	2b00      	cmp	r3, #0
 8001444:	d032      	beq.n	80014ac <iis3dwb_read_data_polling+0x29c>
						aux_I1 = (NUM_DE_COLETAS/aux_dif1);// Periodo
 8001446:	897b      	ldrh	r3, [r7, #10]
 8001448:	f243 02d6 	movw	r2, #12502	; 0x30d6
 800144c:	fb92 f3f3 	sdiv	r3, r2, r3
 8001450:	813b      	strh	r3, [r7, #8]
				break;
 8001452:	e02b      	b.n	80014ac <iis3dwb_read_data_polling+0x29c>
				aux_dif1 = ((NUM_DE_COLETAS/2) - pointerToMemory);
 8001454:	4b1d      	ldr	r3, [pc, #116]	; (80014cc <iis3dwb_read_data_polling+0x2bc>)
 8001456:	681b      	ldr	r3, [r3, #0]
 8001458:	b29b      	uxth	r3, r3
 800145a:	f5c3 53c3 	rsb	r3, r3, #6240	; 0x1860
 800145e:	330b      	adds	r3, #11
 8001460:	817b      	strh	r3, [r7, #10]
				if (aux_dif1 < NUM_DE_COLETAS/4)
 8001462:	897b      	ldrh	r3, [r7, #10]
 8001464:	f640 4234 	movw	r2, #3124	; 0xc34
 8001468:	4293      	cmp	r3, r2
 800146a:	d821      	bhi.n	80014b0 <iis3dwb_read_data_polling+0x2a0>
					if (aux_dif1 > 0)
 800146c:	897b      	ldrh	r3, [r7, #10]
 800146e:	2b00      	cmp	r3, #0
 8001470:	d01e      	beq.n	80014b0 <iis3dwb_read_data_polling+0x2a0>
						aux_I1 = ((NUM_DE_COLETAS/2)/aux_dif1);// Periodo
 8001472:	897b      	ldrh	r3, [r7, #10]
 8001474:	f641 026b 	movw	r2, #6251	; 0x186b
 8001478:	fb92 f3f3 	sdiv	r3, r2, r3
 800147c:	813b      	strh	r3, [r7, #8]
				break;
 800147e:	e017      	b.n	80014b0 <iis3dwb_read_data_polling+0x2a0>
				aux_dif1 = ((NUM_DE_COLETAS/2) - pointerToMemory);
 8001480:	4b12      	ldr	r3, [pc, #72]	; (80014cc <iis3dwb_read_data_polling+0x2bc>)
 8001482:	681b      	ldr	r3, [r3, #0]
 8001484:	b29b      	uxth	r3, r3
 8001486:	f5c3 53c3 	rsb	r3, r3, #6240	; 0x1860
 800148a:	330b      	adds	r3, #11
 800148c:	817b      	strh	r3, [r7, #10]
				if (aux_dif1 < NUM_DE_COLETAS/4)
 800148e:	897b      	ldrh	r3, [r7, #10]
 8001490:	f640 4234 	movw	r2, #3124	; 0xc34
 8001494:	4293      	cmp	r3, r2
 8001496:	d831      	bhi.n	80014fc <iis3dwb_read_data_polling+0x2ec>
					if (aux_dif1 > 0)
 8001498:	897b      	ldrh	r3, [r7, #10]
 800149a:	2b00      	cmp	r3, #0
 800149c:	d02e      	beq.n	80014fc <iis3dwb_read_data_polling+0x2ec>
						aux_I1 = ((NUM_DE_COLETAS/2)/aux_dif1);// Periodo
 800149e:	897b      	ldrh	r3, [r7, #10]
 80014a0:	f641 026b 	movw	r2, #6251	; 0x186b
 80014a4:	fb92 f3f3 	sdiv	r3, r2, r3
 80014a8:	813b      	strh	r3, [r7, #8]
				break;
 80014aa:	e027      	b.n	80014fc <iis3dwb_read_data_polling+0x2ec>
				break;
 80014ac:	bf00      	nop
 80014ae:	e026      	b.n	80014fe <iis3dwb_read_data_polling+0x2ee>
				break;
 80014b0:	bf00      	nop
 80014b2:	e024      	b.n	80014fe <iis3dwb_read_data_polling+0x2ee>
 80014b4:	2000058b 	.word	0x2000058b
 80014b8:	2001384a 	.word	0x2001384a
 80014bc:	2001384c 	.word	0x2001384c
 80014c0:	20000258 	.word	0x20000258
 80014c4:	20000568 	.word	0x20000568
 80014c8:	20000964 	.word	0x20000964
 80014cc:	2000d5c4 	.word	0x2000d5c4
 80014d0:	20000588 	.word	0x20000588
 80014d4:	20000574 	.word	0x20000574
 80014d8:	2000056e 	.word	0x2000056e
 80014dc:	2000718e 	.word	0x2000718e
 80014e0:	200072c4 	.word	0x200072c4
 80014e4:	20007190 	.word	0x20007190
 80014e8:	20007194 	.word	0x20007194
 80014ec:	200071b0 	.word	0x200071b0
 80014f0:	2000d5b4 	.word	0x2000d5b4
 80014f4:	ffff8008 	.word	0xffff8008
 80014f8:	20000580 	.word	0x20000580
				break;
 80014fc:	bf00      	nop
			step = aux_I1; // Delta
 80014fe:	4a9d      	ldr	r2, [pc, #628]	; (8001774 <iis3dwb_read_data_polling+0x564>)
 8001500:	893b      	ldrh	r3, [r7, #8]
 8001502:	8013      	strh	r3, [r2, #0]
			I1 = 0;
 8001504:	4b9c      	ldr	r3, [pc, #624]	; (8001778 <iis3dwb_read_data_polling+0x568>)
 8001506:	2200      	movs	r2, #0
 8001508:	601a      	str	r2, [r3, #0]
			for (I = 0; I < NUM_MAX_TRANSM; I++)
 800150a:	4b9c      	ldr	r3, [pc, #624]	; (800177c <iis3dwb_read_data_polling+0x56c>)
 800150c:	2200      	movs	r2, #0
 800150e:	601a      	str	r2, [r3, #0]
 8001510:	e0b7      	b.n	8001682 <iis3dwb_read_data_polling+0x472>
				data_acceleration[I] = data_raw_acceleration[I1];
 8001512:	4b99      	ldr	r3, [pc, #612]	; (8001778 <iis3dwb_read_data_polling+0x568>)
 8001514:	681a      	ldr	r2, [r3, #0]
 8001516:	4b99      	ldr	r3, [pc, #612]	; (800177c <iis3dwb_read_data_polling+0x56c>)
 8001518:	681b      	ldr	r3, [r3, #0]
 800151a:	4999      	ldr	r1, [pc, #612]	; (8001780 <iis3dwb_read_data_polling+0x570>)
 800151c:	f931 1012 	ldrsh.w	r1, [r1, r2, lsl #1]
 8001520:	4a98      	ldr	r2, [pc, #608]	; (8001784 <iis3dwb_read_data_polling+0x574>)
 8001522:	f822 1013 	strh.w	r1, [r2, r3, lsl #1]
				if ((aux_dif1) && (I >= step))
 8001526:	897b      	ldrh	r3, [r7, #10]
 8001528:	2b00      	cmp	r3, #0
 800152a:	f000 80a0 	beq.w	800166e <iis3dwb_read_data_polling+0x45e>
 800152e:	4b91      	ldr	r3, [pc, #580]	; (8001774 <iis3dwb_read_data_polling+0x564>)
 8001530:	881b      	ldrh	r3, [r3, #0]
 8001532:	461a      	mov	r2, r3
 8001534:	4b91      	ldr	r3, [pc, #580]	; (800177c <iis3dwb_read_data_polling+0x56c>)
 8001536:	681b      	ldr	r3, [r3, #0]
 8001538:	429a      	cmp	r2, r3
 800153a:	f300 8098 	bgt.w	800166e <iis3dwb_read_data_polling+0x45e>
					if (data_raw_acceleration[I1] > data_raw_acceleration[I1+1])
 800153e:	4b8e      	ldr	r3, [pc, #568]	; (8001778 <iis3dwb_read_data_polling+0x568>)
 8001540:	681b      	ldr	r3, [r3, #0]
 8001542:	4a8f      	ldr	r2, [pc, #572]	; (8001780 <iis3dwb_read_data_polling+0x570>)
 8001544:	f932 2013 	ldrsh.w	r2, [r2, r3, lsl #1]
 8001548:	4b8b      	ldr	r3, [pc, #556]	; (8001778 <iis3dwb_read_data_polling+0x568>)
 800154a:	681b      	ldr	r3, [r3, #0]
 800154c:	3301      	adds	r3, #1
 800154e:	498c      	ldr	r1, [pc, #560]	; (8001780 <iis3dwb_read_data_polling+0x570>)
 8001550:	f931 3013 	ldrsh.w	r3, [r1, r3, lsl #1]
 8001554:	429a      	cmp	r2, r3
 8001556:	dd3b      	ble.n	80015d0 <iis3dwb_read_data_polling+0x3c0>
						aux_data_ACC1 = (data_raw_acceleration[I1+1] + ((data_raw_acceleration[I1]-data_raw_acceleration[I1+1])/2));
 8001558:	4b87      	ldr	r3, [pc, #540]	; (8001778 <iis3dwb_read_data_polling+0x568>)
 800155a:	681b      	ldr	r3, [r3, #0]
 800155c:	3301      	adds	r3, #1
 800155e:	4a88      	ldr	r2, [pc, #544]	; (8001780 <iis3dwb_read_data_polling+0x570>)
 8001560:	f932 3013 	ldrsh.w	r3, [r2, r3, lsl #1]
 8001564:	b29a      	uxth	r2, r3
 8001566:	4b84      	ldr	r3, [pc, #528]	; (8001778 <iis3dwb_read_data_polling+0x568>)
 8001568:	681b      	ldr	r3, [r3, #0]
 800156a:	4985      	ldr	r1, [pc, #532]	; (8001780 <iis3dwb_read_data_polling+0x570>)
 800156c:	f931 3013 	ldrsh.w	r3, [r1, r3, lsl #1]
 8001570:	4618      	mov	r0, r3
 8001572:	4b81      	ldr	r3, [pc, #516]	; (8001778 <iis3dwb_read_data_polling+0x568>)
 8001574:	681b      	ldr	r3, [r3, #0]
 8001576:	3301      	adds	r3, #1
 8001578:	4981      	ldr	r1, [pc, #516]	; (8001780 <iis3dwb_read_data_polling+0x570>)
 800157a:	f931 3013 	ldrsh.w	r3, [r1, r3, lsl #1]
 800157e:	1ac3      	subs	r3, r0, r3
 8001580:	0fd9      	lsrs	r1, r3, #31
 8001582:	440b      	add	r3, r1
 8001584:	105b      	asrs	r3, r3, #1
 8001586:	b29b      	uxth	r3, r3
 8001588:	4413      	add	r3, r2
 800158a:	b29b      	uxth	r3, r3
 800158c:	80fb      	strh	r3, [r7, #6]
						if (aux_data_ACC1 > data_raw_acceleration[I1]) aux_data_ACC1 = data_raw_acceleration[I1];
 800158e:	4b7a      	ldr	r3, [pc, #488]	; (8001778 <iis3dwb_read_data_polling+0x568>)
 8001590:	681b      	ldr	r3, [r3, #0]
 8001592:	4a7b      	ldr	r2, [pc, #492]	; (8001780 <iis3dwb_read_data_polling+0x570>)
 8001594:	f932 3013 	ldrsh.w	r3, [r2, r3, lsl #1]
 8001598:	f9b7 2006 	ldrsh.w	r2, [r7, #6]
 800159c:	429a      	cmp	r2, r3
 800159e:	dd05      	ble.n	80015ac <iis3dwb_read_data_polling+0x39c>
 80015a0:	4b75      	ldr	r3, [pc, #468]	; (8001778 <iis3dwb_read_data_polling+0x568>)
 80015a2:	681b      	ldr	r3, [r3, #0]
 80015a4:	4a76      	ldr	r2, [pc, #472]	; (8001780 <iis3dwb_read_data_polling+0x570>)
 80015a6:	f832 3013 	ldrh.w	r3, [r2, r3, lsl #1]
 80015aa:	80fb      	strh	r3, [r7, #6]
						if (aux_data_ACC1 < data_raw_acceleration[I1+1]) aux_data_ACC1 = data_raw_acceleration[I1+1];
 80015ac:	4b72      	ldr	r3, [pc, #456]	; (8001778 <iis3dwb_read_data_polling+0x568>)
 80015ae:	681b      	ldr	r3, [r3, #0]
 80015b0:	3301      	adds	r3, #1
 80015b2:	4a73      	ldr	r2, [pc, #460]	; (8001780 <iis3dwb_read_data_polling+0x570>)
 80015b4:	f932 3013 	ldrsh.w	r3, [r2, r3, lsl #1]
 80015b8:	f9b7 2006 	ldrsh.w	r2, [r7, #6]
 80015bc:	429a      	cmp	r2, r3
 80015be:	da41      	bge.n	8001644 <iis3dwb_read_data_polling+0x434>
 80015c0:	4b6d      	ldr	r3, [pc, #436]	; (8001778 <iis3dwb_read_data_polling+0x568>)
 80015c2:	681b      	ldr	r3, [r3, #0]
 80015c4:	3301      	adds	r3, #1
 80015c6:	4a6e      	ldr	r2, [pc, #440]	; (8001780 <iis3dwb_read_data_polling+0x570>)
 80015c8:	f832 3013 	ldrh.w	r3, [r2, r3, lsl #1]
 80015cc:	80fb      	strh	r3, [r7, #6]
 80015ce:	e039      	b.n	8001644 <iis3dwb_read_data_polling+0x434>
						aux_data_ACC1 = (data_raw_acceleration[I1] + ((data_raw_acceleration[I1+1]-data_raw_acceleration[I1])/2));
 80015d0:	4b69      	ldr	r3, [pc, #420]	; (8001778 <iis3dwb_read_data_polling+0x568>)
 80015d2:	681b      	ldr	r3, [r3, #0]
 80015d4:	4a6a      	ldr	r2, [pc, #424]	; (8001780 <iis3dwb_read_data_polling+0x570>)
 80015d6:	f932 3013 	ldrsh.w	r3, [r2, r3, lsl #1]
 80015da:	b29a      	uxth	r2, r3
 80015dc:	4b66      	ldr	r3, [pc, #408]	; (8001778 <iis3dwb_read_data_polling+0x568>)
 80015de:	681b      	ldr	r3, [r3, #0]
 80015e0:	3301      	adds	r3, #1
 80015e2:	4967      	ldr	r1, [pc, #412]	; (8001780 <iis3dwb_read_data_polling+0x570>)
 80015e4:	f931 3013 	ldrsh.w	r3, [r1, r3, lsl #1]
 80015e8:	4618      	mov	r0, r3
 80015ea:	4b63      	ldr	r3, [pc, #396]	; (8001778 <iis3dwb_read_data_polling+0x568>)
 80015ec:	681b      	ldr	r3, [r3, #0]
 80015ee:	4964      	ldr	r1, [pc, #400]	; (8001780 <iis3dwb_read_data_polling+0x570>)
 80015f0:	f931 3013 	ldrsh.w	r3, [r1, r3, lsl #1]
 80015f4:	1ac3      	subs	r3, r0, r3
 80015f6:	0fd9      	lsrs	r1, r3, #31
 80015f8:	440b      	add	r3, r1
 80015fa:	105b      	asrs	r3, r3, #1
 80015fc:	b29b      	uxth	r3, r3
 80015fe:	4413      	add	r3, r2
 8001600:	b29b      	uxth	r3, r3
 8001602:	80fb      	strh	r3, [r7, #6]
						if (aux_data_ACC1 > data_raw_acceleration[I1+1]) aux_data_ACC1 = data_raw_acceleration[I1+1];
 8001604:	4b5c      	ldr	r3, [pc, #368]	; (8001778 <iis3dwb_read_data_polling+0x568>)
 8001606:	681b      	ldr	r3, [r3, #0]
 8001608:	3301      	adds	r3, #1
 800160a:	4a5d      	ldr	r2, [pc, #372]	; (8001780 <iis3dwb_read_data_polling+0x570>)
 800160c:	f932 3013 	ldrsh.w	r3, [r2, r3, lsl #1]
 8001610:	f9b7 2006 	ldrsh.w	r2, [r7, #6]
 8001614:	429a      	cmp	r2, r3
 8001616:	dd06      	ble.n	8001626 <iis3dwb_read_data_polling+0x416>
 8001618:	4b57      	ldr	r3, [pc, #348]	; (8001778 <iis3dwb_read_data_polling+0x568>)
 800161a:	681b      	ldr	r3, [r3, #0]
 800161c:	3301      	adds	r3, #1
 800161e:	4a58      	ldr	r2, [pc, #352]	; (8001780 <iis3dwb_read_data_polling+0x570>)
 8001620:	f832 3013 	ldrh.w	r3, [r2, r3, lsl #1]
 8001624:	80fb      	strh	r3, [r7, #6]
						if (aux_data_ACC1 < data_raw_acceleration[I1]) aux_data_ACC1 = data_raw_acceleration[I1];
 8001626:	4b54      	ldr	r3, [pc, #336]	; (8001778 <iis3dwb_read_data_polling+0x568>)
 8001628:	681b      	ldr	r3, [r3, #0]
 800162a:	4a55      	ldr	r2, [pc, #340]	; (8001780 <iis3dwb_read_data_polling+0x570>)
 800162c:	f932 3013 	ldrsh.w	r3, [r2, r3, lsl #1]
 8001630:	f9b7 2006 	ldrsh.w	r2, [r7, #6]
 8001634:	429a      	cmp	r2, r3
 8001636:	da05      	bge.n	8001644 <iis3dwb_read_data_polling+0x434>
 8001638:	4b4f      	ldr	r3, [pc, #316]	; (8001778 <iis3dwb_read_data_polling+0x568>)
 800163a:	681b      	ldr	r3, [r3, #0]
 800163c:	4a50      	ldr	r2, [pc, #320]	; (8001780 <iis3dwb_read_data_polling+0x570>)
 800163e:	f832 3013 	ldrh.w	r3, [r2, r3, lsl #1]
 8001642:	80fb      	strh	r3, [r7, #6]
					I++;
 8001644:	4b4d      	ldr	r3, [pc, #308]	; (800177c <iis3dwb_read_data_polling+0x56c>)
 8001646:	681b      	ldr	r3, [r3, #0]
 8001648:	3301      	adds	r3, #1
 800164a:	4a4c      	ldr	r2, [pc, #304]	; (800177c <iis3dwb_read_data_polling+0x56c>)
 800164c:	6013      	str	r3, [r2, #0]
					data_acceleration[I] = aux_data_ACC1;
 800164e:	4b4b      	ldr	r3, [pc, #300]	; (800177c <iis3dwb_read_data_polling+0x56c>)
 8001650:	681b      	ldr	r3, [r3, #0]
 8001652:	494c      	ldr	r1, [pc, #304]	; (8001784 <iis3dwb_read_data_polling+0x574>)
 8001654:	88fa      	ldrh	r2, [r7, #6]
 8001656:	f821 2013 	strh.w	r2, [r1, r3, lsl #1]
					step += aux_I1;
 800165a:	4b46      	ldr	r3, [pc, #280]	; (8001774 <iis3dwb_read_data_polling+0x564>)
 800165c:	881a      	ldrh	r2, [r3, #0]
 800165e:	893b      	ldrh	r3, [r7, #8]
 8001660:	4413      	add	r3, r2
 8001662:	b29a      	uxth	r2, r3
 8001664:	4b43      	ldr	r3, [pc, #268]	; (8001774 <iis3dwb_read_data_polling+0x564>)
 8001666:	801a      	strh	r2, [r3, #0]
					aux_dif1--;
 8001668:	897b      	ldrh	r3, [r7, #10]
 800166a:	3b01      	subs	r3, #1
 800166c:	817b      	strh	r3, [r7, #10]
				I1++;
 800166e:	4b42      	ldr	r3, [pc, #264]	; (8001778 <iis3dwb_read_data_polling+0x568>)
 8001670:	681b      	ldr	r3, [r3, #0]
 8001672:	3301      	adds	r3, #1
 8001674:	4a40      	ldr	r2, [pc, #256]	; (8001778 <iis3dwb_read_data_polling+0x568>)
 8001676:	6013      	str	r3, [r2, #0]
			for (I = 0; I < NUM_MAX_TRANSM; I++)
 8001678:	4b40      	ldr	r3, [pc, #256]	; (800177c <iis3dwb_read_data_polling+0x56c>)
 800167a:	681b      	ldr	r3, [r3, #0]
 800167c:	3301      	adds	r3, #1
 800167e:	4a3f      	ldr	r2, [pc, #252]	; (800177c <iis3dwb_read_data_polling+0x56c>)
 8001680:	6013      	str	r3, [r2, #0]
 8001682:	4b3e      	ldr	r3, [pc, #248]	; (800177c <iis3dwb_read_data_polling+0x56c>)
 8001684:	681b      	ldr	r3, [r3, #0]
 8001686:	f243 02d5 	movw	r2, #12501	; 0x30d5
 800168a:	4293      	cmp	r3, r2
 800168c:	f77f af41 	ble.w	8001512 <iis3dwb_read_data_polling+0x302>
			tx_buffer[0][0] = 0x1B;// Para identificar início do buffer
 8001690:	4b3d      	ldr	r3, [pc, #244]	; (8001788 <iis3dwb_read_data_polling+0x578>)
 8001692:	221b      	movs	r2, #27
 8001694:	701a      	strb	r2, [r3, #0]
			tx_buffer[0][1] = 0x1B;// Para identificar início do buffer
 8001696:	4b3c      	ldr	r3, [pc, #240]	; (8001788 <iis3dwb_read_data_polling+0x578>)
 8001698:	221b      	movs	r2, #27
 800169a:	705a      	strb	r2, [r3, #1]
			aux_id = 0;
 800169c:	2300      	movs	r3, #0
 800169e:	60fb      	str	r3, [r7, #12]
			switch (qual_eixo)
 80016a0:	4b3a      	ldr	r3, [pc, #232]	; (800178c <iis3dwb_read_data_polling+0x57c>)
 80016a2:	781b      	ldrb	r3, [r3, #0]
 80016a4:	2b02      	cmp	r3, #2
 80016a6:	d00d      	beq.n	80016c4 <iis3dwb_read_data_polling+0x4b4>
 80016a8:	2b02      	cmp	r3, #2
 80016aa:	dc0f      	bgt.n	80016cc <iis3dwb_read_data_polling+0x4bc>
 80016ac:	2b00      	cmp	r3, #0
 80016ae:	d002      	beq.n	80016b6 <iis3dwb_read_data_polling+0x4a6>
 80016b0:	2b01      	cmp	r3, #1
 80016b2:	d003      	beq.n	80016bc <iis3dwb_read_data_polling+0x4ac>
 80016b4:	e00a      	b.n	80016cc <iis3dwb_read_data_polling+0x4bc>
				aux_id = 0;
 80016b6:	2300      	movs	r3, #0
 80016b8:	60fb      	str	r3, [r7, #12]
				break;
 80016ba:	e007      	b.n	80016cc <iis3dwb_read_data_polling+0x4bc>
				aux_id = 16384;
 80016bc:	f44f 4380 	mov.w	r3, #16384	; 0x4000
 80016c0:	60fb      	str	r3, [r7, #12]
				break;
 80016c2:	e003      	b.n	80016cc <iis3dwb_read_data_polling+0x4bc>
				aux_id = 32768;
 80016c4:	f44f 4300 	mov.w	r3, #32768	; 0x8000
 80016c8:	60fb      	str	r3, [r7, #12]
				break;
 80016ca:	bf00      	nop
			tx_buffer[0][2] = aux_id & 0xFF;
 80016cc:	68fb      	ldr	r3, [r7, #12]
 80016ce:	b2da      	uxtb	r2, r3
 80016d0:	4b2d      	ldr	r3, [pc, #180]	; (8001788 <iis3dwb_read_data_polling+0x578>)
 80016d2:	709a      	strb	r2, [r3, #2]
			tx_buffer[0][3] = aux_id >> 8;
 80016d4:	68fb      	ldr	r3, [r7, #12]
 80016d6:	0a1b      	lsrs	r3, r3, #8
 80016d8:	b2da      	uxtb	r2, r3
 80016da:	4b2b      	ldr	r3, [pc, #172]	; (8001788 <iis3dwb_read_data_polling+0x578>)
 80016dc:	70da      	strb	r2, [r3, #3]
			tx_buffer[0][4] = tempo_decorrido & 0xFF;
 80016de:	4b2c      	ldr	r3, [pc, #176]	; (8001790 <iis3dwb_read_data_polling+0x580>)
 80016e0:	681b      	ldr	r3, [r3, #0]
 80016e2:	b2da      	uxtb	r2, r3
 80016e4:	4b28      	ldr	r3, [pc, #160]	; (8001788 <iis3dwb_read_data_polling+0x578>)
 80016e6:	711a      	strb	r2, [r3, #4]
			tx_buffer[0][5] = tempo_decorrido >> 8;
 80016e8:	4b29      	ldr	r3, [pc, #164]	; (8001790 <iis3dwb_read_data_polling+0x580>)
 80016ea:	681b      	ldr	r3, [r3, #0]
 80016ec:	0a1b      	lsrs	r3, r3, #8
 80016ee:	b2da      	uxtb	r2, r3
 80016f0:	4b25      	ldr	r3, [pc, #148]	; (8001788 <iis3dwb_read_data_polling+0x578>)
 80016f2:	715a      	strb	r2, [r3, #5]
			tx_buffer[0][16] = menor_amplitude & 0xFF;
 80016f4:	4b27      	ldr	r3, [pc, #156]	; (8001794 <iis3dwb_read_data_polling+0x584>)
 80016f6:	f9b3 3000 	ldrsh.w	r3, [r3]
 80016fa:	b2da      	uxtb	r2, r3
 80016fc:	4b22      	ldr	r3, [pc, #136]	; (8001788 <iis3dwb_read_data_polling+0x578>)
 80016fe:	741a      	strb	r2, [r3, #16]
			tx_buffer[0][17] = menor_amplitude >> 8;
 8001700:	4b24      	ldr	r3, [pc, #144]	; (8001794 <iis3dwb_read_data_polling+0x584>)
 8001702:	f9b3 3000 	ldrsh.w	r3, [r3]
 8001706:	121b      	asrs	r3, r3, #8
 8001708:	b21b      	sxth	r3, r3
 800170a:	b2da      	uxtb	r2, r3
 800170c:	4b1e      	ldr	r3, [pc, #120]	; (8001788 <iis3dwb_read_data_polling+0x578>)
 800170e:	745a      	strb	r2, [r3, #17]
			tx_buffer[0][20] = maior_amplitude & 0xFF;
 8001710:	4b21      	ldr	r3, [pc, #132]	; (8001798 <iis3dwb_read_data_polling+0x588>)
 8001712:	f9b3 3000 	ldrsh.w	r3, [r3]
 8001716:	b2da      	uxtb	r2, r3
 8001718:	4b1b      	ldr	r3, [pc, #108]	; (8001788 <iis3dwb_read_data_polling+0x578>)
 800171a:	751a      	strb	r2, [r3, #20]
			tx_buffer[0][21] = maior_amplitude >> 8;
 800171c:	4b1e      	ldr	r3, [pc, #120]	; (8001798 <iis3dwb_read_data_polling+0x588>)
 800171e:	f9b3 3000 	ldrsh.w	r3, [r3]
 8001722:	121b      	asrs	r3, r3, #8
 8001724:	b21b      	sxth	r3, r3
 8001726:	b2da      	uxtb	r2, r3
 8001728:	4b17      	ldr	r3, [pc, #92]	; (8001788 <iis3dwb_read_data_polling+0x578>)
 800172a:	755a      	strb	r2, [r3, #21]
			case_tx = TIPO_ENVIO;
 800172c:	4b1b      	ldr	r3, [pc, #108]	; (800179c <iis3dwb_read_data_polling+0x58c>)
 800172e:	2200      	movs	r2, #0
 8001730:	701a      	strb	r2, [r3, #0]
			switch (case_tx)
 8001732:	4b1a      	ldr	r3, [pc, #104]	; (800179c <iis3dwb_read_data_polling+0x58c>)
 8001734:	781b      	ldrb	r3, [r3, #0]
 8001736:	2b01      	cmp	r3, #1
 8001738:	d00e      	beq.n	8001758 <iis3dwb_read_data_polling+0x548>
 800173a:	2b02      	cmp	r3, #2
 800173c:	d034      	beq.n	80017a8 <iis3dwb_read_data_polling+0x598>
				Prepara_Envio_Normal ();
 800173e:	f7ff fb21 	bl	8000d84 <Prepara_Envio_Normal>
				total_ACC = (total_ACC/MATRIZ_AMOSTRA);
 8001742:	4b17      	ldr	r3, [pc, #92]	; (80017a0 <iis3dwb_read_data_polling+0x590>)
 8001744:	681b      	ldr	r3, [r3, #0]
 8001746:	4a17      	ldr	r2, [pc, #92]	; (80017a4 <iis3dwb_read_data_polling+0x594>)
 8001748:	fb82 1203 	smull	r1, r2, r2, r3
 800174c:	1292      	asrs	r2, r2, #10
 800174e:	17db      	asrs	r3, r3, #31
 8001750:	1ad3      	subs	r3, r2, r3
 8001752:	4a13      	ldr	r2, [pc, #76]	; (80017a0 <iis3dwb_read_data_polling+0x590>)
 8001754:	6013      	str	r3, [r2, #0]
				break;
 8001756:	e034      	b.n	80017c2 <iis3dwb_read_data_polling+0x5b2>
				Preparar_Envio_Duplo ();
 8001758:	f7ff fc92 	bl	8001080 <Preparar_Envio_Duplo>
				total_ACC = (total_ACC/(MATRIZ_AMOSTRA/2));
 800175c:	4b10      	ldr	r3, [pc, #64]	; (80017a0 <iis3dwb_read_data_polling+0x590>)
 800175e:	681b      	ldr	r3, [r3, #0]
 8001760:	4a10      	ldr	r2, [pc, #64]	; (80017a4 <iis3dwb_read_data_polling+0x594>)
 8001762:	fb82 1203 	smull	r1, r2, r2, r3
 8001766:	1252      	asrs	r2, r2, #9
 8001768:	17db      	asrs	r3, r3, #31
 800176a:	1ad3      	subs	r3, r2, r3
 800176c:	4a0c      	ldr	r2, [pc, #48]	; (80017a0 <iis3dwb_read_data_polling+0x590>)
 800176e:	6013      	str	r3, [r2, #0]
				break;
 8001770:	e027      	b.n	80017c2 <iis3dwb_read_data_polling+0x5b2>
 8001772:	bf00      	nop
 8001774:	2000d5b0 	.word	0x2000d5b0
 8001778:	2000057c 	.word	0x2000057c
 800177c:	2000d5b4 	.word	0x2000d5b4
 8001780:	200072c4 	.word	0x200072c4
 8001784:	2000d5d4 	.word	0x2000d5d4
 8001788:	20000968 	.word	0x20000968
 800178c:	20000588 	.word	0x20000588
 8001790:	20007190 	.word	0x20007190
 8001794:	20007194 	.word	0x20007194
 8001798:	200071b0 	.word	0x200071b0
 800179c:	20000580 	.word	0x20000580
 80017a0:	200004f8 	.word	0x200004f8
 80017a4:	14f7d9ab 	.word	0x14f7d9ab
				Preparar_Pacotes_full ();
 80017a8:	f7ff fb66 	bl	8000e78 <Preparar_Pacotes_full>
				total_ACC = (total_ACC/MATRIZ_AMOSTRA);
 80017ac:	4b39      	ldr	r3, [pc, #228]	; (8001894 <iis3dwb_read_data_polling+0x684>)
 80017ae:	681b      	ldr	r3, [r3, #0]
 80017b0:	4a39      	ldr	r2, [pc, #228]	; (8001898 <iis3dwb_read_data_polling+0x688>)
 80017b2:	fb82 1203 	smull	r1, r2, r2, r3
 80017b6:	1292      	asrs	r2, r2, #10
 80017b8:	17db      	asrs	r3, r3, #31
 80017ba:	1ad3      	subs	r3, r2, r3
 80017bc:	4a35      	ldr	r2, [pc, #212]	; (8001894 <iis3dwb_read_data_polling+0x684>)
 80017be:	6013      	str	r3, [r2, #0]
				break;
 80017c0:	bf00      	nop
			tx_buffer[0][18] = total_ACC & 0xFF;
 80017c2:	4b34      	ldr	r3, [pc, #208]	; (8001894 <iis3dwb_read_data_polling+0x684>)
 80017c4:	681b      	ldr	r3, [r3, #0]
 80017c6:	b2da      	uxtb	r2, r3
 80017c8:	4b34      	ldr	r3, [pc, #208]	; (800189c <iis3dwb_read_data_polling+0x68c>)
 80017ca:	749a      	strb	r2, [r3, #18]
			tx_buffer[0][19] = total_ACC >> 8;
 80017cc:	4b31      	ldr	r3, [pc, #196]	; (8001894 <iis3dwb_read_data_polling+0x684>)
 80017ce:	681b      	ldr	r3, [r3, #0]
 80017d0:	121b      	asrs	r3, r3, #8
 80017d2:	b2da      	uxtb	r2, r3
 80017d4:	4b31      	ldr	r3, [pc, #196]	; (800189c <iis3dwb_read_data_polling+0x68c>)
 80017d6:	74da      	strb	r2, [r3, #19]
			Estado_Leitura++;
 80017d8:	4b31      	ldr	r3, [pc, #196]	; (80018a0 <iis3dwb_read_data_polling+0x690>)
 80017da:	781b      	ldrb	r3, [r3, #0]
 80017dc:	3301      	adds	r3, #1
 80017de:	b2da      	uxtb	r2, r3
 80017e0:	4b2f      	ldr	r3, [pc, #188]	; (80018a0 <iis3dwb_read_data_polling+0x690>)
 80017e2:	701a      	strb	r2, [r3, #0]
}
 80017e4:	e051      	b.n	800188a <iis3dwb_read_data_polling+0x67a>
		dev_ctx.write_reg = platform_write;
 80017e6:	4b2f      	ldr	r3, [pc, #188]	; (80018a4 <iis3dwb_read_data_polling+0x694>)
 80017e8:	4a2f      	ldr	r2, [pc, #188]	; (80018a8 <iis3dwb_read_data_polling+0x698>)
 80017ea:	601a      	str	r2, [r3, #0]
		dev_ctx.read_reg = platform_read;
 80017ec:	4b2d      	ldr	r3, [pc, #180]	; (80018a4 <iis3dwb_read_data_polling+0x694>)
 80017ee:	4a2f      	ldr	r2, [pc, #188]	; (80018ac <iis3dwb_read_data_polling+0x69c>)
 80017f0:	605a      	str	r2, [r3, #4]
		dev_ctx.handle = &SENSOR_BUS;
 80017f2:	4b2c      	ldr	r3, [pc, #176]	; (80018a4 <iis3dwb_read_data_polling+0x694>)
 80017f4:	4a2e      	ldr	r2, [pc, #184]	; (80018b0 <iis3dwb_read_data_polling+0x6a0>)
 80017f6:	609a      	str	r2, [r3, #8]
		platform_delay (BOOT_TIME);
 80017f8:	200a      	movs	r0, #10
 80017fa:	f000 f8c9 	bl	8001990 <platform_delay>
		iis3dwb_device_id_get (&dev_ctx, &whoamI);
 80017fe:	492d      	ldr	r1, [pc, #180]	; (80018b4 <iis3dwb_read_data_polling+0x6a4>)
 8001800:	4828      	ldr	r0, [pc, #160]	; (80018a4 <iis3dwb_read_data_polling+0x694>)
 8001802:	f000 fa6f 	bl	8001ce4 <iis3dwb_device_id_get>
		if (whoamI == IIS3DWB_ID)
 8001806:	4b2b      	ldr	r3, [pc, #172]	; (80018b4 <iis3dwb_read_data_polling+0x6a4>)
 8001808:	781b      	ldrb	r3, [r3, #0]
 800180a:	2b7b      	cmp	r3, #123	; 0x7b
 800180c:	d137      	bne.n	800187e <iis3dwb_read_data_polling+0x66e>
			iis3dwb_reset_set (&dev_ctx, PROPERTY_ENABLE);
 800180e:	2101      	movs	r1, #1
 8001810:	4824      	ldr	r0, [pc, #144]	; (80018a4 <iis3dwb_read_data_polling+0x694>)
 8001812:	f000 fa78 	bl	8001d06 <iis3dwb_reset_set>
				iis3dwb_reset_get (&dev_ctx, &rst);
 8001816:	4928      	ldr	r1, [pc, #160]	; (80018b8 <iis3dwb_read_data_polling+0x6a8>)
 8001818:	4822      	ldr	r0, [pc, #136]	; (80018a4 <iis3dwb_read_data_polling+0x694>)
 800181a:	f000 fa9a 	bl	8001d52 <iis3dwb_reset_get>
			while (rst);
 800181e:	4b26      	ldr	r3, [pc, #152]	; (80018b8 <iis3dwb_read_data_polling+0x6a8>)
 8001820:	781b      	ldrb	r3, [r3, #0]
 8001822:	2b00      	cmp	r3, #0
 8001824:	d1f7      	bne.n	8001816 <iis3dwb_read_data_polling+0x606>
			iis3dwb_xl_axis_selection_set (&dev_ctx, (qual_eixo+1));// 1=X, 2=Y, 3=Z, 0=XYZ
 8001826:	4b25      	ldr	r3, [pc, #148]	; (80018bc <iis3dwb_read_data_polling+0x6ac>)
 8001828:	781b      	ldrb	r3, [r3, #0]
 800182a:	3301      	adds	r3, #1
 800182c:	b2db      	uxtb	r3, r3
 800182e:	4619      	mov	r1, r3
 8001830:	481c      	ldr	r0, [pc, #112]	; (80018a4 <iis3dwb_read_data_polling+0x694>)
 8001832:	f000 f979 	bl	8001b28 <iis3dwb_xl_axis_selection_set>
			iis3dwb_block_data_update_set (&dev_ctx, PROPERTY_ENABLE);
 8001836:	2101      	movs	r1, #1
 8001838:	481a      	ldr	r0, [pc, #104]	; (80018a4 <iis3dwb_read_data_polling+0x694>)
 800183a:	f000 f94f 	bl	8001adc <iis3dwb_block_data_update_set>
			iis3dwb_xl_data_rate_set (&dev_ctx, IIS3DWB_XL_ODR_26k7Hz);
 800183e:	2105      	movs	r1, #5
 8001840:	4818      	ldr	r0, [pc, #96]	; (80018a4 <iis3dwb_read_data_polling+0x694>)
 8001842:	f000 f925 	bl	8001a90 <iis3dwb_xl_data_rate_set>
			escala_g = IIS3DWB_16g;
 8001846:	4b1e      	ldr	r3, [pc, #120]	; (80018c0 <iis3dwb_read_data_polling+0x6b0>)
 8001848:	2201      	movs	r2, #1
 800184a:	801a      	strh	r2, [r3, #0]
			iis3dwb_xl_full_scale_set (&dev_ctx, escala_g);
 800184c:	4b1c      	ldr	r3, [pc, #112]	; (80018c0 <iis3dwb_read_data_polling+0x6b0>)
 800184e:	881b      	ldrh	r3, [r3, #0]
 8001850:	b2db      	uxtb	r3, r3
 8001852:	4619      	mov	r1, r3
 8001854:	4813      	ldr	r0, [pc, #76]	; (80018a4 <iis3dwb_read_data_polling+0x694>)
 8001856:	f000 f8f5 	bl	8001a44 <iis3dwb_xl_full_scale_set>
			iis3dwb_xl_hp_path_on_out_set (&dev_ctx, IIS3DWB_LP_6k3Hz);
 800185a:	2100      	movs	r1, #0
 800185c:	4811      	ldr	r0, [pc, #68]	; (80018a4 <iis3dwb_read_data_polling+0x694>)
 800185e:	f000 fab7 	bl	8001dd0 <iis3dwb_xl_hp_path_on_out_set>
			iis3dwb_xl_filter_lp2_set (&dev_ctx, PROPERTY_ENABLE);
 8001862:	2101      	movs	r1, #1
 8001864:	480f      	ldr	r0, [pc, #60]	; (80018a4 <iis3dwb_read_data_polling+0x694>)
 8001866:	f000 fa8d 	bl	8001d84 <iis3dwb_xl_filter_lp2_set>
			if (inicializar_iis3dwb) inicializar_iis3dwb--;
 800186a:	4b16      	ldr	r3, [pc, #88]	; (80018c4 <iis3dwb_read_data_polling+0x6b4>)
 800186c:	781b      	ldrb	r3, [r3, #0]
 800186e:	2b00      	cmp	r3, #0
 8001870:	d005      	beq.n	800187e <iis3dwb_read_data_polling+0x66e>
 8001872:	4b14      	ldr	r3, [pc, #80]	; (80018c4 <iis3dwb_read_data_polling+0x6b4>)
 8001874:	781b      	ldrb	r3, [r3, #0]
 8001876:	3b01      	subs	r3, #1
 8001878:	b2da      	uxtb	r2, r3
 800187a:	4b12      	ldr	r3, [pc, #72]	; (80018c4 <iis3dwb_read_data_polling+0x6b4>)
 800187c:	701a      	strb	r2, [r3, #0]
		tttc_conf_Acc++;
 800187e:	4b12      	ldr	r3, [pc, #72]	; (80018c8 <iis3dwb_read_data_polling+0x6b8>)
 8001880:	781b      	ldrb	r3, [r3, #0]
 8001882:	3301      	adds	r3, #1
 8001884:	b2da      	uxtb	r2, r3
 8001886:	4b10      	ldr	r3, [pc, #64]	; (80018c8 <iis3dwb_read_data_polling+0x6b8>)
 8001888:	701a      	strb	r2, [r3, #0]
}
 800188a:	bf00      	nop
 800188c:	3710      	adds	r7, #16
 800188e:	46bd      	mov	sp, r7
 8001890:	bd80      	pop	{r7, pc}
 8001892:	bf00      	nop
 8001894:	200004f8 	.word	0x200004f8
 8001898:	14f7d9ab 	.word	0x14f7d9ab
 800189c:	20000968 	.word	0x20000968
 80018a0:	2000d540 	.word	0x2000d540
 80018a4:	2001384c 	.word	0x2001384c
 80018a8:	080018cd 	.word	0x080018cd
 80018ac:	08001929 	.word	0x08001929
 80018b0:	20000500 	.word	0x20000500
 80018b4:	2000025a 	.word	0x2000025a
 80018b8:	2000025b 	.word	0x2000025b
 80018bc:	20000588 	.word	0x20000588
 80018c0:	200004f0 	.word	0x200004f0
 80018c4:	2000058b 	.word	0x2000058b
 80018c8:	2000056c 	.word	0x2000056c

080018cc <platform_write>:
static int32_t platform_write (void *handle, uint8_t reg, uint8_t *bufp, uint16_t len)
{
 80018cc:	b580      	push	{r7, lr}
 80018ce:	b084      	sub	sp, #16
 80018d0:	af00      	add	r7, sp, #0
 80018d2:	60f8      	str	r0, [r7, #12]
 80018d4:	607a      	str	r2, [r7, #4]
 80018d6:	461a      	mov	r2, r3
 80018d8:	460b      	mov	r3, r1
 80018da:	72fb      	strb	r3, [r7, #11]
 80018dc:	4613      	mov	r3, r2
 80018de:	813b      	strh	r3, [r7, #8]
	HAL_GPIO_WritePin (IIS3_CS_GPIO_Port, IIS3_CS_Pin, GPIO_PIN_RESET);
 80018e0:	2200      	movs	r2, #0
 80018e2:	f44f 5180 	mov.w	r1, #4096	; 0x1000
 80018e6:	480e      	ldr	r0, [pc, #56]	; (8001920 <platform_write+0x54>)
 80018e8:	f005 fb48 	bl	8006f7c <HAL_GPIO_WritePin>
	HAL_SPI_Transmit (&SPI_ACC, &reg, 1, 1000);
 80018ec:	f107 010b 	add.w	r1, r7, #11
 80018f0:	f44f 737a 	mov.w	r3, #1000	; 0x3e8
 80018f4:	2201      	movs	r2, #1
 80018f6:	480b      	ldr	r0, [pc, #44]	; (8001924 <platform_write+0x58>)
 80018f8:	f008 ffa1 	bl	800a83e <HAL_SPI_Transmit>
	HAL_SPI_Transmit (&SPI_ACC, bufp, len, 1000);
 80018fc:	893a      	ldrh	r2, [r7, #8]
 80018fe:	f44f 737a 	mov.w	r3, #1000	; 0x3e8
 8001902:	6879      	ldr	r1, [r7, #4]
 8001904:	4807      	ldr	r0, [pc, #28]	; (8001924 <platform_write+0x58>)
 8001906:	f008 ff9a 	bl	800a83e <HAL_SPI_Transmit>
	HAL_GPIO_WritePin (IIS3_CS_GPIO_Port, IIS3_CS_Pin, GPIO_PIN_SET);
 800190a:	2201      	movs	r2, #1
 800190c:	f44f 5180 	mov.w	r1, #4096	; 0x1000
 8001910:	4803      	ldr	r0, [pc, #12]	; (8001920 <platform_write+0x54>)
 8001912:	f005 fb33 	bl	8006f7c <HAL_GPIO_WritePin>
	return 0;
 8001916:	2300      	movs	r3, #0
}
 8001918:	4618      	mov	r0, r3
 800191a:	3710      	adds	r7, #16
 800191c:	46bd      	mov	sp, r7
 800191e:	bd80      	pop	{r7, pc}
 8001920:	48000400 	.word	0x48000400
 8001924:	20000500 	.word	0x20000500

08001928 <platform_read>:
static int32_t platform_read (void *handle, uint8_t reg, uint8_t *bufp, uint16_t len)
{
 8001928:	b580      	push	{r7, lr}
 800192a:	b084      	sub	sp, #16
 800192c:	af00      	add	r7, sp, #0
 800192e:	60f8      	str	r0, [r7, #12]
 8001930:	607a      	str	r2, [r7, #4]
 8001932:	461a      	mov	r2, r3
 8001934:	460b      	mov	r3, r1
 8001936:	72fb      	strb	r3, [r7, #11]
 8001938:	4613      	mov	r3, r2
 800193a:	813b      	strh	r3, [r7, #8]
	// Read command
	reg |= 0x80;
 800193c:	7afb      	ldrb	r3, [r7, #11]
 800193e:	f063 037f 	orn	r3, r3, #127	; 0x7f
 8001942:	b2db      	uxtb	r3, r3
 8001944:	72fb      	strb	r3, [r7, #11]
	HAL_GPIO_WritePin (IIS3_CS_GPIO_Port, IIS3_CS_Pin, GPIO_PIN_RESET);
 8001946:	2200      	movs	r2, #0
 8001948:	f44f 5180 	mov.w	r1, #4096	; 0x1000
 800194c:	480e      	ldr	r0, [pc, #56]	; (8001988 <platform_read+0x60>)
 800194e:	f005 fb15 	bl	8006f7c <HAL_GPIO_WritePin>
	HAL_SPI_Transmit (&SPI_ACC, &reg, 1, 1000);
 8001952:	f107 010b 	add.w	r1, r7, #11
 8001956:	f44f 737a 	mov.w	r3, #1000	; 0x3e8
 800195a:	2201      	movs	r2, #1
 800195c:	480b      	ldr	r0, [pc, #44]	; (800198c <platform_read+0x64>)
 800195e:	f008 ff6e 	bl	800a83e <HAL_SPI_Transmit>
	HAL_SPI_Receive (&SPI_ACC, bufp, len, 1000);
 8001962:	893a      	ldrh	r2, [r7, #8]
 8001964:	f44f 737a 	mov.w	r3, #1000	; 0x3e8
 8001968:	6879      	ldr	r1, [r7, #4]
 800196a:	4808      	ldr	r0, [pc, #32]	; (800198c <platform_read+0x64>)
 800196c:	f009 f8d5 	bl	800ab1a <HAL_SPI_Receive>
	HAL_GPIO_WritePin (IIS3_CS_GPIO_Port, IIS3_CS_Pin, GPIO_PIN_SET);
 8001970:	2201      	movs	r2, #1
 8001972:	f44f 5180 	mov.w	r1, #4096	; 0x1000
 8001976:	4804      	ldr	r0, [pc, #16]	; (8001988 <platform_read+0x60>)
 8001978:	f005 fb00 	bl	8006f7c <HAL_GPIO_WritePin>
	return 0;
 800197c:	2300      	movs	r3, #0
}
 800197e:	4618      	mov	r0, r3
 8001980:	3710      	adds	r7, #16
 8001982:	46bd      	mov	sp, r7
 8001984:	bd80      	pop	{r7, pc}
 8001986:	bf00      	nop
 8001988:	48000400 	.word	0x48000400
 800198c:	20000500 	.word	0x20000500

08001990 <platform_delay>:
static void platform_delay (uint32_t ms)
{
 8001990:	b580      	push	{r7, lr}
 8001992:	b082      	sub	sp, #8
 8001994:	af00      	add	r7, sp, #0
 8001996:	6078      	str	r0, [r7, #4]
	delay_ms (ms);
 8001998:	687b      	ldr	r3, [r7, #4]
 800199a:	b29b      	uxth	r3, r3
 800199c:	4618      	mov	r0, r3
 800199e:	f7ff fc1f 	bl	80011e0 <delay_ms>
}
 80019a2:	bf00      	nop
 80019a4:	3708      	adds	r7, #8
 80019a6:	46bd      	mov	sp, r7
 80019a8:	bd80      	pop	{r7, pc}

080019aa <iis3dwb_read_reg>:
#include "stm32l4xx_hal_spi.h"

#include "Globais.h"

int32_t iis3dwb_read_reg (stmdev_ctx_t* ctx, uint8_t reg, uint8_t* data, uint16_t len)
{
 80019aa:	b590      	push	{r4, r7, lr}
 80019ac:	b087      	sub	sp, #28
 80019ae:	af00      	add	r7, sp, #0
 80019b0:	60f8      	str	r0, [r7, #12]
 80019b2:	607a      	str	r2, [r7, #4]
 80019b4:	461a      	mov	r2, r3
 80019b6:	460b      	mov	r3, r1
 80019b8:	72fb      	strb	r3, [r7, #11]
 80019ba:	4613      	mov	r3, r2
 80019bc:	813b      	strh	r3, [r7, #8]
	int32_t ret;
	ret = ctx->read_reg (ctx->handle, reg, data, len);
 80019be:	68fb      	ldr	r3, [r7, #12]
 80019c0:	685c      	ldr	r4, [r3, #4]
 80019c2:	68fb      	ldr	r3, [r7, #12]
 80019c4:	6898      	ldr	r0, [r3, #8]
 80019c6:	893b      	ldrh	r3, [r7, #8]
 80019c8:	7af9      	ldrb	r1, [r7, #11]
 80019ca:	687a      	ldr	r2, [r7, #4]
 80019cc:	47a0      	blx	r4
 80019ce:	6178      	str	r0, [r7, #20]
	return ret;
 80019d0:	697b      	ldr	r3, [r7, #20]
}
 80019d2:	4618      	mov	r0, r3
 80019d4:	371c      	adds	r7, #28
 80019d6:	46bd      	mov	sp, r7
 80019d8:	bd90      	pop	{r4, r7, pc}

080019da <iis3dwb_write_reg>:
int32_t iis3dwb_write_reg (stmdev_ctx_t* ctx, uint8_t reg, uint8_t* data, uint16_t len)
{
 80019da:	b590      	push	{r4, r7, lr}
 80019dc:	b087      	sub	sp, #28
 80019de:	af00      	add	r7, sp, #0
 80019e0:	60f8      	str	r0, [r7, #12]
 80019e2:	607a      	str	r2, [r7, #4]
 80019e4:	461a      	mov	r2, r3
 80019e6:	460b      	mov	r3, r1
 80019e8:	72fb      	strb	r3, [r7, #11]
 80019ea:	4613      	mov	r3, r2
 80019ec:	813b      	strh	r3, [r7, #8]
	int32_t ret;
	ret = ctx->write_reg (ctx->handle, reg, data, len);
 80019ee:	68fb      	ldr	r3, [r7, #12]
 80019f0:	681c      	ldr	r4, [r3, #0]
 80019f2:	68fb      	ldr	r3, [r7, #12]
 80019f4:	6898      	ldr	r0, [r3, #8]
 80019f6:	893b      	ldrh	r3, [r7, #8]
 80019f8:	7af9      	ldrb	r1, [r7, #11]
 80019fa:	687a      	ldr	r2, [r7, #4]
 80019fc:	47a0      	blx	r4
 80019fe:	6178      	str	r0, [r7, #20]
	return ret;
 8001a00:	697b      	ldr	r3, [r7, #20]
}
 8001a02:	4618      	mov	r0, r3
 8001a04:	371c      	adds	r7, #28
 8001a06:	46bd      	mov	sp, r7
 8001a08:	bd90      	pop	{r4, r7, pc}
	...

08001a0c <iis3dwb_from_lsb_to_celsius>:
float_t iis3dwb_from_lsb_to_celsius (int16_t lsb)
{
 8001a0c:	b480      	push	{r7}
 8001a0e:	b083      	sub	sp, #12
 8001a10:	af00      	add	r7, sp, #0
 8001a12:	4603      	mov	r3, r0
 8001a14:	80fb      	strh	r3, [r7, #6]
	return (((float_t)lsb / 256.0f) + 25.0f);
 8001a16:	f9b7 3006 	ldrsh.w	r3, [r7, #6]
 8001a1a:	ee07 3a90 	vmov	s15, r3
 8001a1e:	eeb8 7ae7 	vcvt.f32.s32	s14, s15
 8001a22:	eddf 6a07 	vldr	s13, [pc, #28]	; 8001a40 <iis3dwb_from_lsb_to_celsius+0x34>
 8001a26:	eec7 7a26 	vdiv.f32	s15, s14, s13
 8001a2a:	eeb3 7a09 	vmov.f32	s14, #57	; 0x41c80000  25.0
 8001a2e:	ee77 7a87 	vadd.f32	s15, s15, s14
}
 8001a32:	eeb0 0a67 	vmov.f32	s0, s15
 8001a36:	370c      	adds	r7, #12
 8001a38:	46bd      	mov	sp, r7
 8001a3a:	f85d 7b04 	ldr.w	r7, [sp], #4
 8001a3e:	4770      	bx	lr
 8001a40:	43800000 	.word	0x43800000

08001a44 <iis3dwb_xl_full_scale_set>:
int32_t iis3dwb_xl_full_scale_set (stmdev_ctx_t *ctx, iis3dwb_fs_xl_t val)
{
 8001a44:	b580      	push	{r7, lr}
 8001a46:	b084      	sub	sp, #16
 8001a48:	af00      	add	r7, sp, #0
 8001a4a:	6078      	str	r0, [r7, #4]
 8001a4c:	460b      	mov	r3, r1
 8001a4e:	70fb      	strb	r3, [r7, #3]
	iis3dwb_ctrl1_xl_t ctrl1_xl;
	int32_t ret;

	ret = iis3dwb_read_reg (ctx, IIS3DWB_CTRL1_XL, (uint8_t*)&ctrl1_xl, 1);
 8001a50:	f107 0208 	add.w	r2, r7, #8
 8001a54:	2301      	movs	r3, #1
 8001a56:	2110      	movs	r1, #16
 8001a58:	6878      	ldr	r0, [r7, #4]
 8001a5a:	f7ff ffa6 	bl	80019aa <iis3dwb_read_reg>
 8001a5e:	60f8      	str	r0, [r7, #12]
	if (ret == 0)
 8001a60:	68fb      	ldr	r3, [r7, #12]
 8001a62:	2b00      	cmp	r3, #0
 8001a64:	d10f      	bne.n	8001a86 <iis3dwb_xl_full_scale_set+0x42>
	{
		ctrl1_xl.fs_xl = (uint8_t)val;
 8001a66:	78fb      	ldrb	r3, [r7, #3]
 8001a68:	f003 0303 	and.w	r3, r3, #3
 8001a6c:	b2da      	uxtb	r2, r3
 8001a6e:	7a3b      	ldrb	r3, [r7, #8]
 8001a70:	f362 0383 	bfi	r3, r2, #2, #2
 8001a74:	723b      	strb	r3, [r7, #8]
		ret = iis3dwb_write_reg (ctx, IIS3DWB_CTRL1_XL, (uint8_t*)&ctrl1_xl, 1);
 8001a76:	f107 0208 	add.w	r2, r7, #8
 8001a7a:	2301      	movs	r3, #1
 8001a7c:	2110      	movs	r1, #16
 8001a7e:	6878      	ldr	r0, [r7, #4]
 8001a80:	f7ff ffab 	bl	80019da <iis3dwb_write_reg>
 8001a84:	60f8      	str	r0, [r7, #12]
	}
	return ret;
 8001a86:	68fb      	ldr	r3, [r7, #12]
}
 8001a88:	4618      	mov	r0, r3
 8001a8a:	3710      	adds	r7, #16
 8001a8c:	46bd      	mov	sp, r7
 8001a8e:	bd80      	pop	{r7, pc}

08001a90 <iis3dwb_xl_data_rate_set>:
int32_t iis3dwb_xl_data_rate_set (stmdev_ctx_t *ctx, iis3dwb_odr_xl_t val)
{
 8001a90:	b580      	push	{r7, lr}
 8001a92:	b084      	sub	sp, #16
 8001a94:	af00      	add	r7, sp, #0
 8001a96:	6078      	str	r0, [r7, #4]
 8001a98:	460b      	mov	r3, r1
 8001a9a:	70fb      	strb	r3, [r7, #3]
	iis3dwb_ctrl1_xl_t ctrl1_xl;
	int32_t ret;

	ret = iis3dwb_read_reg (ctx, IIS3DWB_CTRL1_XL, (uint8_t*)&ctrl1_xl, 1);
 8001a9c:	f107 0208 	add.w	r2, r7, #8
 8001aa0:	2301      	movs	r3, #1
 8001aa2:	2110      	movs	r1, #16
 8001aa4:	6878      	ldr	r0, [r7, #4]
 8001aa6:	f7ff ff80 	bl	80019aa <iis3dwb_read_reg>
 8001aaa:	60f8      	str	r0, [r7, #12]
	if (ret == 0)
 8001aac:	68fb      	ldr	r3, [r7, #12]
 8001aae:	2b00      	cmp	r3, #0
 8001ab0:	d10f      	bne.n	8001ad2 <iis3dwb_xl_data_rate_set+0x42>
	{
		ctrl1_xl.xl_en = (uint8_t)val;
 8001ab2:	78fb      	ldrb	r3, [r7, #3]
 8001ab4:	f003 0307 	and.w	r3, r3, #7
 8001ab8:	b2da      	uxtb	r2, r3
 8001aba:	7a3b      	ldrb	r3, [r7, #8]
 8001abc:	f362 1347 	bfi	r3, r2, #5, #3
 8001ac0:	723b      	strb	r3, [r7, #8]
		ret = iis3dwb_write_reg (ctx, IIS3DWB_CTRL1_XL, (uint8_t*)&ctrl1_xl, 1);
 8001ac2:	f107 0208 	add.w	r2, r7, #8
 8001ac6:	2301      	movs	r3, #1
 8001ac8:	2110      	movs	r1, #16
 8001aca:	6878      	ldr	r0, [r7, #4]
 8001acc:	f7ff ff85 	bl	80019da <iis3dwb_write_reg>
 8001ad0:	60f8      	str	r0, [r7, #12]
	}
	return ret;
 8001ad2:	68fb      	ldr	r3, [r7, #12]
}
 8001ad4:	4618      	mov	r0, r3
 8001ad6:	3710      	adds	r7, #16
 8001ad8:	46bd      	mov	sp, r7
 8001ada:	bd80      	pop	{r7, pc}

08001adc <iis3dwb_block_data_update_set>:
int32_t iis3dwb_block_data_update_set (stmdev_ctx_t *ctx, uint8_t val)
{
 8001adc:	b580      	push	{r7, lr}
 8001ade:	b084      	sub	sp, #16
 8001ae0:	af00      	add	r7, sp, #0
 8001ae2:	6078      	str	r0, [r7, #4]
 8001ae4:	460b      	mov	r3, r1
 8001ae6:	70fb      	strb	r3, [r7, #3]
	iis3dwb_ctrl3_c_t ctrl3_c;
	int32_t ret;

	ret = iis3dwb_read_reg (ctx, IIS3DWB_CTRL3_C, (uint8_t*)&ctrl3_c, 1);
 8001ae8:	f107 0208 	add.w	r2, r7, #8
 8001aec:	2301      	movs	r3, #1
 8001aee:	2112      	movs	r1, #18
 8001af0:	6878      	ldr	r0, [r7, #4]
 8001af2:	f7ff ff5a 	bl	80019aa <iis3dwb_read_reg>
 8001af6:	60f8      	str	r0, [r7, #12]
	if(ret == 0)
 8001af8:	68fb      	ldr	r3, [r7, #12]
 8001afa:	2b00      	cmp	r3, #0
 8001afc:	d10f      	bne.n	8001b1e <iis3dwb_block_data_update_set+0x42>
	{
		ctrl3_c.bdu= (uint8_t)val;
 8001afe:	78fb      	ldrb	r3, [r7, #3]
 8001b00:	f003 0301 	and.w	r3, r3, #1
 8001b04:	b2da      	uxtb	r2, r3
 8001b06:	7a3b      	ldrb	r3, [r7, #8]
 8001b08:	f362 1386 	bfi	r3, r2, #6, #1
 8001b0c:	723b      	strb	r3, [r7, #8]
		ret = iis3dwb_write_reg (ctx, IIS3DWB_CTRL3_C, (uint8_t*)&ctrl3_c, 1);
 8001b0e:	f107 0208 	add.w	r2, r7, #8
 8001b12:	2301      	movs	r3, #1
 8001b14:	2112      	movs	r1, #18
 8001b16:	6878      	ldr	r0, [r7, #4]
 8001b18:	f7ff ff5f 	bl	80019da <iis3dwb_write_reg>
 8001b1c:	60f8      	str	r0, [r7, #12]
	}
	return ret;
 8001b1e:	68fb      	ldr	r3, [r7, #12]
}
 8001b20:	4618      	mov	r0, r3
 8001b22:	3710      	adds	r7, #16
 8001b24:	46bd      	mov	sp, r7
 8001b26:	bd80      	pop	{r7, pc}

08001b28 <iis3dwb_xl_axis_selection_set>:
int32_t iis3dwb_xl_axis_selection_set (stmdev_ctx_t *ctx, iis3dwb_xl_axis_sel_t val)
{
 8001b28:	b580      	push	{r7, lr}
 8001b2a:	b086      	sub	sp, #24
 8001b2c:	af00      	add	r7, sp, #0
 8001b2e:	6078      	str	r0, [r7, #4]
 8001b30:	460b      	mov	r3, r1
 8001b32:	70fb      	strb	r3, [r7, #3]
	iis3dwb_ctrl4_c_t ctrl4_c;
	iis3dwb_ctrl6_c_t ctrl6_c;
	int32_t ret;

	ret = iis3dwb_read_reg (ctx, IIS3DWB_CTRL4_C, (uint8_t*)&ctrl4_c, 1);
 8001b34:	f107 0210 	add.w	r2, r7, #16
 8001b38:	2301      	movs	r3, #1
 8001b3a:	2113      	movs	r1, #19
 8001b3c:	6878      	ldr	r0, [r7, #4]
 8001b3e:	f7ff ff34 	bl	80019aa <iis3dwb_read_reg>
 8001b42:	6178      	str	r0, [r7, #20]
	if (ret == 0)
 8001b44:	697b      	ldr	r3, [r7, #20]
 8001b46:	2b00      	cmp	r3, #0
 8001b48:	d110      	bne.n	8001b6c <iis3dwb_xl_axis_selection_set+0x44>
	{
		ctrl4_c._1ax_to_3regout = ( (uint8_t)val & 0x10U ) >> 4;
 8001b4a:	78fb      	ldrb	r3, [r7, #3]
 8001b4c:	091b      	lsrs	r3, r3, #4
 8001b4e:	f003 0301 	and.w	r3, r3, #1
 8001b52:	b2da      	uxtb	r2, r3
 8001b54:	7c3b      	ldrb	r3, [r7, #16]
 8001b56:	f362 0300 	bfi	r3, r2, #0, #1
 8001b5a:	743b      	strb	r3, [r7, #16]
		ret = iis3dwb_write_reg (ctx, IIS3DWB_CTRL4_C, (uint8_t*)&ctrl4_c, 1);
 8001b5c:	f107 0210 	add.w	r2, r7, #16
 8001b60:	2301      	movs	r3, #1
 8001b62:	2113      	movs	r1, #19
 8001b64:	6878      	ldr	r0, [r7, #4]
 8001b66:	f7ff ff38 	bl	80019da <iis3dwb_write_reg>
 8001b6a:	6178      	str	r0, [r7, #20]
	}
	if (ret == 0)
 8001b6c:	697b      	ldr	r3, [r7, #20]
 8001b6e:	2b00      	cmp	r3, #0
 8001b70:	d107      	bne.n	8001b82 <iis3dwb_xl_axis_selection_set+0x5a>
	{
		ret = iis3dwb_read_reg (ctx, IIS3DWB_CTRL6_C, (uint8_t*)&ctrl6_c, 1);
 8001b72:	f107 020c 	add.w	r2, r7, #12
 8001b76:	2301      	movs	r3, #1
 8001b78:	2115      	movs	r1, #21
 8001b7a:	6878      	ldr	r0, [r7, #4]
 8001b7c:	f7ff ff15 	bl	80019aa <iis3dwb_read_reg>
 8001b80:	6178      	str	r0, [r7, #20]
	}
	if (ret == 0)
 8001b82:	697b      	ldr	r3, [r7, #20]
 8001b84:	2b00      	cmp	r3, #0
 8001b86:	d10f      	bne.n	8001ba8 <iis3dwb_xl_axis_selection_set+0x80>
	{
		ctrl6_c.xl_axis_sel = (uint8_t)val;
 8001b88:	78fb      	ldrb	r3, [r7, #3]
 8001b8a:	f003 0303 	and.w	r3, r3, #3
 8001b8e:	b2da      	uxtb	r2, r3
 8001b90:	7b3b      	ldrb	r3, [r7, #12]
 8001b92:	f362 0301 	bfi	r3, r2, #0, #2
 8001b96:	733b      	strb	r3, [r7, #12]
		ret = iis3dwb_write_reg (ctx, IIS3DWB_CTRL6_C, (uint8_t*)&ctrl6_c, 1);
 8001b98:	f107 020c 	add.w	r2, r7, #12
 8001b9c:	2301      	movs	r3, #1
 8001b9e:	2115      	movs	r1, #21
 8001ba0:	6878      	ldr	r0, [r7, #4]
 8001ba2:	f7ff ff1a 	bl	80019da <iis3dwb_write_reg>
 8001ba6:	6178      	str	r0, [r7, #20]
	}
	return ret;
 8001ba8:	697b      	ldr	r3, [r7, #20]
}
 8001baa:	4618      	mov	r0, r3
 8001bac:	3718      	adds	r7, #24
 8001bae:	46bd      	mov	sp, r7
 8001bb0:	bd80      	pop	{r7, pc}

08001bb2 <iis3dwb_xl_flag_data_ready_get>:
int32_t iis3dwb_xl_flag_data_ready_get (stmdev_ctx_t *ctx, uint8_t *val)
{
 8001bb2:	b580      	push	{r7, lr}
 8001bb4:	b084      	sub	sp, #16
 8001bb6:	af00      	add	r7, sp, #0
 8001bb8:	6078      	str	r0, [r7, #4]
 8001bba:	6039      	str	r1, [r7, #0]
	iis3dwb_status_reg_t status_reg;
	int32_t ret;

	ret = iis3dwb_read_reg (ctx, IIS3DWB_STATUS_REG, (uint8_t*)&status_reg, 1);
 8001bbc:	f107 0208 	add.w	r2, r7, #8
 8001bc0:	2301      	movs	r3, #1
 8001bc2:	211e      	movs	r1, #30
 8001bc4:	6878      	ldr	r0, [r7, #4]
 8001bc6:	f7ff fef0 	bl	80019aa <iis3dwb_read_reg>
 8001bca:	60f8      	str	r0, [r7, #12]
	*val = status_reg.xlda;
 8001bcc:	7a3b      	ldrb	r3, [r7, #8]
 8001bce:	f3c3 0300 	ubfx	r3, r3, #0, #1
 8001bd2:	b2db      	uxtb	r3, r3
 8001bd4:	461a      	mov	r2, r3
 8001bd6:	683b      	ldr	r3, [r7, #0]
 8001bd8:	701a      	strb	r2, [r3, #0]
	return ret;
 8001bda:	68fb      	ldr	r3, [r7, #12]
}
 8001bdc:	4618      	mov	r0, r3
 8001bde:	3710      	adds	r7, #16
 8001be0:	46bd      	mov	sp, r7
 8001be2:	bd80      	pop	{r7, pc}

08001be4 <iis3dwb_temp_flag_data_ready_get>:
int32_t iis3dwb_temp_flag_data_ready_get (stmdev_ctx_t *ctx, uint8_t *val)
{
 8001be4:	b580      	push	{r7, lr}
 8001be6:	b084      	sub	sp, #16
 8001be8:	af00      	add	r7, sp, #0
 8001bea:	6078      	str	r0, [r7, #4]
 8001bec:	6039      	str	r1, [r7, #0]
	iis3dwb_status_reg_t status_reg;
	int32_t ret;

	ret = iis3dwb_read_reg (ctx, IIS3DWB_STATUS_REG, (uint8_t*)&status_reg, 1);
 8001bee:	f107 0208 	add.w	r2, r7, #8
 8001bf2:	2301      	movs	r3, #1
 8001bf4:	211e      	movs	r1, #30
 8001bf6:	6878      	ldr	r0, [r7, #4]
 8001bf8:	f7ff fed7 	bl	80019aa <iis3dwb_read_reg>
 8001bfc:	60f8      	str	r0, [r7, #12]
	*val = status_reg.tda;
 8001bfe:	7a3b      	ldrb	r3, [r7, #8]
 8001c00:	f3c3 0380 	ubfx	r3, r3, #2, #1
 8001c04:	b2db      	uxtb	r3, r3
 8001c06:	461a      	mov	r2, r3
 8001c08:	683b      	ldr	r3, [r7, #0]
 8001c0a:	701a      	strb	r2, [r3, #0]
	return ret;
 8001c0c:	68fb      	ldr	r3, [r7, #12]
}
 8001c0e:	4618      	mov	r0, r3
 8001c10:	3710      	adds	r7, #16
 8001c12:	46bd      	mov	sp, r7
 8001c14:	bd80      	pop	{r7, pc}

08001c16 <iis3dwb_temperature_raw_get>:
int32_t iis3dwb_temperature_raw_get (stmdev_ctx_t *ctx, int16_t *val)
{
 8001c16:	b580      	push	{r7, lr}
 8001c18:	b084      	sub	sp, #16
 8001c1a:	af00      	add	r7, sp, #0
 8001c1c:	6078      	str	r0, [r7, #4]
 8001c1e:	6039      	str	r1, [r7, #0]
	uint8_t buff[2];
	int32_t ret;

	ret = iis3dwb_read_reg(ctx, IIS3DWB_OUT_TEMP_L, buff, 2);
 8001c20:	f107 0208 	add.w	r2, r7, #8
 8001c24:	2302      	movs	r3, #2
 8001c26:	2120      	movs	r1, #32
 8001c28:	6878      	ldr	r0, [r7, #4]
 8001c2a:	f7ff febe 	bl	80019aa <iis3dwb_read_reg>
 8001c2e:	60f8      	str	r0, [r7, #12]
	*val = (int16_t)buff[1];
 8001c30:	7a7b      	ldrb	r3, [r7, #9]
 8001c32:	b21a      	sxth	r2, r3
 8001c34:	683b      	ldr	r3, [r7, #0]
 8001c36:	801a      	strh	r2, [r3, #0]
	*val = (*val * 256) +  (int16_t)buff[0];
 8001c38:	683b      	ldr	r3, [r7, #0]
 8001c3a:	f9b3 3000 	ldrsh.w	r3, [r3]
 8001c3e:	b29b      	uxth	r3, r3
 8001c40:	021b      	lsls	r3, r3, #8
 8001c42:	b29a      	uxth	r2, r3
 8001c44:	7a3b      	ldrb	r3, [r7, #8]
 8001c46:	b29b      	uxth	r3, r3
 8001c48:	4413      	add	r3, r2
 8001c4a:	b29b      	uxth	r3, r3
 8001c4c:	b21a      	sxth	r2, r3
 8001c4e:	683b      	ldr	r3, [r7, #0]
 8001c50:	801a      	strh	r2, [r3, #0]
	return ret;
 8001c52:	68fb      	ldr	r3, [r7, #12]
}
 8001c54:	4618      	mov	r0, r3
 8001c56:	3710      	adds	r7, #16
 8001c58:	46bd      	mov	sp, r7
 8001c5a:	bd80      	pop	{r7, pc}

08001c5c <iis3dwb_acceleration_raw_get>:
int32_t iis3dwb_acceleration_raw_get (stmdev_ctx_t *ctx, int16_t *val)
{
 8001c5c:	b580      	push	{r7, lr}
 8001c5e:	b086      	sub	sp, #24
 8001c60:	af00      	add	r7, sp, #0
 8001c62:	6078      	str	r0, [r7, #4]
 8001c64:	6039      	str	r1, [r7, #0]
	uint8_t buff[6];
	int32_t ret;

	switch (qual_eixo)
 8001c66:	4b1e      	ldr	r3, [pc, #120]	; (8001ce0 <iis3dwb_acceleration_raw_get+0x84>)
 8001c68:	781b      	ldrb	r3, [r3, #0]
 8001c6a:	2b02      	cmp	r3, #2
 8001c6c:	d018      	beq.n	8001ca0 <iis3dwb_acceleration_raw_get+0x44>
 8001c6e:	2b02      	cmp	r3, #2
 8001c70:	dc1f      	bgt.n	8001cb2 <iis3dwb_acceleration_raw_get+0x56>
 8001c72:	2b00      	cmp	r3, #0
 8001c74:	d002      	beq.n	8001c7c <iis3dwb_acceleration_raw_get+0x20>
 8001c76:	2b01      	cmp	r3, #1
 8001c78:	d009      	beq.n	8001c8e <iis3dwb_acceleration_raw_get+0x32>
 8001c7a:	e01a      	b.n	8001cb2 <iis3dwb_acceleration_raw_get+0x56>
	{
	case 0://X
		ret = iis3dwb_read_reg (ctx, IIS3DWB_OUTX_L_A, buff, 2);
 8001c7c:	f107 020c 	add.w	r2, r7, #12
 8001c80:	2302      	movs	r3, #2
 8001c82:	2128      	movs	r1, #40	; 0x28
 8001c84:	6878      	ldr	r0, [r7, #4]
 8001c86:	f7ff fe90 	bl	80019aa <iis3dwb_read_reg>
 8001c8a:	6178      	str	r0, [r7, #20]
		break;
 8001c8c:	e011      	b.n	8001cb2 <iis3dwb_acceleration_raw_get+0x56>
	case 1://Y
		ret = iis3dwb_read_reg (ctx, IIS3DWB_OUTY_L_A, buff, 2);
 8001c8e:	f107 020c 	add.w	r2, r7, #12
 8001c92:	2302      	movs	r3, #2
 8001c94:	212a      	movs	r1, #42	; 0x2a
 8001c96:	6878      	ldr	r0, [r7, #4]
 8001c98:	f7ff fe87 	bl	80019aa <iis3dwb_read_reg>
 8001c9c:	6178      	str	r0, [r7, #20]
		break;
 8001c9e:	e008      	b.n	8001cb2 <iis3dwb_acceleration_raw_get+0x56>
	case 2://Z
		ret = iis3dwb_read_reg (ctx, IIS3DWB_OUTZ_L_A, buff, 2);
 8001ca0:	f107 020c 	add.w	r2, r7, #12
 8001ca4:	2302      	movs	r3, #2
 8001ca6:	212c      	movs	r1, #44	; 0x2c
 8001ca8:	6878      	ldr	r0, [r7, #4]
 8001caa:	f7ff fe7e 	bl	80019aa <iis3dwb_read_reg>
 8001cae:	6178      	str	r0, [r7, #20]
		break;
 8001cb0:	bf00      	nop
	}
	*val = (int16_t)buff[1];
 8001cb2:	7b7b      	ldrb	r3, [r7, #13]
 8001cb4:	b21a      	sxth	r2, r3
 8001cb6:	683b      	ldr	r3, [r7, #0]
 8001cb8:	801a      	strh	r2, [r3, #0]
	*val = (*val * 256) +  (int16_t)buff[0];
 8001cba:	683b      	ldr	r3, [r7, #0]
 8001cbc:	f9b3 3000 	ldrsh.w	r3, [r3]
 8001cc0:	b29b      	uxth	r3, r3
 8001cc2:	021b      	lsls	r3, r3, #8
 8001cc4:	b29a      	uxth	r2, r3
 8001cc6:	7b3b      	ldrb	r3, [r7, #12]
 8001cc8:	b29b      	uxth	r3, r3
 8001cca:	4413      	add	r3, r2
 8001ccc:	b29b      	uxth	r3, r3
 8001cce:	b21a      	sxth	r2, r3
 8001cd0:	683b      	ldr	r3, [r7, #0]
 8001cd2:	801a      	strh	r2, [r3, #0]
	return ret;
 8001cd4:	697b      	ldr	r3, [r7, #20]
}
 8001cd6:	4618      	mov	r0, r3
 8001cd8:	3718      	adds	r7, #24
 8001cda:	46bd      	mov	sp, r7
 8001cdc:	bd80      	pop	{r7, pc}
 8001cde:	bf00      	nop
 8001ce0:	20000588 	.word	0x20000588

08001ce4 <iis3dwb_device_id_get>:
int32_t iis3dwb_device_id_get (stmdev_ctx_t *ctx, uint8_t *buff)
{
 8001ce4:	b580      	push	{r7, lr}
 8001ce6:	b084      	sub	sp, #16
 8001ce8:	af00      	add	r7, sp, #0
 8001cea:	6078      	str	r0, [r7, #4]
 8001cec:	6039      	str	r1, [r7, #0]
	int32_t ret;
	ret = iis3dwb_read_reg (ctx, IIS3DWB_WHO_AM_I, buff, 1);
 8001cee:	2301      	movs	r3, #1
 8001cf0:	683a      	ldr	r2, [r7, #0]
 8001cf2:	210f      	movs	r1, #15
 8001cf4:	6878      	ldr	r0, [r7, #4]
 8001cf6:	f7ff fe58 	bl	80019aa <iis3dwb_read_reg>
 8001cfa:	60f8      	str	r0, [r7, #12]
	return ret;
 8001cfc:	68fb      	ldr	r3, [r7, #12]
}
 8001cfe:	4618      	mov	r0, r3
 8001d00:	3710      	adds	r7, #16
 8001d02:	46bd      	mov	sp, r7
 8001d04:	bd80      	pop	{r7, pc}

08001d06 <iis3dwb_reset_set>:
int32_t iis3dwb_reset_set (stmdev_ctx_t *ctx, uint8_t val)
{
 8001d06:	b580      	push	{r7, lr}
 8001d08:	b084      	sub	sp, #16
 8001d0a:	af00      	add	r7, sp, #0
 8001d0c:	6078      	str	r0, [r7, #4]
 8001d0e:	460b      	mov	r3, r1
 8001d10:	70fb      	strb	r3, [r7, #3]
	iis3dwb_ctrl3_c_t ctrl3_c;
	int32_t ret;

	ret = iis3dwb_read_reg (ctx, IIS3DWB_CTRL3_C, (uint8_t*)&ctrl3_c, 1);
 8001d12:	f107 0208 	add.w	r2, r7, #8
 8001d16:	2301      	movs	r3, #1
 8001d18:	2112      	movs	r1, #18
 8001d1a:	6878      	ldr	r0, [r7, #4]
 8001d1c:	f7ff fe45 	bl	80019aa <iis3dwb_read_reg>
 8001d20:	60f8      	str	r0, [r7, #12]
	if (ret == 0)
 8001d22:	68fb      	ldr	r3, [r7, #12]
 8001d24:	2b00      	cmp	r3, #0
 8001d26:	d10f      	bne.n	8001d48 <iis3dwb_reset_set+0x42>
	{
		ctrl3_c.sw_reset = (uint8_t)val;
 8001d28:	78fb      	ldrb	r3, [r7, #3]
 8001d2a:	f003 0301 	and.w	r3, r3, #1
 8001d2e:	b2da      	uxtb	r2, r3
 8001d30:	7a3b      	ldrb	r3, [r7, #8]
 8001d32:	f362 0300 	bfi	r3, r2, #0, #1
 8001d36:	723b      	strb	r3, [r7, #8]
		ret = iis3dwb_write_reg (ctx, IIS3DWB_CTRL3_C, (uint8_t*)&ctrl3_c, 1);
 8001d38:	f107 0208 	add.w	r2, r7, #8
 8001d3c:	2301      	movs	r3, #1
 8001d3e:	2112      	movs	r1, #18
 8001d40:	6878      	ldr	r0, [r7, #4]
 8001d42:	f7ff fe4a 	bl	80019da <iis3dwb_write_reg>
 8001d46:	60f8      	str	r0, [r7, #12]
	}
	return ret;
 8001d48:	68fb      	ldr	r3, [r7, #12]
}
 8001d4a:	4618      	mov	r0, r3
 8001d4c:	3710      	adds	r7, #16
 8001d4e:	46bd      	mov	sp, r7
 8001d50:	bd80      	pop	{r7, pc}

08001d52 <iis3dwb_reset_get>:
int32_t iis3dwb_reset_get (stmdev_ctx_t *ctx, uint8_t *val)
{
 8001d52:	b580      	push	{r7, lr}
 8001d54:	b084      	sub	sp, #16
 8001d56:	af00      	add	r7, sp, #0
 8001d58:	6078      	str	r0, [r7, #4]
 8001d5a:	6039      	str	r1, [r7, #0]
	iis3dwb_ctrl3_c_t ctrl3_c;
	int32_t ret;

	ret = iis3dwb_read_reg (ctx, IIS3DWB_CTRL3_C, (uint8_t*)&ctrl3_c, 1);
 8001d5c:	f107 0208 	add.w	r2, r7, #8
 8001d60:	2301      	movs	r3, #1
 8001d62:	2112      	movs	r1, #18
 8001d64:	6878      	ldr	r0, [r7, #4]
 8001d66:	f7ff fe20 	bl	80019aa <iis3dwb_read_reg>
 8001d6a:	60f8      	str	r0, [r7, #12]
	*val = ctrl3_c.sw_reset;
 8001d6c:	7a3b      	ldrb	r3, [r7, #8]
 8001d6e:	f3c3 0300 	ubfx	r3, r3, #0, #1
 8001d72:	b2db      	uxtb	r3, r3
 8001d74:	461a      	mov	r2, r3
 8001d76:	683b      	ldr	r3, [r7, #0]
 8001d78:	701a      	strb	r2, [r3, #0]
	return ret;
 8001d7a:	68fb      	ldr	r3, [r7, #12]
}
 8001d7c:	4618      	mov	r0, r3
 8001d7e:	3710      	adds	r7, #16
 8001d80:	46bd      	mov	sp, r7
 8001d82:	bd80      	pop	{r7, pc}

08001d84 <iis3dwb_xl_filter_lp2_set>:
int32_t iis3dwb_xl_filter_lp2_set (stmdev_ctx_t *ctx, uint8_t val)
{
 8001d84:	b580      	push	{r7, lr}
 8001d86:	b084      	sub	sp, #16
 8001d88:	af00      	add	r7, sp, #0
 8001d8a:	6078      	str	r0, [r7, #4]
 8001d8c:	460b      	mov	r3, r1
 8001d8e:	70fb      	strb	r3, [r7, #3]
	iis3dwb_ctrl1_xl_t ctrl1_xl;
	int32_t ret;

	ret = iis3dwb_read_reg (ctx, IIS3DWB_CTRL1_XL, (uint8_t*)&ctrl1_xl, 1);
 8001d90:	f107 0208 	add.w	r2, r7, #8
 8001d94:	2301      	movs	r3, #1
 8001d96:	2110      	movs	r1, #16
 8001d98:	6878      	ldr	r0, [r7, #4]
 8001d9a:	f7ff fe06 	bl	80019aa <iis3dwb_read_reg>
 8001d9e:	60f8      	str	r0, [r7, #12]
	if (ret == 0)
 8001da0:	68fb      	ldr	r3, [r7, #12]
 8001da2:	2b00      	cmp	r3, #0
 8001da4:	d10f      	bne.n	8001dc6 <iis3dwb_xl_filter_lp2_set+0x42>
	{
		ctrl1_xl.lpf2_xl_en = (uint8_t)val;
 8001da6:	78fb      	ldrb	r3, [r7, #3]
 8001da8:	f003 0301 	and.w	r3, r3, #1
 8001dac:	b2da      	uxtb	r2, r3
 8001dae:	7a3b      	ldrb	r3, [r7, #8]
 8001db0:	f362 0341 	bfi	r3, r2, #1, #1
 8001db4:	723b      	strb	r3, [r7, #8]
		ret = iis3dwb_write_reg (ctx, IIS3DWB_CTRL1_XL, (uint8_t*)&ctrl1_xl, 1);
 8001db6:	f107 0208 	add.w	r2, r7, #8
 8001dba:	2301      	movs	r3, #1
 8001dbc:	2110      	movs	r1, #16
 8001dbe:	6878      	ldr	r0, [r7, #4]
 8001dc0:	f7ff fe0b 	bl	80019da <iis3dwb_write_reg>
 8001dc4:	60f8      	str	r0, [r7, #12]
	}
	return ret;
 8001dc6:	68fb      	ldr	r3, [r7, #12]
}
 8001dc8:	4618      	mov	r0, r3
 8001dca:	3710      	adds	r7, #16
 8001dcc:	46bd      	mov	sp, r7
 8001dce:	bd80      	pop	{r7, pc}

08001dd0 <iis3dwb_xl_hp_path_on_out_set>:
int32_t iis3dwb_xl_hp_path_on_out_set (stmdev_ctx_t *ctx, iis3dwb_hp_slope_xl_en_t val)
{
 8001dd0:	b580      	push	{r7, lr}
 8001dd2:	b086      	sub	sp, #24
 8001dd4:	af00      	add	r7, sp, #0
 8001dd6:	6078      	str	r0, [r7, #4]
 8001dd8:	460b      	mov	r3, r1
 8001dda:	70fb      	strb	r3, [r7, #3]
	iis3dwb_ctrl1_xl_t ctrl1_xl;
	iis3dwb_ctrl8_xl_t ctrl8_xl;
	int32_t ret;

	ret = iis3dwb_read_reg (ctx, IIS3DWB_CTRL1_XL, (uint8_t*)&ctrl1_xl, 1);
 8001ddc:	f107 0210 	add.w	r2, r7, #16
 8001de0:	2301      	movs	r3, #1
 8001de2:	2110      	movs	r1, #16
 8001de4:	6878      	ldr	r0, [r7, #4]
 8001de6:	f7ff fde0 	bl	80019aa <iis3dwb_read_reg>
 8001dea:	6178      	str	r0, [r7, #20]
	if (ret == 0)
 8001dec:	697b      	ldr	r3, [r7, #20]
 8001dee:	2b00      	cmp	r3, #0
 8001df0:	d111      	bne.n	8001e16 <iis3dwb_xl_hp_path_on_out_set+0x46>
	{
		ctrl1_xl.lpf2_xl_en = ((uint8_t)val & 0x80U) >> 7;
 8001df2:	78fb      	ldrb	r3, [r7, #3]
 8001df4:	09db      	lsrs	r3, r3, #7
 8001df6:	b2db      	uxtb	r3, r3
 8001df8:	f003 0301 	and.w	r3, r3, #1
 8001dfc:	b2da      	uxtb	r2, r3
 8001dfe:	7c3b      	ldrb	r3, [r7, #16]
 8001e00:	f362 0341 	bfi	r3, r2, #1, #1
 8001e04:	743b      	strb	r3, [r7, #16]
		ret = iis3dwb_write_reg (ctx, IIS3DWB_CTRL1_XL, (uint8_t*)&ctrl1_xl, 1);
 8001e06:	f107 0210 	add.w	r2, r7, #16
 8001e0a:	2301      	movs	r3, #1
 8001e0c:	2110      	movs	r1, #16
 8001e0e:	6878      	ldr	r0, [r7, #4]
 8001e10:	f7ff fde3 	bl	80019da <iis3dwb_write_reg>
 8001e14:	6178      	str	r0, [r7, #20]
	}
	if (ret == 0)
 8001e16:	697b      	ldr	r3, [r7, #20]
 8001e18:	2b00      	cmp	r3, #0
 8001e1a:	d107      	bne.n	8001e2c <iis3dwb_xl_hp_path_on_out_set+0x5c>
	{
		ret = iis3dwb_read_reg (ctx, IIS3DWB_CTRL8_XL, (uint8_t*)&ctrl8_xl, 1);
 8001e1c:	f107 020c 	add.w	r2, r7, #12
 8001e20:	2301      	movs	r3, #1
 8001e22:	2117      	movs	r1, #23
 8001e24:	6878      	ldr	r0, [r7, #4]
 8001e26:	f7ff fdc0 	bl	80019aa <iis3dwb_read_reg>
 8001e2a:	6178      	str	r0, [r7, #20]
	}
	if (ret == 0)
 8001e2c:	697b      	ldr	r3, [r7, #20]
 8001e2e:	2b00      	cmp	r3, #0
 8001e30:	d121      	bne.n	8001e76 <iis3dwb_xl_hp_path_on_out_set+0xa6>
	{
		ctrl8_xl.fds = ((uint8_t)val & 0x10U) >> 4;
 8001e32:	78fb      	ldrb	r3, [r7, #3]
 8001e34:	091b      	lsrs	r3, r3, #4
 8001e36:	f003 0301 	and.w	r3, r3, #1
 8001e3a:	b2da      	uxtb	r2, r3
 8001e3c:	7b3b      	ldrb	r3, [r7, #12]
 8001e3e:	f362 0382 	bfi	r3, r2, #2, #1
 8001e42:	733b      	strb	r3, [r7, #12]
		ctrl8_xl.hp_ref_mode_xl = ((uint8_t)val & 0x20U) >> 5;
 8001e44:	78fb      	ldrb	r3, [r7, #3]
 8001e46:	095b      	lsrs	r3, r3, #5
 8001e48:	f003 0301 	and.w	r3, r3, #1
 8001e4c:	b2da      	uxtb	r2, r3
 8001e4e:	7b3b      	ldrb	r3, [r7, #12]
 8001e50:	f362 1304 	bfi	r3, r2, #4, #1
 8001e54:	733b      	strb	r3, [r7, #12]
		ctrl8_xl.hpcf_xl = (uint8_t)val & 0x07U;
 8001e56:	78fb      	ldrb	r3, [r7, #3]
 8001e58:	f003 0307 	and.w	r3, r3, #7
 8001e5c:	b2da      	uxtb	r2, r3
 8001e5e:	7b3b      	ldrb	r3, [r7, #12]
 8001e60:	f362 1347 	bfi	r3, r2, #5, #3
 8001e64:	733b      	strb	r3, [r7, #12]
		ret = iis3dwb_write_reg  (ctx, IIS3DWB_CTRL8_XL, (uint8_t*)&ctrl8_xl, 1);
 8001e66:	f107 020c 	add.w	r2, r7, #12
 8001e6a:	2301      	movs	r3, #1
 8001e6c:	2117      	movs	r1, #23
 8001e6e:	6878      	ldr	r0, [r7, #4]
 8001e70:	f7ff fdb3 	bl	80019da <iis3dwb_write_reg>
 8001e74:	6178      	str	r0, [r7, #20]
	}
	return ret;
 8001e76:	697b      	ldr	r3, [r7, #20]
}
 8001e78:	4618      	mov	r0, r3
 8001e7a:	3718      	adds	r7, #24
 8001e7c:	46bd      	mov	sp, r7
 8001e7e:	bd80      	pop	{r7, pc}

08001e80 <__NVIC_SystemReset>:
/**
  \brief   System Reset
  \details Initiates a system reset request to reset the MCU.
 */
__NO_RETURN __STATIC_INLINE void __NVIC_SystemReset(void)
{
 8001e80:	b480      	push	{r7}
 8001e82:	af00      	add	r7, sp, #0
  \details Acts as a special kind of Data Memory Barrier.
           It completes when all explicit memory accesses before this instruction complete.
 */
__STATIC_FORCEINLINE void __DSB(void)
{
  __ASM volatile ("dsb 0xF":::"memory");
 8001e84:	f3bf 8f4f 	dsb	sy
}
 8001e88:	bf00      	nop
  __DSB();                                                          /* Ensure all outstanding memory accesses included
                                                                       buffered write are completed before reset */
  SCB->AIRCR  = (uint32_t)((0x5FAUL << SCB_AIRCR_VECTKEY_Pos)    |
                           (SCB->AIRCR & SCB_AIRCR_PRIGROUP_Msk) |
 8001e8a:	4b06      	ldr	r3, [pc, #24]	; (8001ea4 <__NVIC_SystemReset+0x24>)
 8001e8c:	68db      	ldr	r3, [r3, #12]
 8001e8e:	f403 62e0 	and.w	r2, r3, #1792	; 0x700
  SCB->AIRCR  = (uint32_t)((0x5FAUL << SCB_AIRCR_VECTKEY_Pos)    |
 8001e92:	4904      	ldr	r1, [pc, #16]	; (8001ea4 <__NVIC_SystemReset+0x24>)
 8001e94:	4b04      	ldr	r3, [pc, #16]	; (8001ea8 <__NVIC_SystemReset+0x28>)
 8001e96:	4313      	orrs	r3, r2
 8001e98:	60cb      	str	r3, [r1, #12]
  __ASM volatile ("dsb 0xF":::"memory");
 8001e9a:	f3bf 8f4f 	dsb	sy
}
 8001e9e:	bf00      	nop
                            SCB_AIRCR_SYSRESETREQ_Msk    );         /* Keep priority group unchanged */
  __DSB();                                                          /* Ensure completion of memory access */

  for(;;)                                                           /* wait until reset */
  {
    __NOP();
 8001ea0:	bf00      	nop
 8001ea2:	e7fd      	b.n	8001ea0 <__NVIC_SystemReset+0x20>
 8001ea4:	e000ed00 	.word	0xe000ed00
 8001ea8:	05fa0004 	.word	0x05fa0004

08001eac <main>:
/**
  * @brief  The application entry point.
  * @retval int
  */
int main(void)
{
 8001eac:	b5b0      	push	{r4, r5, r7, lr}
 8001eae:	b088      	sub	sp, #32
 8001eb0:	af00      	add	r7, sp, #0
  /* USER CODE END 1 */

  /* MCU Configuration--------------------------------------------------------*/

  /* Reset of all peripherals, Initializes the Flash interface and the Systick. */
  HAL_Init();
 8001eb2:	f002 fe80 	bl	8004bb6 <HAL_Init>

  /* USER CODE BEGIN Init */
  iniciou_data = 0; // para controle da inicialização do RTC
 8001eb6:	4bb7      	ldr	r3, [pc, #732]	; (8002194 <main+0x2e8>)
 8001eb8:	2200      	movs	r2, #0
 8001eba:	701a      	strb	r2, [r3, #0]
  /* USER CODE END Init */

  /* Configure the system clock */
  SystemClock_Config();
 8001ebc:	f000 fc00 	bl	80026c0 <SystemClock_Config>

/* Configure the peripherals common clocks */
  PeriphCommonClock_Config();
 8001ec0:	f000 fc60 	bl	8002784 <PeriphCommonClock_Config>
  /* USER CODE BEGIN SysInit */

  /* USER CODE END SysInit */

  /* Initialize all configured peripherals */
  MX_GPIO_Init();
 8001ec4:	f000 ff8e 	bl	8002de4 <MX_GPIO_Init>
  MX_RTC_Init();
 8001ec8:	f000 fdcc 	bl	8002a64 <MX_RTC_Init>
  MX_ADC1_Init();
 8001ecc:	f000 fc8a 	bl	80027e4 <MX_ADC1_Init>
  MX_ADC2_Init();
 8001ed0:	f000 fd00 	bl	80028d4 <MX_ADC2_Init>
  MX_ADC3_Init();
 8001ed4:	f000 fd62 	bl	800299c <MX_ADC3_Init>
  MX_SPI1_Init();
 8001ed8:	f000 feba 	bl	8002c50 <MX_SPI1_Init>
  MX_SPI2_Init();
 8001edc:	f000 fef6 	bl	8002ccc <MX_SPI2_Init>
  MX_TIM2_Init();
 8001ee0:	f000 ff32 	bl	8002d48 <MX_TIM2_Init>
  MX_USB_DEVICE_Init();
 8001ee4:	f00c fed8 	bl	800ec98 <MX_USB_DEVICE_Init>
  /* USER CODE BEGIN 2 */
	PWM_Timer2(1);
 8001ee8:	2201      	movs	r2, #1
 8001eea:	f44f 7180 	mov.w	r1, #256	; 0x100
 8001eee:	f04f 4090 	mov.w	r0, #1207959552	; 0x48000000
 8001ef2:	f005 f843 	bl	8006f7c <HAL_GPIO_WritePin>
	PWM_ACC2(1);
 8001ef6:	2201      	movs	r2, #1
 8001ef8:	f44f 7100 	mov.w	r1, #512	; 0x200
 8001efc:	f04f 4090 	mov.w	r0, #1207959552	; 0x48000000
 8001f00:	f005 f83c 	bl	8006f7c <HAL_GPIO_WritePin>
	transmitindo = 0;
 8001f04:	4ba4      	ldr	r3, [pc, #656]	; (8002198 <main+0x2ec>)
 8001f06:	2200      	movs	r2, #0
 8001f08:	601a      	str	r2, [r3, #0]
	PWM_RF2(1);
 8001f0a:	2201      	movs	r2, #1
 8001f0c:	f44f 6180 	mov.w	r1, #1024	; 0x400
 8001f10:	f04f 4090 	mov.w	r0, #1207959552	; 0x48000000
 8001f14:	f005 f832 	bl	8006f7c <HAL_GPIO_WritePin>
    //=============================================================================================
    // Inicia variáveis
  	RF_Recepcao = 0;
 8001f18:	4ba0      	ldr	r3, [pc, #640]	; (800219c <main+0x2f0>)
 8001f1a:	2200      	movs	r2, #0
 8001f1c:	701a      	strb	r2, [r3, #0]
  	Iniciou_rx_val = 0;
 8001f1e:	4ba0      	ldr	r3, [pc, #640]	; (80021a0 <main+0x2f4>)
 8001f20:	2200      	movs	r2, #0
 8001f22:	701a      	strb	r2, [r3, #0]
	//====================================================================================
	// Checa se foi resetado pelo RTC Wakeup
	if (__HAL_PWR_GET_FLAG (PWR_FLAG_SB) != RESET)
 8001f24:	4b9f      	ldr	r3, [pc, #636]	; (80021a4 <main+0x2f8>)
 8001f26:	691b      	ldr	r3, [r3, #16]
 8001f28:	f403 7380 	and.w	r3, r3, #256	; 0x100
 8001f2c:	2b00      	cmp	r3, #0
 8001f2e:	d006      	beq.n	8001f3e <main+0x92>
	{
		// clear the flag
		__HAL_PWR_CLEAR_FLAG (PWR_FLAG_SB);
 8001f30:	4b9c      	ldr	r3, [pc, #624]	; (80021a4 <main+0x2f8>)
 8001f32:	f44f 7280 	mov.w	r2, #256	; 0x100
 8001f36:	619a      	str	r2, [r3, #24]
		// Deactivate the RTC wakeup
		HAL_RTCEx_DeactivateWakeUpTimer (&hrtc);
 8001f38:	489b      	ldr	r0, [pc, #620]	; (80021a8 <main+0x2fc>)
 8001f3a:	f008 fb45 	bl	800a5c8 <HAL_RTCEx_DeactivateWakeUpTimer>
	}
	//====================================================================================
	// Inicia Timer Interrupt
	HAL_TIM_Base_Start_IT (&htim2);
 8001f3e:	489b      	ldr	r0, [pc, #620]	; (80021ac <main+0x300>)
 8001f40:	f009 fb42 	bl	800b5c8 <HAL_TIM_Base_Start_IT>

	//====================================================================================
	// Coleta Unique ID
	UID_Word0 = HAL_GetUIDw0 ();
 8001f44:	f002 fed0 	bl	8004ce8 <HAL_GetUIDw0>
 8001f48:	4603      	mov	r3, r0
 8001f4a:	4a99      	ldr	r2, [pc, #612]	; (80021b0 <main+0x304>)
 8001f4c:	6013      	str	r3, [r2, #0]
  	UID_Word1 = HAL_GetUIDw1 ();
 8001f4e:	f002 fed7 	bl	8004d00 <HAL_GetUIDw1>
 8001f52:	4603      	mov	r3, r0
 8001f54:	4a97      	ldr	r2, [pc, #604]	; (80021b4 <main+0x308>)
 8001f56:	6013      	str	r3, [r2, #0]
  	UID_Word2 = HAL_GetUIDw2 ();
 8001f58:	f002 fede 	bl	8004d18 <HAL_GetUIDw2>
 8001f5c:	4603      	mov	r3, r0
 8001f5e:	4a96      	ldr	r2, [pc, #600]	; (80021b8 <main+0x30c>)
 8001f60:	6013      	str	r3, [r2, #0]

	//============================Mudar aqui o tempo de envio=============================
#ifdef TESTE_WAKEUP
	Delta_Time_s = 5*60; // Período de cada transmissão (minutos*60) ou (Horas*60*60)
#else
	Delta_Time_s = 5*60; // Período de cada transmissão (minutos*60) ou (Horas*60*60)
 8001f62:	4b96      	ldr	r3, [pc, #600]	; (80021bc <main+0x310>)
 8001f64:	f44f 7296 	mov.w	r2, #300	; 0x12c
 8001f68:	601a      	str	r2, [r3, #0]
#endif
	//************************************************************************************
	//============================Mudar aqui o ID do sensor===============================

	ID_2667; // <<< Alterar o númeor do sensor aqui, TEM QUER SER ID_XXXX*****************
 8001f6a:	4b95      	ldr	r3, [pc, #596]	; (80021c0 <main+0x314>)
 8001f6c:	463c      	mov	r4, r7
 8001f6e:	461d      	mov	r5, r3
 8001f70:	cd0f      	ldmia	r5!, {r0, r1, r2, r3}
 8001f72:	c40f      	stmia	r4!, {r0, r1, r2, r3}
 8001f74:	e895 000f 	ldmia.w	r5, {r0, r1, r2, r3}
 8001f78:	c407      	stmia	r4!, {r0, r1, r2}
 8001f7a:	8023      	strh	r3, [r4, #0]
	Le_Qual_Eixo = 2; // Aqui tem que estar "branco" (não cinza) quando só quer o Eixo Z
	qual_eixo = 2;
#endif
	// 2400, 4800, 9600, 19200, 38400, 57600, 76800, 115200 e 230400

	BAUD_RATE = 76800;
 8001f7c:	4b91      	ldr	r3, [pc, #580]	; (80021c4 <main+0x318>)
 8001f7e:	f44f 3296 	mov.w	r2, #76800	; 0x12c00
 8001f82:	601a      	str	r2, [r3, #0]

	// 150,151,152,153,154,155,156,157,158,159,160,161,162,163,164,165,166,167,168,169,170,171,172,173,173.81,174
	// Tem que colocar em kHz, 150MHz tem que colocar 150000
	FREQUENCIA_TX = 168000;
 8001f84:	4b90      	ldr	r3, [pc, #576]	; (80021c8 <main+0x31c>)
 8001f86:	4a91      	ldr	r2, [pc, #580]	; (80021cc <main+0x320>)
 8001f88:	601a      	str	r2, [r3, #0]
	FREQUENCIA_RX = 168000;
 8001f8a:	4b91      	ldr	r3, [pc, #580]	; (80021d0 <main+0x324>)
 8001f8c:	4a8f      	ldr	r2, [pc, #572]	; (80021cc <main+0x320>)
 8001f8e:	601a      	str	r2, [r3, #0]
	FREQUENCIA_RX_VAL = 168000;
 8001f90:	4b90      	ldr	r3, [pc, #576]	; (80021d4 <main+0x328>)
 8001f92:	4a8e      	ldr	r2, [pc, #568]	; (80021cc <main+0x320>)
 8001f94:	601a      	str	r2, [r3, #0]

	TX_curto = 0;
 8001f96:	4b90      	ldr	r3, [pc, #576]	; (80021d8 <main+0x32c>)
 8001f98:	2200      	movs	r2, #0
 8001f9a:	701a      	strb	r2, [r3, #0]

	//====================================================================================
	// Desliga periféricos (para garantir, na inicialização já está na condição de desligado)
	Desliga_Spirit1 ();
 8001f9c:	f001 fc02 	bl	80037a4 <Desliga_Spirit1>
	PWR1_ADC(GPIO_PIN_RESET);
 8001fa0:	2200      	movs	r2, #0
 8001fa2:	2101      	movs	r1, #1
 8001fa4:	f04f 4090 	mov.w	r0, #1207959552	; 0x48000000
 8001fa8:	f004 ffe8 	bl	8006f7c <HAL_GPIO_WritePin>
	PWR2_ADC(GPIO_PIN_RESET);
 8001fac:	2200      	movs	r2, #0
 8001fae:	2102      	movs	r1, #2
 8001fb0:	f04f 4090 	mov.w	r0, #1207959552	; 0x48000000
 8001fb4:	f004 ffe2 	bl	8006f7c <HAL_GPIO_WritePin>
	PWR1_ACCEL(GPIO_PIN_RESET); // Desliga Acelerômetro 16G PWR1
 8001fb8:	2200      	movs	r2, #0
 8001fba:	f44f 7180 	mov.w	r1, #256	; 0x100
 8001fbe:	4887      	ldr	r0, [pc, #540]	; (80021dc <main+0x330>)
 8001fc0:	f004 ffdc 	bl	8006f7c <HAL_GPIO_WritePin>
	PWR2_ACCEL(GPIO_PIN_RESET); // Desliga Acelerômetro 16G PWR2
 8001fc4:	2200      	movs	r2, #0
 8001fc6:	f44f 7100 	mov.w	r1, #512	; 0x200
 8001fca:	4884      	ldr	r0, [pc, #528]	; (80021dc <main+0x330>)
 8001fcc:	f004 ffd6 	bl	8006f7c <HAL_GPIO_WritePin>
	ACCEL_CS(GPIO_PIN_RESET);
 8001fd0:	2200      	movs	r2, #0
 8001fd2:	f44f 5180 	mov.w	r1, #4096	; 0x1000
 8001fd6:	4882      	ldr	r0, [pc, #520]	; (80021e0 <main+0x334>)
 8001fd8:	f004 ffd0 	bl	8006f7c <HAL_GPIO_WritePin>
	//====================================================================================
	SPI_RF = hspi1;
 8001fdc:	4a81      	ldr	r2, [pc, #516]	; (80021e4 <main+0x338>)
 8001fde:	4b82      	ldr	r3, [pc, #520]	; (80021e8 <main+0x33c>)
 8001fe0:	4610      	mov	r0, r2
 8001fe2:	4619      	mov	r1, r3
 8001fe4:	2364      	movs	r3, #100	; 0x64
 8001fe6:	461a      	mov	r2, r3
 8001fe8:	f00d fc84 	bl	800f8f4 <memcpy>
	SPI_ACC = hspi2;
 8001fec:	4a7f      	ldr	r2, [pc, #508]	; (80021ec <main+0x340>)
 8001fee:	4b80      	ldr	r3, [pc, #512]	; (80021f0 <main+0x344>)
 8001ff0:	4610      	mov	r0, r2
 8001ff2:	4619      	mov	r1, r3
 8001ff4:	2364      	movs	r3, #100	; 0x64
 8001ff6:	461a      	mov	r2, r3
 8001ff8:	f00d fc7c 	bl	800f8f4 <memcpy>
  /* USER CODE END 2 */

  /* Infinite loop */
  /* USER CODE BEGIN WHILE */
	//====================================================================================
	qual_eixo = Le_Qual_Eixo; //Le_Qual_Eixo controle de eixo lido controlado na RAM2
 8001ffc:	4b7d      	ldr	r3, [pc, #500]	; (80021f4 <main+0x348>)
 8001ffe:	681b      	ldr	r3, [r3, #0]
 8002000:	b2da      	uxtb	r2, r3
 8002002:	4b7d      	ldr	r3, [pc, #500]	; (80021f8 <main+0x34c>)
 8002004:	701a      	strb	r2, [r3, #0]
	Estado_Leitura = EST_SENSOR16G_INIT; //EST_ESPERA_PARAMETROS;
 8002006:	4b7d      	ldr	r3, [pc, #500]	; (80021fc <main+0x350>)
 8002008:	2201      	movs	r2, #1
 800200a:	701a      	strb	r2, [r3, #0]
#ifndef	SOMENTE_EIXO_Z
	if (qual_eixo > 2)
 800200c:	4b7a      	ldr	r3, [pc, #488]	; (80021f8 <main+0x34c>)
 800200e:	781b      	ldrb	r3, [r3, #0]
 8002010:	2b02      	cmp	r3, #2
 8002012:	d908      	bls.n	8002026 <main+0x17a>
	{
		Le_Qual_Eixo = 2; // Eixo Z
 8002014:	4b77      	ldr	r3, [pc, #476]	; (80021f4 <main+0x348>)
 8002016:	2202      	movs	r2, #2
 8002018:	601a      	str	r2, [r3, #0]
		qual_eixo = 2;
 800201a:	4b77      	ldr	r3, [pc, #476]	; (80021f8 <main+0x34c>)
 800201c:	2202      	movs	r2, #2
 800201e:	701a      	strb	r2, [r3, #0]
		Transmitiu_X = 29;
 8002020:	4b77      	ldr	r3, [pc, #476]	; (8002200 <main+0x354>)
 8002022:	221d      	movs	r2, #29
 8002024:	601a      	str	r2, [r3, #0]
#else
	Le_Qual_Eixo = 2; // Eixo Z
	qual_eixo = 2;
	Transmitiu_X = 29;
#endif
	transmitindo = 0;
 8002026:	4b5c      	ldr	r3, [pc, #368]	; (8002198 <main+0x2ec>)
 8002028:	2200      	movs	r2, #0
 800202a:	601a      	str	r2, [r3, #0]
//===========================================================================================================
//===========================================================================================================
  while (1)
  {
		switch (Estado_Leitura)
 800202c:	4b73      	ldr	r3, [pc, #460]	; (80021fc <main+0x350>)
 800202e:	781b      	ldrb	r3, [r3, #0]
 8002030:	3b01      	subs	r3, #1
 8002032:	2b03      	cmp	r3, #3
 8002034:	f200 8328 	bhi.w	8002688 <main+0x7dc>
 8002038:	a201      	add	r2, pc, #4	; (adr r2, 8002040 <main+0x194>)
 800203a:	f852 f023 	ldr.w	pc, [r2, r3, lsl #2]
 800203e:	bf00      	nop
 8002040:	08002051 	.word	0x08002051
 8002044:	080020bd 	.word	0x080020bd
 8002048:	0800212f 	.word	0x0800212f
 800204c:	080023f1 	.word	0x080023f1
		{
		case EST_SENSOR16G_INIT:
			PWR1_ADC(GPIO_PIN_SET);
 8002050:	2201      	movs	r2, #1
 8002052:	2101      	movs	r1, #1
 8002054:	f04f 4090 	mov.w	r0, #1207959552	; 0x48000000
 8002058:	f004 ff90 	bl	8006f7c <HAL_GPIO_WritePin>
			PWR2_ADC(GPIO_PIN_SET);
 800205c:	2201      	movs	r2, #1
 800205e:	2102      	movs	r1, #2
 8002060:	f04f 4090 	mov.w	r0, #1207959552	; 0x48000000
 8002064:	f004 ff8a 	bl	8006f7c <HAL_GPIO_WritePin>
			// Inicia condições para leitura do acelerômetro
			RF_Recepcao = 0;
 8002068:	4b4c      	ldr	r3, [pc, #304]	; (800219c <main+0x2f0>)
 800206a:	2200      	movs	r2, #0
 800206c:	701a      	strb	r2, [r3, #0]
			inicializar_iis3dwb = 1;
 800206e:	4b65      	ldr	r3, [pc, #404]	; (8002204 <main+0x358>)
 8002070:	2201      	movs	r2, #1
 8002072:	701a      	strb	r2, [r3, #0]
			//=====================================================================================
			// Ligar Acelerômetro 16G
			// ACC 16G
			PWR1_ACCEL(GPIO_PIN_SET);
 8002074:	2201      	movs	r2, #1
 8002076:	f44f 7180 	mov.w	r1, #256	; 0x100
 800207a:	4858      	ldr	r0, [pc, #352]	; (80021dc <main+0x330>)
 800207c:	f004 ff7e 	bl	8006f7c <HAL_GPIO_WritePin>
			PWR2_ACCEL(GPIO_PIN_SET);
 8002080:	2201      	movs	r2, #1
 8002082:	f44f 7100 	mov.w	r1, #512	; 0x200
 8002086:	4855      	ldr	r0, [pc, #340]	; (80021dc <main+0x330>)
 8002088:	f004 ff78 	bl	8006f7c <HAL_GPIO_WritePin>
			delay_ms (10);// um atraso de 10ms para estabilizar tensão
 800208c:	200a      	movs	r0, #10
 800208e:	f7ff f8a7 	bl	80011e0 <delay_ms>
			ACCEL_CS(GPIO_PIN_RESET);
 8002092:	2200      	movs	r2, #0
 8002094:	f44f 5180 	mov.w	r1, #4096	; 0x1000
 8002098:	4851      	ldr	r0, [pc, #324]	; (80021e0 <main+0x334>)
 800209a:	f004 ff6f 	bl	8006f7c <HAL_GPIO_WritePin>
			//=====================================================================================
			MX_ADC1_Init();
 800209e:	f000 fba1 	bl	80027e4 <MX_ADC1_Init>
			MX_ADC2_Init();
 80020a2:	f000 fc17 	bl	80028d4 <MX_ADC2_Init>
			MX_ADC3_Init();
 80020a6:	f000 fc79 	bl	800299c <MX_ADC3_Init>
			Coleta_Data_Hora ();
 80020aa:	f001 fbad 	bl	8003808 <Coleta_Data_Hora>
			Estado_Leitura = EST_SENSOR16G_READ;
 80020ae:	4b53      	ldr	r3, [pc, #332]	; (80021fc <main+0x350>)
 80020b0:	2202      	movs	r2, #2
 80020b2:	701a      	strb	r2, [r3, #0]
			tttc_conf_Acc = 0;
 80020b4:	4b54      	ldr	r3, [pc, #336]	; (8002208 <main+0x35c>)
 80020b6:	2200      	movs	r2, #0
 80020b8:	701a      	strb	r2, [r3, #0]
			break;
 80020ba:	e2ec      	b.n	8002696 <main+0x7ea>
		case EST_SENSOR16G_READ:
			iis3dwb_read_data_polling ();
 80020bc:	f7ff f8a8 	bl	8001210 <iis3dwb_read_data_polling>
			if ((Estado_Leitura != EST_SENSOR16G_READ) || (tttc_conf_Acc >= 5))
 80020c0:	4b4e      	ldr	r3, [pc, #312]	; (80021fc <main+0x350>)
 80020c2:	781b      	ldrb	r3, [r3, #0]
 80020c4:	2b02      	cmp	r3, #2
 80020c6:	d104      	bne.n	80020d2 <main+0x226>
 80020c8:	4b4f      	ldr	r3, [pc, #316]	; (8002208 <main+0x35c>)
 80020ca:	781b      	ldrb	r3, [r3, #0]
 80020cc:	2b04      	cmp	r3, #4
 80020ce:	f240 82df 	bls.w	8002690 <main+0x7e4>
			{
				//==============================================================
				// Desliga Acelerômetro 16G
				PWR1_ACCEL(GPIO_PIN_RESET);
 80020d2:	2200      	movs	r2, #0
 80020d4:	f44f 7180 	mov.w	r1, #256	; 0x100
 80020d8:	4840      	ldr	r0, [pc, #256]	; (80021dc <main+0x330>)
 80020da:	f004 ff4f 	bl	8006f7c <HAL_GPIO_WritePin>
				PWR2_ACCEL(GPIO_PIN_RESET);
 80020de:	2200      	movs	r2, #0
 80020e0:	f44f 7100 	mov.w	r1, #512	; 0x200
 80020e4:	483d      	ldr	r0, [pc, #244]	; (80021dc <main+0x330>)
 80020e6:	f004 ff49 	bl	8006f7c <HAL_GPIO_WritePin>
				ACCEL_CS(GPIO_PIN_SET);
 80020ea:	2201      	movs	r2, #1
 80020ec:	f44f 5180 	mov.w	r1, #4096	; 0x1000
 80020f0:	483b      	ldr	r0, [pc, #236]	; (80021e0 <main+0x334>)
 80020f2:	f004 ff43 	bl	8006f7c <HAL_GPIO_WritePin>
				PWM_ACC2(1);
 80020f6:	2201      	movs	r2, #1
 80020f8:	f44f 7100 	mov.w	r1, #512	; 0x200
 80020fc:	f04f 4090 	mov.w	r0, #1207959552	; 0x48000000
 8002100:	f004 ff3c 	bl	8006f7c <HAL_GPIO_WritePin>
				//==============================================================
				if (tttc_conf_Acc < 5)
 8002104:	4b40      	ldr	r3, [pc, #256]	; (8002208 <main+0x35c>)
 8002106:	781b      	ldrb	r3, [r3, #0]
 8002108:	2b04      	cmp	r3, #4
 800210a:	d803      	bhi.n	8002114 <main+0x268>
				{
					Estado_Leitura = EST_TRANSMIT_RF;
 800210c:	4b3b      	ldr	r3, [pc, #236]	; (80021fc <main+0x350>)
 800210e:	2203      	movs	r2, #3
 8002110:	701a      	strb	r2, [r3, #0]
 8002112:	e002      	b.n	800211a <main+0x26e>
				}
				else
				{
					Estado_Leitura = EST_DORMIR;
 8002114:	4b39      	ldr	r3, [pc, #228]	; (80021fc <main+0x350>)
 8002116:	2204      	movs	r2, #4
 8002118:	701a      	strb	r2, [r3, #0]
				}
				time_out_RF = tickseg/10; // 100ms
 800211a:	4b3c      	ldr	r3, [pc, #240]	; (800220c <main+0x360>)
 800211c:	2204      	movs	r2, #4
 800211e:	601a      	str	r2, [r3, #0]
				Int_GPIO3 = 0;
 8002120:	4b3b      	ldr	r3, [pc, #236]	; (8002210 <main+0x364>)
 8002122:	2200      	movs	r2, #0
 8002124:	601a      	str	r2, [r3, #0]
				HAL_NVIC_EnableIRQ (EXTI1_IRQn); // Habilita external interrupt SPIRIT1_GPIO3
 8002126:	2007      	movs	r0, #7
 8002128:	f004 fd6d 	bl	8006c06 <HAL_NVIC_EnableIRQ>
			}
			break;
 800212c:	e2b0      	b.n	8002690 <main+0x7e4>
		case EST_TRANSMIT_RF:
			if (!time_out_RF)
 800212e:	4b37      	ldr	r3, [pc, #220]	; (800220c <main+0x360>)
 8002130:	681b      	ldr	r3, [r3, #0]
 8002132:	2b00      	cmp	r3, #0
 8002134:	f040 82ae 	bne.w	8002694 <main+0x7e8>
			{
				//====================================================================================
				// Leio Temperaturas e tensão da Bateria
				Leitura_ADC ();
 8002138:	f001 fbb6 	bl	80038a8 <Leitura_ADC>
				//====================================================================================
				// dados do sensor
				J = 0;
 800213c:	4b35      	ldr	r3, [pc, #212]	; (8002214 <main+0x368>)
 800213e:	2200      	movs	r2, #0
 8002140:	601a      	str	r2, [r3, #0]
				for (I = 0; I < TAMANHO_ID; I++)
 8002142:	4b35      	ldr	r3, [pc, #212]	; (8002218 <main+0x36c>)
 8002144:	2200      	movs	r2, #0
 8002146:	601a      	str	r2, [r3, #0]
 8002148:	e01e      	b.n	8002188 <main+0x2dc>
				{
					if (ID_Sensor_1000[I] != '#')
 800214a:	4b33      	ldr	r3, [pc, #204]	; (8002218 <main+0x36c>)
 800214c:	681b      	ldr	r3, [r3, #0]
 800214e:	f107 0220 	add.w	r2, r7, #32
 8002152:	4413      	add	r3, r2
 8002154:	f813 3c20 	ldrb.w	r3, [r3, #-32]
 8002158:	2b23      	cmp	r3, #35	; 0x23
 800215a:	d061      	beq.n	8002220 <main+0x374>
					{
						// Posição 22 é a posição livre do pacote de dados para envio via RF
						tx_buffer[0][22+I] = ID_Sensor_1000[I];
 800215c:	4b2e      	ldr	r3, [pc, #184]	; (8002218 <main+0x36c>)
 800215e:	681a      	ldr	r2, [r3, #0]
 8002160:	4b2d      	ldr	r3, [pc, #180]	; (8002218 <main+0x36c>)
 8002162:	681b      	ldr	r3, [r3, #0]
 8002164:	3316      	adds	r3, #22
 8002166:	f107 0120 	add.w	r1, r7, #32
 800216a:	440a      	add	r2, r1
 800216c:	f812 1c20 	ldrb.w	r1, [r2, #-32]
 8002170:	4a2a      	ldr	r2, [pc, #168]	; (800221c <main+0x370>)
 8002172:	54d1      	strb	r1, [r2, r3]
						J += 1;
 8002174:	4b27      	ldr	r3, [pc, #156]	; (8002214 <main+0x368>)
 8002176:	681b      	ldr	r3, [r3, #0]
 8002178:	3301      	adds	r3, #1
 800217a:	4a26      	ldr	r2, [pc, #152]	; (8002214 <main+0x368>)
 800217c:	6013      	str	r3, [r2, #0]
				for (I = 0; I < TAMANHO_ID; I++)
 800217e:	4b26      	ldr	r3, [pc, #152]	; (8002218 <main+0x36c>)
 8002180:	681b      	ldr	r3, [r3, #0]
 8002182:	3301      	adds	r3, #1
 8002184:	4a24      	ldr	r2, [pc, #144]	; (8002218 <main+0x36c>)
 8002186:	6013      	str	r3, [r2, #0]
 8002188:	4b23      	ldr	r3, [pc, #140]	; (8002218 <main+0x36c>)
 800218a:	681b      	ldr	r3, [r3, #0]
 800218c:	2b1d      	cmp	r3, #29
 800218e:	dddc      	ble.n	800214a <main+0x29e>
 8002190:	e047      	b.n	8002222 <main+0x376>
 8002192:	bf00      	nop
 8002194:	10000000 	.word	0x10000000
 8002198:	200071ac 	.word	0x200071ac
 800219c:	2000d5bc 	.word	0x2000d5bc
 80021a0:	200004c8 	.word	0x200004c8
 80021a4:	40007000 	.word	0x40007000
 80021a8:	20013a7c 	.word	0x20013a7c
 80021ac:	20013b78 	.word	0x20013b78
 80021b0:	2000d538 	.word	0x2000d538
 80021b4:	2000d5d0 	.word	0x2000d5d0
 80021b8:	200004b8 	.word	0x200004b8
 80021bc:	2000d5ac 	.word	0x2000d5ac
 80021c0:	0800f938 	.word	0x0800f938
 80021c4:	200139a4 	.word	0x200139a4
 80021c8:	20013a78 	.word	0x20013a78
 80021cc:	00029040 	.word	0x00029040
 80021d0:	20013858 	.word	0x20013858
 80021d4:	20013934 	.word	0x20013934
 80021d8:	2000719e 	.word	0x2000719e
 80021dc:	48000800 	.word	0x48000800
 80021e0:	48000400 	.word	0x48000400
 80021e4:	2000d544 	.word	0x2000d544
 80021e8:	20013b14 	.word	0x20013b14
 80021ec:	20000500 	.word	0x20000500
 80021f0:	200138d0 	.word	0x200138d0
 80021f4:	100061b0 	.word	0x100061b0
 80021f8:	20000588 	.word	0x20000588
 80021fc:	2000d540 	.word	0x2000d540
 8002200:	100061b8 	.word	0x100061b8
 8002204:	2000058b 	.word	0x2000058b
 8002208:	2000056c 	.word	0x2000056c
 800220c:	200004c0 	.word	0x200004c0
 8002210:	200004ec 	.word	0x200004ec
 8002214:	20000960 	.word	0x20000960
 8002218:	2000d5b4 	.word	0x2000d5b4
 800221c:	20000968 	.word	0x20000968
					}
					else
					{
						break;
 8002220:	bf00      	nop
					}
				}
				if (qual_eixo == 2)	tx_buffer[0][22+J] = 'z';
 8002222:	4b63      	ldr	r3, [pc, #396]	; (80023b0 <main+0x504>)
 8002224:	781b      	ldrb	r3, [r3, #0]
 8002226:	2b02      	cmp	r3, #2
 8002228:	d105      	bne.n	8002236 <main+0x38a>
 800222a:	4b62      	ldr	r3, [pc, #392]	; (80023b4 <main+0x508>)
 800222c:	681b      	ldr	r3, [r3, #0]
 800222e:	3316      	adds	r3, #22
 8002230:	4a61      	ldr	r2, [pc, #388]	; (80023b8 <main+0x50c>)
 8002232:	217a      	movs	r1, #122	; 0x7a
 8002234:	54d1      	strb	r1, [r2, r3]
				if (qual_eixo == 1)	tx_buffer[0][22+J] = 'y';
 8002236:	4b5e      	ldr	r3, [pc, #376]	; (80023b0 <main+0x504>)
 8002238:	781b      	ldrb	r3, [r3, #0]
 800223a:	2b01      	cmp	r3, #1
 800223c:	d105      	bne.n	800224a <main+0x39e>
 800223e:	4b5d      	ldr	r3, [pc, #372]	; (80023b4 <main+0x508>)
 8002240:	681b      	ldr	r3, [r3, #0]
 8002242:	3316      	adds	r3, #22
 8002244:	4a5c      	ldr	r2, [pc, #368]	; (80023b8 <main+0x50c>)
 8002246:	2179      	movs	r1, #121	; 0x79
 8002248:	54d1      	strb	r1, [r2, r3]
				if (qual_eixo == 0)	tx_buffer[0][22+J] = 'x';
 800224a:	4b59      	ldr	r3, [pc, #356]	; (80023b0 <main+0x504>)
 800224c:	781b      	ldrb	r3, [r3, #0]
 800224e:	2b00      	cmp	r3, #0
 8002250:	d105      	bne.n	800225e <main+0x3b2>
 8002252:	4b58      	ldr	r3, [pc, #352]	; (80023b4 <main+0x508>)
 8002254:	681b      	ldr	r3, [r3, #0]
 8002256:	3316      	adds	r3, #22
 8002258:	4a57      	ldr	r2, [pc, #348]	; (80023b8 <main+0x50c>)
 800225a:	2178      	movs	r1, #120	; 0x78
 800225c:	54d1      	strb	r1, [r2, r3]
				tx_buffer[0][22+J+1] = '#';
 800225e:	4b55      	ldr	r3, [pc, #340]	; (80023b4 <main+0x508>)
 8002260:	681b      	ldr	r3, [r3, #0]
 8002262:	3317      	adds	r3, #23
 8002264:	4a54      	ldr	r2, [pc, #336]	; (80023b8 <main+0x50c>)
 8002266:	2123      	movs	r1, #35	; 0x23
 8002268:	54d1      	strb	r1, [r2, r3]
				// Versao do Firmware do Sensor
				tx_buffer[0][61] = Versao[0];
 800226a:	4b54      	ldr	r3, [pc, #336]	; (80023bc <main+0x510>)
 800226c:	781a      	ldrb	r2, [r3, #0]
 800226e:	4b52      	ldr	r3, [pc, #328]	; (80023b8 <main+0x50c>)
 8002270:	f883 203d 	strb.w	r2, [r3, #61]	; 0x3d
				tx_buffer[0][62] = Versao[1];
 8002274:	4b51      	ldr	r3, [pc, #324]	; (80023bc <main+0x510>)
 8002276:	785a      	ldrb	r2, [r3, #1]
 8002278:	4b4f      	ldr	r3, [pc, #316]	; (80023b8 <main+0x50c>)
 800227a:	f883 203e 	strb.w	r2, [r3, #62]	; 0x3e
				tx_buffer[0][63] = Versao[2];
 800227e:	4b4f      	ldr	r3, [pc, #316]	; (80023bc <main+0x510>)
 8002280:	789a      	ldrb	r2, [r3, #2]
 8002282:	4b4d      	ldr	r3, [pc, #308]	; (80023b8 <main+0x50c>)
 8002284:	f883 203f 	strb.w	r2, [r3, #63]	; 0x3f
				tx_buffer[0][64] = Versao[3];
 8002288:	4b4c      	ldr	r3, [pc, #304]	; (80023bc <main+0x510>)
 800228a:	78da      	ldrb	r2, [r3, #3]
 800228c:	4b4a      	ldr	r3, [pc, #296]	; (80023b8 <main+0x50c>)
 800228e:	f883 2040 	strb.w	r2, [r3, #64]	; 0x40
				tx_buffer[0][65] = Versao[4];
 8002292:	4b4a      	ldr	r3, [pc, #296]	; (80023bc <main+0x510>)
 8002294:	791a      	ldrb	r2, [r3, #4]
 8002296:	4b48      	ldr	r3, [pc, #288]	; (80023b8 <main+0x50c>)
 8002298:	f883 2041 	strb.w	r2, [r3, #65]	; 0x41
				tx_buffer[0][66] = Versao[5];
 800229c:	4b47      	ldr	r3, [pc, #284]	; (80023bc <main+0x510>)
 800229e:	795a      	ldrb	r2, [r3, #5]
 80022a0:	4b45      	ldr	r3, [pc, #276]	; (80023b8 <main+0x50c>)
 80022a2:	f883 2042 	strb.w	r2, [r3, #66]	; 0x42
				tx_buffer[0][67] = Versao[6];
 80022a6:	4b45      	ldr	r3, [pc, #276]	; (80023bc <main+0x510>)
 80022a8:	799a      	ldrb	r2, [r3, #6]
 80022aa:	4b43      	ldr	r3, [pc, #268]	; (80023b8 <main+0x50c>)
 80022ac:	f883 2043 	strb.w	r2, [r3, #67]	; 0x43
				tx_buffer[0][68] = Versao[7];
 80022b0:	4b42      	ldr	r3, [pc, #264]	; (80023bc <main+0x510>)
 80022b2:	79da      	ldrb	r2, [r3, #7]
 80022b4:	4b40      	ldr	r3, [pc, #256]	; (80023b8 <main+0x50c>)
 80022b6:	f883 2044 	strb.w	r2, [r3, #68]	; 0x44
					// Não transmite se tensão bateria for < 3190 mV
					Estado_Leitura = EST_DORMIR;
					break;
				} */
				//====================================================================================
				tempo_decorrido = tempo_total*(1000/tickseg); // para cronometrar o tempo gasto TX-on
 80022ba:	4b41      	ldr	r3, [pc, #260]	; (80023c0 <main+0x514>)
 80022bc:	681a      	ldr	r2, [r3, #0]
 80022be:	4613      	mov	r3, r2
 80022c0:	009b      	lsls	r3, r3, #2
 80022c2:	4413      	add	r3, r2
 80022c4:	009a      	lsls	r2, r3, #2
 80022c6:	4413      	add	r3, r2
 80022c8:	4a3e      	ldr	r2, [pc, #248]	; (80023c4 <main+0x518>)
 80022ca:	6013      	str	r3, [r2, #0]
				tempo_total = 0;// para cronometrar tempo de transmissão
 80022cc:	4b3c      	ldr	r3, [pc, #240]	; (80023c0 <main+0x514>)
 80022ce:	2200      	movs	r2, #0
 80022d0:	601a      	str	r2, [r3, #0]
				//====================================================================================
				// Inicia Spirit1
				transmitindo = 1;
 80022d2:	4b3d      	ldr	r3, [pc, #244]	; (80023c8 <main+0x51c>)
 80022d4:	2201      	movs	r2, #1
 80022d6:	601a      	str	r2, [r3, #0]
				Iniciar_Spirit1 (SPIRIT1_TX, FREQUENCIA_TX);
 80022d8:	4b3c      	ldr	r3, [pc, #240]	; (80023cc <main+0x520>)
 80022da:	681b      	ldr	r3, [r3, #0]
 80022dc:	4619      	mov	r1, r3
 80022de:	2001      	movs	r0, #1
 80022e0:	f001 f80a 	bl	80032f8 <Iniciar_Spirit1>
				if (Estado_Leitura == EST_TRANSMIT_RF)
 80022e4:	4b3a      	ldr	r3, [pc, #232]	; (80023d0 <main+0x524>)
 80022e6:	781b      	ldrb	r3, [r3, #0]
 80022e8:	2b03      	cmp	r3, #3
 80022ea:	d11a      	bne.n	8002322 <main+0x476>
				{// Só transmite se o Spirit1 foi configurado
					Transmite_Pacotes ();
 80022ec:	f001 f932 	bl	8003554 <Transmite_Pacotes>
					SKY_CSD(GPIO_PIN_RESET);
 80022f0:	2200      	movs	r2, #0
 80022f2:	f44f 6100 	mov.w	r1, #2048	; 0x800
 80022f6:	4837      	ldr	r0, [pc, #220]	; (80023d4 <main+0x528>)
 80022f8:	f004 fe40 	bl	8006f7c <HAL_GPIO_WritePin>
					SKY_CTX(GPIO_PIN_RESET);
 80022fc:	2200      	movs	r2, #0
 80022fe:	2104      	movs	r1, #4
 8002300:	4834      	ldr	r0, [pc, #208]	; (80023d4 <main+0x528>)
 8002302:	f004 fe3b 	bl	8006f7c <HAL_GPIO_WritePin>
					SKY_BYP(GPIO_PIN_RESET);
 8002306:	2200      	movs	r2, #0
 8002308:	f44f 6180 	mov.w	r1, #1024	; 0x400
 800230c:	4831      	ldr	r0, [pc, #196]	; (80023d4 <main+0x528>)
 800230e:	f004 fe35 	bl	8006f7c <HAL_GPIO_WritePin>
					time_out_RF = tickseg/10; // 100ms
 8002312:	4b31      	ldr	r3, [pc, #196]	; (80023d8 <main+0x52c>)
 8002314:	2204      	movs	r2, #4
 8002316:	601a      	str	r2, [r3, #0]
					while (time_out_RF)
 8002318:	bf00      	nop
 800231a:	4b2f      	ldr	r3, [pc, #188]	; (80023d8 <main+0x52c>)
 800231c:	681b      	ldr	r3, [r3, #0]
 800231e:	2b00      	cmp	r3, #0
 8002320:	d1fb      	bne.n	800231a <main+0x46e>
					{
					}
				}
				//=============================================================================================
				// Desligar Spirit1
				Desliga_Spirit1 ();
 8002322:	f001 fa3f 	bl	80037a4 <Desliga_Spirit1>
				//==============================================
				// Para verificar quanto tempo demorou a transmissão
				tempo_decorrido = tempo_total*(1000/tickseg);
 8002326:	4b26      	ldr	r3, [pc, #152]	; (80023c0 <main+0x514>)
 8002328:	681a      	ldr	r2, [r3, #0]
 800232a:	4613      	mov	r3, r2
 800232c:	009b      	lsls	r3, r3, #2
 800232e:	4413      	add	r3, r2
 8002330:	009a      	lsls	r2, r3, #2
 8002332:	4413      	add	r3, r2
 8002334:	4a23      	ldr	r2, [pc, #140]	; (80023c4 <main+0x518>)
 8002336:	6013      	str	r3, [r2, #0]
				//==============================================
				spiritstate = RSD_RX;
 8002338:	4b28      	ldr	r3, [pc, #160]	; (80023dc <main+0x530>)
 800233a:	2203      	movs	r2, #3
 800233c:	701a      	strb	r2, [r3, #0]
				if (num_pacote >= (NUM_DE_PACOTES+1)) Transmissoes++;
 800233e:	4b28      	ldr	r3, [pc, #160]	; (80023e0 <main+0x534>)
 8002340:	881b      	ldrh	r3, [r3, #0]
 8002342:	f5b3 7f85 	cmp.w	r3, #266	; 0x10a
 8002346:	d904      	bls.n	8002352 <main+0x4a6>
 8002348:	4b26      	ldr	r3, [pc, #152]	; (80023e4 <main+0x538>)
 800234a:	681b      	ldr	r3, [r3, #0]
 800234c:	3301      	adds	r3, #1
 800234e:	4a25      	ldr	r2, [pc, #148]	; (80023e4 <main+0x538>)
 8002350:	6013      	str	r3, [r2, #0]
#ifndef	SOMENTE_EIXO_Z
				if (qual_eixo)
 8002352:	4b17      	ldr	r3, [pc, #92]	; (80023b0 <main+0x504>)
 8002354:	781b      	ldrb	r3, [r3, #0]
 8002356:	2b00      	cmp	r3, #0
 8002358:	d016      	beq.n	8002388 <main+0x4dc>
				{
					qual_eixo--;
 800235a:	4b15      	ldr	r3, [pc, #84]	; (80023b0 <main+0x504>)
 800235c:	781b      	ldrb	r3, [r3, #0]
 800235e:	3b01      	subs	r3, #1
 8002360:	b2da      	uxtb	r2, r3
 8002362:	4b13      	ldr	r3, [pc, #76]	; (80023b0 <main+0x504>)
 8002364:	701a      	strb	r2, [r3, #0]
					Le_Qual_Eixo = qual_eixo;
 8002366:	4b12      	ldr	r3, [pc, #72]	; (80023b0 <main+0x504>)
 8002368:	781b      	ldrb	r3, [r3, #0]
 800236a:	461a      	mov	r2, r3
 800236c:	4b1e      	ldr	r3, [pc, #120]	; (80023e8 <main+0x53c>)
 800236e:	601a      	str	r2, [r3, #0]
					Transmitiu_X = qual_eixo*10 + 9;
 8002370:	4b0f      	ldr	r3, [pc, #60]	; (80023b0 <main+0x504>)
 8002372:	781b      	ldrb	r3, [r3, #0]
 8002374:	461a      	mov	r2, r3
 8002376:	4613      	mov	r3, r2
 8002378:	009b      	lsls	r3, r3, #2
 800237a:	4413      	add	r3, r2
 800237c:	005b      	lsls	r3, r3, #1
 800237e:	3309      	adds	r3, #9
 8002380:	461a      	mov	r2, r3
 8002382:	4b1a      	ldr	r3, [pc, #104]	; (80023ec <main+0x540>)
 8002384:	601a      	str	r2, [r3, #0]
 8002386:	e008      	b.n	800239a <main+0x4ee>
				}
				else
				{// aqui o ultimo eixo transmitido foi o X
					Transmitiu_X = 29;
 8002388:	4b18      	ldr	r3, [pc, #96]	; (80023ec <main+0x540>)
 800238a:	221d      	movs	r2, #29
 800238c:	601a      	str	r2, [r3, #0]
					Le_Qual_Eixo = qual_eixo = 2;
 800238e:	4b08      	ldr	r3, [pc, #32]	; (80023b0 <main+0x504>)
 8002390:	2202      	movs	r2, #2
 8002392:	701a      	strb	r2, [r3, #0]
 8002394:	4b14      	ldr	r3, [pc, #80]	; (80023e8 <main+0x53c>)
 8002396:	2202      	movs	r2, #2
 8002398:	601a      	str	r2, [r3, #0]
				}
#endif
				HAL_NVIC_DisableIRQ (EXTI1_IRQn); // Desabilita external interrupt SPIRIT1_GPIO3
 800239a:	2007      	movs	r0, #7
 800239c:	f004 fc41 	bl	8006c22 <HAL_NVIC_DisableIRQ>
				transmitindo = 0;
 80023a0:	4b09      	ldr	r3, [pc, #36]	; (80023c8 <main+0x51c>)
 80023a2:	2200      	movs	r2, #0
 80023a4:	601a      	str	r2, [r3, #0]
				Estado_Leitura = EST_DORMIR;
 80023a6:	4b0a      	ldr	r3, [pc, #40]	; (80023d0 <main+0x524>)
 80023a8:	2204      	movs	r2, #4
 80023aa:	701a      	strb	r2, [r3, #0]
			}
			break;
 80023ac:	e172      	b.n	8002694 <main+0x7e8>
 80023ae:	bf00      	nop
 80023b0:	20000588 	.word	0x20000588
 80023b4:	20000960 	.word	0x20000960
 80023b8:	20000968 	.word	0x20000968
 80023bc:	2000009c 	.word	0x2000009c
 80023c0:	20000964 	.word	0x20000964
 80023c4:	20007190 	.word	0x20007190
 80023c8:	200071ac 	.word	0x200071ac
 80023cc:	20013a78 	.word	0x20013a78
 80023d0:	2000d540 	.word	0x2000d540
 80023d4:	48000400 	.word	0x48000400
 80023d8:	200004c0 	.word	0x200004c0
 80023dc:	20013938 	.word	0x20013938
 80023e0:	2000718c 	.word	0x2000718c
 80023e4:	100061c0 	.word	0x100061c0
 80023e8:	100061b0 	.word	0x100061b0
 80023ec:	100061b8 	.word	0x100061b8
		case EST_DORMIR:
			/*** Check if the SB flag is set ***/
			if (__HAL_PWR_GET_FLAG (PWR_FLAG_SB) != RESET)
 80023f0:	4ba9      	ldr	r3, [pc, #676]	; (8002698 <main+0x7ec>)
 80023f2:	691b      	ldr	r3, [r3, #16]
 80023f4:	f403 7380 	and.w	r3, r3, #256	; 0x100
 80023f8:	2b00      	cmp	r3, #0
 80023fa:	d006      	beq.n	800240a <main+0x55e>
			{
				__HAL_PWR_CLEAR_FLAG (PWR_FLAG_SB);  // clear the flag
 80023fc:	4ba6      	ldr	r3, [pc, #664]	; (8002698 <main+0x7ec>)
 80023fe:	f44f 7280 	mov.w	r2, #256	; 0x100
 8002402:	619a      	str	r2, [r3, #24]
				/** Deactivate the RTC wakeup  **/
				HAL_RTCEx_DeactivateWakeUpTimer (&hrtc);
 8002404:	48a5      	ldr	r0, [pc, #660]	; (800269c <main+0x7f0>)
 8002406:	f008 f8df 	bl	800a5c8 <HAL_RTCEx_DeactivateWakeUpTimer>
			}
			//======================================================================
			// Condição de alguns pinos para manter em certas condições quando em Stand-by mode
			HAL_PWREx_EnableGPIOPullDown (PWR_GPIO_A, SPIRIT1_MISO_Pin);
 800240a:	2140      	movs	r1, #64	; 0x40
 800240c:	2000      	movs	r0, #0
 800240e:	f005 ffe9 	bl	80083e4 <HAL_PWREx_EnableGPIOPullDown>
			HAL_PWREx_EnableGPIOPullDown (PWR_GPIO_A, SPIRIT1_MOSI_Pin);
 8002412:	2180      	movs	r1, #128	; 0x80
 8002414:	2000      	movs	r0, #0
 8002416:	f005 ffe5 	bl	80083e4 <HAL_PWREx_EnableGPIOPullDown>
			HAL_PWREx_EnableGPIOPullDown (PWR_GPIO_A, SPIRIT1_SCK_Pin);
 800241a:	2120      	movs	r1, #32
 800241c:	2000      	movs	r0, #0
 800241e:	f005 ffe1 	bl	80083e4 <HAL_PWREx_EnableGPIOPullDown>
			HAL_PWREx_EnableGPIOPullDown (PWR_GPIO_A, SPIRIT1_SDN_Pin);
 8002422:	2104      	movs	r1, #4
 8002424:	2000      	movs	r0, #0
 8002426:	f005 ffdd 	bl	80083e4 <HAL_PWREx_EnableGPIOPullDown>
			HAL_PWREx_EnableGPIOPullDown (PWR_GPIO_A, SPIRIT1_CS_Pin);
 800242a:	2108      	movs	r1, #8
 800242c:	2000      	movs	r0, #0
 800242e:	f005 ffd9 	bl	80083e4 <HAL_PWREx_EnableGPIOPullDown>
			HAL_PWREx_EnableGPIOPullUp (PWR_GPIO_A, PWM_Timer_Pin);
 8002432:	f44f 7180 	mov.w	r1, #256	; 0x100
 8002436:	2000      	movs	r0, #0
 8002438:	f005 ff1c 	bl	8008274 <HAL_PWREx_EnableGPIOPullUp>
			HAL_PWREx_EnableGPIOPullUp (PWR_GPIO_A, PWM_Acc_Pin);
 800243c:	f44f 7100 	mov.w	r1, #512	; 0x200
 8002440:	2000      	movs	r0, #0
 8002442:	f005 ff17 	bl	8008274 <HAL_PWREx_EnableGPIOPullUp>
			HAL_PWREx_EnableGPIOPullUp (PWR_GPIO_A, PWM_RF_Pin);
 8002446:	f44f 6180 	mov.w	r1, #1024	; 0x400
 800244a:	2000      	movs	r0, #0
 800244c:	f005 ff12 	bl	8008274 <HAL_PWREx_EnableGPIOPullUp>

			HAL_PWREx_EnableGPIOPullDown (PWR_GPIO_C, SPIRIT1_GPIO0_Pin);
 8002450:	2110      	movs	r1, #16
 8002452:	2002      	movs	r0, #2
 8002454:	f005 ffc6 	bl	80083e4 <HAL_PWREx_EnableGPIOPullDown>
			HAL_PWREx_EnableGPIOPullDown (PWR_GPIO_C, SPIRIT1_GPIO1_Pin);
 8002458:	2120      	movs	r1, #32
 800245a:	2002      	movs	r0, #2
 800245c:	f005 ffc2 	bl	80083e4 <HAL_PWREx_EnableGPIOPullDown>
			HAL_PWREx_EnableGPIOPullDown (PWR_GPIO_C, PWR_IIS31_Pin);
 8002460:	f44f 7180 	mov.w	r1, #256	; 0x100
 8002464:	2002      	movs	r0, #2
 8002466:	f005 ffbd 	bl	80083e4 <HAL_PWREx_EnableGPIOPullDown>
			HAL_PWREx_EnableGPIOPullDown (PWR_GPIO_C, PWR_IIS32_Pin);
 800246a:	f44f 7100 	mov.w	r1, #512	; 0x200
 800246e:	2002      	movs	r0, #2
 8002470:	f005 ffb8 	bl	80083e4 <HAL_PWREx_EnableGPIOPullDown>
			HAL_PWREx_EnableGPIOPullDown (PWR_GPIO_C, PWR_RF_Pin);
 8002474:	f44f 5180 	mov.w	r1, #4096	; 0x1000
 8002478:	2002      	movs	r0, #2
 800247a:	f005 ffb3 	bl	80083e4 <HAL_PWREx_EnableGPIOPullDown>
			HAL_PWREx_EnableGPIOPullDown (PWR_GPIO_B, SPIRIT1_GPIO2_Pin);
 800247e:	2101      	movs	r1, #1
 8002480:	2001      	movs	r0, #1
 8002482:	f005 ffaf 	bl	80083e4 <HAL_PWREx_EnableGPIOPullDown>
			HAL_PWREx_EnableGPIOPullDown (PWR_GPIO_B, SPIRIT1_GPIO3_Pin);
 8002486:	2102      	movs	r1, #2
 8002488:	2001      	movs	r0, #1
 800248a:	f005 ffab 	bl	80083e4 <HAL_PWREx_EnableGPIOPullDown>
			HAL_PWREx_EnableGPIOPullDown (PWR_GPIO_B, AMPL_CSD_Pin);
 800248e:	f44f 6100 	mov.w	r1, #2048	; 0x800
 8002492:	2001      	movs	r0, #1
 8002494:	f005 ffa6 	bl	80083e4 <HAL_PWREx_EnableGPIOPullDown>
			HAL_PWREx_EnableGPIOPullDown (PWR_GPIO_B, AMPL_BYP_Pin);
 8002498:	f44f 6180 	mov.w	r1, #1024	; 0x400
 800249c:	2001      	movs	r0, #1
 800249e:	f005 ffa1 	bl	80083e4 <HAL_PWREx_EnableGPIOPullDown>
			HAL_PWREx_EnableGPIOPullDown (PWR_GPIO_B, AMPL_CTX_Pin);
 80024a2:	2104      	movs	r1, #4
 80024a4:	2001      	movs	r0, #1
 80024a6:	f005 ff9d 	bl	80083e4 <HAL_PWREx_EnableGPIOPullDown>
			HAL_PWREx_EnablePullUpPullDownConfig ();
 80024aa:	f006 f853 	bl	8008554 <HAL_PWREx_EnablePullUpPullDownConfig>

			HAL_GPIO_WritePin (IIS3_MISO_GPIO_Port, IIS3_MISO_Pin, GPIO_PIN_RESET);
 80024ae:	2200      	movs	r2, #0
 80024b0:	f44f 4180 	mov.w	r1, #16384	; 0x4000
 80024b4:	487a      	ldr	r0, [pc, #488]	; (80026a0 <main+0x7f4>)
 80024b6:	f004 fd61 	bl	8006f7c <HAL_GPIO_WritePin>
			HAL_GPIO_WritePin (IIS3_MOSI_GPIO_Port, IIS3_MOSI_Pin, GPIO_PIN_RESET);
 80024ba:	2200      	movs	r2, #0
 80024bc:	f44f 4100 	mov.w	r1, #32768	; 0x8000
 80024c0:	4877      	ldr	r0, [pc, #476]	; (80026a0 <main+0x7f4>)
 80024c2:	f004 fd5b 	bl	8006f7c <HAL_GPIO_WritePin>
			HAL_GPIO_WritePin (IIS3_SCK_GPIO_Port, IIS3_SCK_Pin, GPIO_PIN_RESET);
 80024c6:	2200      	movs	r2, #0
 80024c8:	f44f 5100 	mov.w	r1, #8192	; 0x2000
 80024cc:	4874      	ldr	r0, [pc, #464]	; (80026a0 <main+0x7f4>)
 80024ce:	f004 fd55 	bl	8006f7c <HAL_GPIO_WritePin>
			ACCEL_CS(GPIO_PIN_RESET);
 80024d2:	2200      	movs	r2, #0
 80024d4:	f44f 5180 	mov.w	r1, #4096	; 0x1000
 80024d8:	4871      	ldr	r0, [pc, #452]	; (80026a0 <main+0x7f4>)
 80024da:	f004 fd4f 	bl	8006f7c <HAL_GPIO_WritePin>
			PWR1_ACCEL(GPIO_PIN_RESET);
 80024de:	2200      	movs	r2, #0
 80024e0:	f44f 7180 	mov.w	r1, #256	; 0x100
 80024e4:	486f      	ldr	r0, [pc, #444]	; (80026a4 <main+0x7f8>)
 80024e6:	f004 fd49 	bl	8006f7c <HAL_GPIO_WritePin>
			PWR2_ACCEL(GPIO_PIN_RESET);
 80024ea:	2200      	movs	r2, #0
 80024ec:	f44f 7100 	mov.w	r1, #512	; 0x200
 80024f0:	486c      	ldr	r0, [pc, #432]	; (80026a4 <main+0x7f8>)
 80024f2:	f004 fd43 	bl	8006f7c <HAL_GPIO_WritePin>

			PWM_Timer2(1);
 80024f6:	2201      	movs	r2, #1
 80024f8:	f44f 7180 	mov.w	r1, #256	; 0x100
 80024fc:	f04f 4090 	mov.w	r0, #1207959552	; 0x48000000
 8002500:	f004 fd3c 	bl	8006f7c <HAL_GPIO_WritePin>
			PWM_ACC2(1);
 8002504:	2201      	movs	r2, #1
 8002506:	f44f 7100 	mov.w	r1, #512	; 0x200
 800250a:	f04f 4090 	mov.w	r0, #1207959552	; 0x48000000
 800250e:	f004 fd35 	bl	8006f7c <HAL_GPIO_WritePin>
			PWM_RF2(1);
 8002512:	2201      	movs	r2, #1
 8002514:	f44f 6180 	mov.w	r1, #1024	; 0x400
 8002518:	f04f 4090 	mov.w	r0, #1207959552	; 0x48000000
 800251c:	f004 fd2e 	bl	8006f7c <HAL_GPIO_WritePin>

			HAL_GPIO_WritePin (SPIRIT1_MISO_GPIO_Port, SPIRIT1_MISO_Pin, GPIO_PIN_RESET);
 8002520:	2200      	movs	r2, #0
 8002522:	2140      	movs	r1, #64	; 0x40
 8002524:	f04f 4090 	mov.w	r0, #1207959552	; 0x48000000
 8002528:	f004 fd28 	bl	8006f7c <HAL_GPIO_WritePin>
			HAL_GPIO_WritePin (SPIRIT1_MOSI_GPIO_Port, SPIRIT1_MOSI_Pin, GPIO_PIN_RESET);
 800252c:	2200      	movs	r2, #0
 800252e:	2180      	movs	r1, #128	; 0x80
 8002530:	f04f 4090 	mov.w	r0, #1207959552	; 0x48000000
 8002534:	f004 fd22 	bl	8006f7c <HAL_GPIO_WritePin>
			HAL_GPIO_WritePin (SPIRIT1_SCK_GPIO_Port, SPIRIT1_SCK_Pin, GPIO_PIN_RESET);
 8002538:	2200      	movs	r2, #0
 800253a:	2120      	movs	r1, #32
 800253c:	f04f 4090 	mov.w	r0, #1207959552	; 0x48000000
 8002540:	f004 fd1c 	bl	8006f7c <HAL_GPIO_WritePin>
			SPIRIT1_SDN(GPIO_PIN_SET);
 8002544:	2201      	movs	r2, #1
 8002546:	2104      	movs	r1, #4
 8002548:	f04f 4090 	mov.w	r0, #1207959552	; 0x48000000
 800254c:	f004 fd16 	bl	8006f7c <HAL_GPIO_WritePin>
			SPIRIT1_CS(GPIO_PIN_RESET);
 8002550:	2200      	movs	r2, #0
 8002552:	2108      	movs	r1, #8
 8002554:	f04f 4090 	mov.w	r0, #1207959552	; 0x48000000
 8002558:	f004 fd10 	bl	8006f7c <HAL_GPIO_WritePin>
			HAL_GPIO_WritePin (SPIRIT1_GPIO0_GPIO_Port, SPIRIT1_GPIO0_Pin, GPIO_PIN_RESET);
 800255c:	2200      	movs	r2, #0
 800255e:	2110      	movs	r1, #16
 8002560:	4850      	ldr	r0, [pc, #320]	; (80026a4 <main+0x7f8>)
 8002562:	f004 fd0b 	bl	8006f7c <HAL_GPIO_WritePin>
			HAL_GPIO_WritePin (SPIRIT1_GPIO1_GPIO_Port, SPIRIT1_GPIO1_Pin, GPIO_PIN_RESET);
 8002566:	2200      	movs	r2, #0
 8002568:	2120      	movs	r1, #32
 800256a:	484e      	ldr	r0, [pc, #312]	; (80026a4 <main+0x7f8>)
 800256c:	f004 fd06 	bl	8006f7c <HAL_GPIO_WritePin>
			HAL_GPIO_WritePin (SPIRIT1_GPIO2_GPIO_Port, SPIRIT1_GPIO2_Pin, GPIO_PIN_RESET);
 8002570:	2200      	movs	r2, #0
 8002572:	2101      	movs	r1, #1
 8002574:	484a      	ldr	r0, [pc, #296]	; (80026a0 <main+0x7f4>)
 8002576:	f004 fd01 	bl	8006f7c <HAL_GPIO_WritePin>
			HAL_GPIO_WritePin (SPIRIT1_GPIO3_GPIO_Port, SPIRIT1_GPIO3_Pin, GPIO_PIN_RESET);
 800257a:	2200      	movs	r2, #0
 800257c:	2102      	movs	r1, #2
 800257e:	4848      	ldr	r0, [pc, #288]	; (80026a0 <main+0x7f4>)
 8002580:	f004 fcfc 	bl	8006f7c <HAL_GPIO_WritePin>

			SKY_CSD(GPIO_PIN_RESET);
 8002584:	2200      	movs	r2, #0
 8002586:	f44f 6100 	mov.w	r1, #2048	; 0x800
 800258a:	4845      	ldr	r0, [pc, #276]	; (80026a0 <main+0x7f4>)
 800258c:	f004 fcf6 	bl	8006f7c <HAL_GPIO_WritePin>
			SKY_BYP(GPIO_PIN_RESET);
 8002590:	2200      	movs	r2, #0
 8002592:	f44f 6180 	mov.w	r1, #1024	; 0x400
 8002596:	4842      	ldr	r0, [pc, #264]	; (80026a0 <main+0x7f4>)
 8002598:	f004 fcf0 	bl	8006f7c <HAL_GPIO_WritePin>
			SKY_CTX(GPIO_PIN_RESET);
 800259c:	2200      	movs	r2, #0
 800259e:	2104      	movs	r1, #4
 80025a0:	483f      	ldr	r0, [pc, #252]	; (80026a0 <main+0x7f4>)
 80025a2:	f004 fceb 	bl	8006f7c <HAL_GPIO_WritePin>

			//======================================================================
			/* Clear the WU FLAG */
			__HAL_PWR_CLEAR_FLAG (PWR_FLAG_WU);
 80025a6:	4b3c      	ldr	r3, [pc, #240]	; (8002698 <main+0x7ec>)
 80025a8:	221f      	movs	r2, #31
 80025aa:	619a      	str	r2, [r3, #24]
			/* clear the RTC Wake UP (WU) flag */
			__HAL_RTC_WAKEUPTIMER_CLEAR_FLAG (&hrtc, RTC_FLAG_WUTF);
 80025ac:	4b3b      	ldr	r3, [pc, #236]	; (800269c <main+0x7f0>)
 80025ae:	681b      	ldr	r3, [r3, #0]
 80025b0:	68db      	ldr	r3, [r3, #12]
 80025b2:	b2da      	uxtb	r2, r3
 80025b4:	4b39      	ldr	r3, [pc, #228]	; (800269c <main+0x7f0>)
 80025b6:	681b      	ldr	r3, [r3, #0]
 80025b8:	f462 6290 	orn	r2, r2, #1152	; 0x480
 80025bc:	60da      	str	r2, [r3, #12]
			// RTC_WAKEUPCLOCK_RTCCLK_DIV = RTCCLK_Div16 = 16
			// Wake-up Time Base = 16 /(32KHz) =~ 0.0005 seconds
			// ==> WakeUpCounter = ~10s/0.0005s = 20.000 = 0x4E20
			// ==> WakeUpCounter = ~30s/0.0005s = 61.440 = 0xF000
			// ==> WakeUpCounter = ~30*60s/0.0005s = 3.600.000 = 0x36EE80
			HAL_PWREx_SetSRAM2ContentRetention (PWR_FULL_SRAM2_RETENTION);
 80025be:	f44f 7080 	mov.w	r0, #256	; 0x100
 80025c2:	f005 ffd7 	bl	8008574 <HAL_PWREx_SetSRAM2ContentRetention>
			while (Time_processo%1000)
 80025c6:	bf00      	nop
 80025c8:	4b37      	ldr	r3, [pc, #220]	; (80026a8 <main+0x7fc>)
 80025ca:	681a      	ldr	r2, [r3, #0]
 80025cc:	4b37      	ldr	r3, [pc, #220]	; (80026ac <main+0x800>)
 80025ce:	fb83 1302 	smull	r1, r3, r3, r2
 80025d2:	1199      	asrs	r1, r3, #6
 80025d4:	17d3      	asrs	r3, r2, #31
 80025d6:	1acb      	subs	r3, r1, r3
 80025d8:	f44f 717a 	mov.w	r1, #1000	; 0x3e8
 80025dc:	fb01 f303 	mul.w	r3, r1, r3
 80025e0:	1ad3      	subs	r3, r2, r3
 80025e2:	2b00      	cmp	r3, #0
 80025e4:	d1f0      	bne.n	80025c8 <main+0x71c>
			{
			}
			Time_Soma_Eixos += Time_processo;
 80025e6:	4b32      	ldr	r3, [pc, #200]	; (80026b0 <main+0x804>)
 80025e8:	681b      	ldr	r3, [r3, #0]
 80025ea:	4a2f      	ldr	r2, [pc, #188]	; (80026a8 <main+0x7fc>)
 80025ec:	6812      	ldr	r2, [r2, #0]
 80025ee:	4413      	add	r3, r2
 80025f0:	4a2f      	ldr	r2, [pc, #188]	; (80026b0 <main+0x804>)
 80025f2:	6013      	str	r3, [r2, #0]
#ifdef SOMENTE_EIXO_Z
			Delta_Time_s -= (Time_Soma_Eixos/1000);
			Time_Soma_Eixos = 0;
#else
			// Definidos todos os 3 eixos
			if (Le_Qual_Eixo == 2)
 80025f4:	4b2f      	ldr	r3, [pc, #188]	; (80026b4 <main+0x808>)
 80025f6:	681b      	ldr	r3, [r3, #0]
 80025f8:	2b02      	cmp	r3, #2
 80025fa:	d11b      	bne.n	8002634 <main+0x788>
			{
				Delta_Time_s -= ((Time_Soma_Eixos/1000) + (2*TIMER_SLEEP_EIXOS));
 80025fc:	4b2c      	ldr	r3, [pc, #176]	; (80026b0 <main+0x804>)
 80025fe:	681b      	ldr	r3, [r3, #0]
 8002600:	4a2a      	ldr	r2, [pc, #168]	; (80026ac <main+0x800>)
 8002602:	fba2 2303 	umull	r2, r3, r2, r3
 8002606:	099b      	lsrs	r3, r3, #6
 8002608:	3324      	adds	r3, #36	; 0x24
 800260a:	4a2b      	ldr	r2, [pc, #172]	; (80026b8 <main+0x80c>)
 800260c:	6812      	ldr	r2, [r2, #0]
 800260e:	1ad3      	subs	r3, r2, r3
 8002610:	4a29      	ldr	r2, [pc, #164]	; (80026b8 <main+0x80c>)
 8002612:	6013      	str	r3, [r2, #0]
				Delta_Time_s -= 3; // para decrementar os 3 segundos que está somando nos sensores
 8002614:	4b28      	ldr	r3, [pc, #160]	; (80026b8 <main+0x80c>)
 8002616:	681b      	ldr	r3, [r3, #0]
 8002618:	3b03      	subs	r3, #3
 800261a:	4a27      	ldr	r2, [pc, #156]	; (80026b8 <main+0x80c>)
 800261c:	6013      	str	r3, [r2, #0]
				if (Delta_Time_s < TIMER_SLEEP_EIXOS)
 800261e:	4b26      	ldr	r3, [pc, #152]	; (80026b8 <main+0x80c>)
 8002620:	681b      	ldr	r3, [r3, #0]
 8002622:	2b11      	cmp	r3, #17
 8002624:	d802      	bhi.n	800262c <main+0x780>
				{
					Delta_Time_s = TIMER_SLEEP_EIXOS;
 8002626:	4b24      	ldr	r3, [pc, #144]	; (80026b8 <main+0x80c>)
 8002628:	2212      	movs	r2, #18
 800262a:	601a      	str	r2, [r3, #0]
				}
				Time_Soma_Eixos = 0;
 800262c:	4b20      	ldr	r3, [pc, #128]	; (80026b0 <main+0x804>)
 800262e:	2200      	movs	r2, #0
 8002630:	601a      	str	r2, [r3, #0]
 8002632:	e002      	b.n	800263a <main+0x78e>
			}
			else
			{
				Delta_Time_s = TIMER_SLEEP_EIXOS;
 8002634:	4b20      	ldr	r3, [pc, #128]	; (80026b8 <main+0x80c>)
 8002636:	2212      	movs	r2, #18
 8002638:	601a      	str	r2, [r3, #0]
			}
#endif
			if (Delta_Time_s > 0xFFFF)
 800263a:	4b1f      	ldr	r3, [pc, #124]	; (80026b8 <main+0x80c>)
 800263c:	681b      	ldr	r3, [r3, #0]
 800263e:	f5b3 3f80 	cmp.w	r3, #65536	; 0x10000
 8002642:	d312      	bcc.n	800266a <main+0x7be>
			{
				Delta_Time_s -= 0x10000;
 8002644:	4b1c      	ldr	r3, [pc, #112]	; (80026b8 <main+0x80c>)
 8002646:	681b      	ldr	r3, [r3, #0]
 8002648:	f5a3 3380 	sub.w	r3, r3, #65536	; 0x10000
 800264c:	4a1a      	ldr	r2, [pc, #104]	; (80026b8 <main+0x80c>)
 800264e:	6013      	str	r3, [r2, #0]
				if (HAL_RTCEx_SetWakeUpTimer_IT (&hrtc, Delta_Time_s, RTC_WAKEUPCLOCK_CK_SPRE_17BITS) != HAL_OK)
 8002650:	4b19      	ldr	r3, [pc, #100]	; (80026b8 <main+0x80c>)
 8002652:	681b      	ldr	r3, [r3, #0]
 8002654:	2206      	movs	r2, #6
 8002656:	4619      	mov	r1, r3
 8002658:	4810      	ldr	r0, [pc, #64]	; (800269c <main+0x7f0>)
 800265a:	f007 ff21 	bl	800a4a0 <HAL_RTCEx_SetWakeUpTimer_IT>
 800265e:	4603      	mov	r3, r0
 8002660:	2b00      	cmp	r3, #0
 8002662:	d00e      	beq.n	8002682 <main+0x7d6>
				{
					Error_Handler();
 8002664:	f001 f9ea 	bl	8003a3c <Error_Handler>
 8002668:	e00b      	b.n	8002682 <main+0x7d6>
				}
			}
			else
			{
				if (HAL_RTCEx_SetWakeUpTimer_IT (&hrtc, Delta_Time_s, RTC_WAKEUPCLOCK_CK_SPRE_16BITS) != HAL_OK)
 800266a:	4b13      	ldr	r3, [pc, #76]	; (80026b8 <main+0x80c>)
 800266c:	681b      	ldr	r3, [r3, #0]
 800266e:	2204      	movs	r2, #4
 8002670:	4619      	mov	r1, r3
 8002672:	480a      	ldr	r0, [pc, #40]	; (800269c <main+0x7f0>)
 8002674:	f007 ff14 	bl	800a4a0 <HAL_RTCEx_SetWakeUpTimer_IT>
 8002678:	4603      	mov	r3, r0
 800267a:	2b00      	cmp	r3, #0
 800267c:	d001      	beq.n	8002682 <main+0x7d6>
				{
					Error_Handler();
 800267e:	f001 f9dd 	bl	8003a3c <Error_Handler>
				}
			}
			HAL_PWR_EnterSTANDBYMode ();
 8002682:	f005 fd69 	bl	8008158 <HAL_PWR_EnterSTANDBYMode>
			while (1)
 8002686:	e7fe      	b.n	8002686 <main+0x7da>
			{
			}
			break;
		default:
			Estado_Leitura = EST_DORMIR;
 8002688:	4b0c      	ldr	r3, [pc, #48]	; (80026bc <main+0x810>)
 800268a:	2204      	movs	r2, #4
 800268c:	701a      	strb	r2, [r3, #0]
			break;
 800268e:	e002      	b.n	8002696 <main+0x7ea>
			break;
 8002690:	bf00      	nop
 8002692:	e4cb      	b.n	800202c <main+0x180>
			break;
 8002694:	bf00      	nop
		switch (Estado_Leitura)
 8002696:	e4c9      	b.n	800202c <main+0x180>
 8002698:	40007000 	.word	0x40007000
 800269c:	20013a7c 	.word	0x20013a7c
 80026a0:	48000400 	.word	0x48000400
 80026a4:	48000800 	.word	0x48000800
 80026a8:	2000d5c0 	.word	0x2000d5c0
 80026ac:	10624dd3 	.word	0x10624dd3
 80026b0:	100061b4 	.word	0x100061b4
 80026b4:	100061b0 	.word	0x100061b0
 80026b8:	2000d5ac 	.word	0x2000d5ac
 80026bc:	2000d540 	.word	0x2000d540

080026c0 <SystemClock_Config>:
/**
  * @brief System Clock Configuration
  * @retval None
  */
void SystemClock_Config(void)
{
 80026c0:	b580      	push	{r7, lr}
 80026c2:	b096      	sub	sp, #88	; 0x58
